
Demo3_1LED.elf:     file format elf32-littlearm

Sections:
Idx Name          Size      VMA       LMA       File off  Algn
  0 .isr_vector   00000188  08000000  08000000  00010000  2**0
                  CONTENTS, ALLOC, LOAD, READONLY, DATA
  1 .text         00001558  08000188  08000188  00010188  2**2
                  CONTENTS, ALLOC, LOAD, READONLY, CODE
  2 .rodata       00000010  080016e0  080016e0  000116e0  2**2
                  CONTENTS, ALLOC, LOAD, READONLY, DATA
  3 .ARM.extab    00000000  080016f0  080016f0  0002000c  2**0
                  CONTENTS
  4 .ARM          00000008  080016f0  080016f0  000116f0  2**2
                  CONTENTS, ALLOC, LOAD, READONLY, DATA
  5 .preinit_array 00000000  080016f8  080016f8  0002000c  2**0
                  CONTENTS, ALLOC, LOAD, DATA
  6 .init_array   00000004  080016f8  080016f8  000116f8  2**2
                  CONTENTS, ALLOC, LOAD, DATA
  7 .fini_array   00000004  080016fc  080016fc  000116fc  2**2
                  CONTENTS, ALLOC, LOAD, DATA
  8 .data         0000000c  20000000  08001700  00020000  2**2
                  CONTENTS, ALLOC, LOAD, DATA
  9 .ccmram       00000000  10000000  10000000  0002000c  2**0
                  CONTENTS
 10 .bss          00000020  2000000c  2000000c  0002000c  2**2
                  ALLOC
 11 ._user_heap_stack 00000604  2000002c  2000002c  0002000c  2**0
                  ALLOC
 12 .ARM.attributes 00000030  00000000  00000000  0002000c  2**0
                  CONTENTS, READONLY
 13 .debug_info   00003ad9  00000000  00000000  0002003c  2**0
                  CONTENTS, READONLY, DEBUGGING, OCTETS
 14 .debug_abbrev 00000f13  00000000  00000000  00023b15  2**0
                  CONTENTS, READONLY, DEBUGGING, OCTETS
 15 .debug_aranges 00000408  00000000  00000000  00024a28  2**3
                  CONTENTS, READONLY, DEBUGGING, OCTETS
 16 .debug_ranges 00000370  00000000  00000000  00024e30  2**3
                  CONTENTS, READONLY, DEBUGGING, OCTETS
 17 .debug_macro  0001ef3c  00000000  00000000  000251a0  2**0
                  CONTENTS, READONLY, DEBUGGING, OCTETS
 18 .debug_line   00005a45  00000000  00000000  000440dc  2**0
                  CONTENTS, READONLY, DEBUGGING, OCTETS
 19 .debug_str    000bbe14  00000000  00000000  00049b21  2**0
                  CONTENTS, READONLY, DEBUGGING, OCTETS
 20 .comment      00000050  00000000  00000000  00105935  2**0
                  CONTENTS, READONLY
 21 .debug_frame  00000e28  00000000  00000000  00105988  2**2
                  CONTENTS, READONLY, DEBUGGING, OCTETS

Disassembly of section .text:

08000188 <__do_global_dtors_aux>:
 8000188:	b510      	push	{r4, lr}
 800018a:	4c05      	ldr	r4, [pc, #20]	; (80001a0 <__do_global_dtors_aux+0x18>)
 800018c:	7823      	ldrb	r3, [r4, #0]
 800018e:	b933      	cbnz	r3, 800019e <__do_global_dtors_aux+0x16>
 8000190:	4b04      	ldr	r3, [pc, #16]	; (80001a4 <__do_global_dtors_aux+0x1c>)
 8000192:	b113      	cbz	r3, 800019a <__do_global_dtors_aux+0x12>
 8000194:	4804      	ldr	r0, [pc, #16]	; (80001a8 <__do_global_dtors_aux+0x20>)
 8000196:	f3af 8000 	nop.w
 800019a:	2301      	movs	r3, #1
 800019c:	7023      	strb	r3, [r4, #0]
 800019e:	bd10      	pop	{r4, pc}
 80001a0:	2000000c 	.word	0x2000000c
 80001a4:	00000000 	.word	0x00000000
 80001a8:	080016c8 	.word	0x080016c8

080001ac <frame_dummy>:
 80001ac:	b508      	push	{r3, lr}
 80001ae:	4b03      	ldr	r3, [pc, #12]	; (80001bc <frame_dummy+0x10>)
 80001b0:	b11b      	cbz	r3, 80001ba <frame_dummy+0xe>
 80001b2:	4903      	ldr	r1, [pc, #12]	; (80001c0 <frame_dummy+0x14>)
 80001b4:	4803      	ldr	r0, [pc, #12]	; (80001c4 <frame_dummy+0x18>)
 80001b6:	f3af 8000 	nop.w
 80001ba:	bd08      	pop	{r3, pc}
 80001bc:	00000000 	.word	0x00000000
 80001c0:	20000010 	.word	0x20000010
 80001c4:	080016c8 	.word	0x080016c8

080001c8 <__aeabi_uldivmod>:
 80001c8:	b953      	cbnz	r3, 80001e0 <__aeabi_uldivmod+0x18>
 80001ca:	b94a      	cbnz	r2, 80001e0 <__aeabi_uldivmod+0x18>
 80001cc:	2900      	cmp	r1, #0
 80001ce:	bf08      	it	eq
 80001d0:	2800      	cmpeq	r0, #0
 80001d2:	bf1c      	itt	ne
 80001d4:	f04f 31ff 	movne.w	r1, #4294967295
 80001d8:	f04f 30ff 	movne.w	r0, #4294967295
 80001dc:	f000 b974 	b.w	80004c8 <__aeabi_idiv0>
 80001e0:	f1ad 0c08 	sub.w	ip, sp, #8
 80001e4:	e96d ce04 	strd	ip, lr, [sp, #-16]!
 80001e8:	f000 f806 	bl	80001f8 <__udivmoddi4>
 80001ec:	f8dd e004 	ldr.w	lr, [sp, #4]
 80001f0:	e9dd 2302 	ldrd	r2, r3, [sp, #8]
 80001f4:	b004      	add	sp, #16
 80001f6:	4770      	bx	lr

080001f8 <__udivmoddi4>:
 80001f8:	e92d 47f0 	stmdb	sp!, {r4, r5, r6, r7, r8, r9, sl, lr}
 80001fc:	9d08      	ldr	r5, [sp, #32]
 80001fe:	4604      	mov	r4, r0
 8000200:	468e      	mov	lr, r1
 8000202:	2b00      	cmp	r3, #0
 8000204:	d14d      	bne.n	80002a2 <__udivmoddi4+0xaa>
 8000206:	428a      	cmp	r2, r1
 8000208:	4694      	mov	ip, r2
 800020a:	d969      	bls.n	80002e0 <__udivmoddi4+0xe8>
 800020c:	fab2 f282 	clz	r2, r2
 8000210:	b152      	cbz	r2, 8000228 <__udivmoddi4+0x30>
 8000212:	fa01 f302 	lsl.w	r3, r1, r2
 8000216:	f1c2 0120 	rsb	r1, r2, #32
 800021a:	fa20 f101 	lsr.w	r1, r0, r1
 800021e:	fa0c fc02 	lsl.w	ip, ip, r2
 8000222:	ea41 0e03 	orr.w	lr, r1, r3
 8000226:	4094      	lsls	r4, r2
 8000228:	ea4f 481c 	mov.w	r8, ip, lsr #16
 800022c:	0c21      	lsrs	r1, r4, #16
 800022e:	fbbe f6f8 	udiv	r6, lr, r8
 8000232:	fa1f f78c 	uxth.w	r7, ip
 8000236:	fb08 e316 	mls	r3, r8, r6, lr
 800023a:	ea41 4303 	orr.w	r3, r1, r3, lsl #16
 800023e:	fb06 f107 	mul.w	r1, r6, r7
 8000242:	4299      	cmp	r1, r3
 8000244:	d90a      	bls.n	800025c <__udivmoddi4+0x64>
 8000246:	eb1c 0303 	adds.w	r3, ip, r3
 800024a:	f106 30ff 	add.w	r0, r6, #4294967295
 800024e:	f080 811f 	bcs.w	8000490 <__udivmoddi4+0x298>
 8000252:	4299      	cmp	r1, r3
 8000254:	f240 811c 	bls.w	8000490 <__udivmoddi4+0x298>
 8000258:	3e02      	subs	r6, #2
 800025a:	4463      	add	r3, ip
 800025c:	1a5b      	subs	r3, r3, r1
 800025e:	b2a4      	uxth	r4, r4
 8000260:	fbb3 f0f8 	udiv	r0, r3, r8
 8000264:	fb08 3310 	mls	r3, r8, r0, r3
 8000268:	ea44 4403 	orr.w	r4, r4, r3, lsl #16
 800026c:	fb00 f707 	mul.w	r7, r0, r7
 8000270:	42a7      	cmp	r7, r4
 8000272:	d90a      	bls.n	800028a <__udivmoddi4+0x92>
 8000274:	eb1c 0404 	adds.w	r4, ip, r4
 8000278:	f100 33ff 	add.w	r3, r0, #4294967295
 800027c:	f080 810a 	bcs.w	8000494 <__udivmoddi4+0x29c>
 8000280:	42a7      	cmp	r7, r4
 8000282:	f240 8107 	bls.w	8000494 <__udivmoddi4+0x29c>
 8000286:	4464      	add	r4, ip
 8000288:	3802      	subs	r0, #2
 800028a:	ea40 4006 	orr.w	r0, r0, r6, lsl #16
 800028e:	1be4      	subs	r4, r4, r7
 8000290:	2600      	movs	r6, #0
 8000292:	b11d      	cbz	r5, 800029c <__udivmoddi4+0xa4>
 8000294:	40d4      	lsrs	r4, r2
 8000296:	2300      	movs	r3, #0
 8000298:	e9c5 4300 	strd	r4, r3, [r5]
 800029c:	4631      	mov	r1, r6
 800029e:	e8bd 87f0 	ldmia.w	sp!, {r4, r5, r6, r7, r8, r9, sl, pc}
 80002a2:	428b      	cmp	r3, r1
 80002a4:	d909      	bls.n	80002ba <__udivmoddi4+0xc2>
 80002a6:	2d00      	cmp	r5, #0
 80002a8:	f000 80ef 	beq.w	800048a <__udivmoddi4+0x292>
 80002ac:	2600      	movs	r6, #0
 80002ae:	e9c5 0100 	strd	r0, r1, [r5]
 80002b2:	4630      	mov	r0, r6
 80002b4:	4631      	mov	r1, r6
 80002b6:	e8bd 87f0 	ldmia.w	sp!, {r4, r5, r6, r7, r8, r9, sl, pc}
 80002ba:	fab3 f683 	clz	r6, r3
 80002be:	2e00      	cmp	r6, #0
 80002c0:	d14a      	bne.n	8000358 <__udivmoddi4+0x160>
 80002c2:	428b      	cmp	r3, r1
 80002c4:	d302      	bcc.n	80002cc <__udivmoddi4+0xd4>
 80002c6:	4282      	cmp	r2, r0
 80002c8:	f200 80f9 	bhi.w	80004be <__udivmoddi4+0x2c6>
 80002cc:	1a84      	subs	r4, r0, r2
 80002ce:	eb61 0303 	sbc.w	r3, r1, r3
 80002d2:	2001      	movs	r0, #1
 80002d4:	469e      	mov	lr, r3
 80002d6:	2d00      	cmp	r5, #0
 80002d8:	d0e0      	beq.n	800029c <__udivmoddi4+0xa4>
 80002da:	e9c5 4e00 	strd	r4, lr, [r5]
 80002de:	e7dd      	b.n	800029c <__udivmoddi4+0xa4>
 80002e0:	b902      	cbnz	r2, 80002e4 <__udivmoddi4+0xec>
 80002e2:	deff      	udf	#255	; 0xff
 80002e4:	fab2 f282 	clz	r2, r2
 80002e8:	2a00      	cmp	r2, #0
 80002ea:	f040 8092 	bne.w	8000412 <__udivmoddi4+0x21a>
 80002ee:	eba1 010c 	sub.w	r1, r1, ip
 80002f2:	ea4f 471c 	mov.w	r7, ip, lsr #16
 80002f6:	fa1f fe8c 	uxth.w	lr, ip
 80002fa:	2601      	movs	r6, #1
 80002fc:	0c20      	lsrs	r0, r4, #16
 80002fe:	fbb1 f3f7 	udiv	r3, r1, r7
 8000302:	fb07 1113 	mls	r1, r7, r3, r1
 8000306:	ea40 4101 	orr.w	r1, r0, r1, lsl #16
 800030a:	fb0e f003 	mul.w	r0, lr, r3
 800030e:	4288      	cmp	r0, r1
 8000310:	d908      	bls.n	8000324 <__udivmoddi4+0x12c>
 8000312:	eb1c 0101 	adds.w	r1, ip, r1
 8000316:	f103 38ff 	add.w	r8, r3, #4294967295
 800031a:	d202      	bcs.n	8000322 <__udivmoddi4+0x12a>
 800031c:	4288      	cmp	r0, r1
 800031e:	f200 80cb 	bhi.w	80004b8 <__udivmoddi4+0x2c0>
 8000322:	4643      	mov	r3, r8
 8000324:	1a09      	subs	r1, r1, r0
 8000326:	b2a4      	uxth	r4, r4
 8000328:	fbb1 f0f7 	udiv	r0, r1, r7
 800032c:	fb07 1110 	mls	r1, r7, r0, r1
 8000330:	ea44 4401 	orr.w	r4, r4, r1, lsl #16
 8000334:	fb0e fe00 	mul.w	lr, lr, r0
 8000338:	45a6      	cmp	lr, r4
 800033a:	d908      	bls.n	800034e <__udivmoddi4+0x156>
 800033c:	eb1c 0404 	adds.w	r4, ip, r4
 8000340:	f100 31ff 	add.w	r1, r0, #4294967295
 8000344:	d202      	bcs.n	800034c <__udivmoddi4+0x154>
 8000346:	45a6      	cmp	lr, r4
 8000348:	f200 80bb 	bhi.w	80004c2 <__udivmoddi4+0x2ca>
 800034c:	4608      	mov	r0, r1
 800034e:	eba4 040e 	sub.w	r4, r4, lr
 8000352:	ea40 4003 	orr.w	r0, r0, r3, lsl #16
 8000356:	e79c      	b.n	8000292 <__udivmoddi4+0x9a>
 8000358:	f1c6 0720 	rsb	r7, r6, #32
 800035c:	40b3      	lsls	r3, r6
 800035e:	fa22 fc07 	lsr.w	ip, r2, r7
 8000362:	ea4c 0c03 	orr.w	ip, ip, r3
 8000366:	fa20 f407 	lsr.w	r4, r0, r7
 800036a:	fa01 f306 	lsl.w	r3, r1, r6
 800036e:	431c      	orrs	r4, r3
 8000370:	40f9      	lsrs	r1, r7
 8000372:	ea4f 491c 	mov.w	r9, ip, lsr #16
 8000376:	fa00 f306 	lsl.w	r3, r0, r6
 800037a:	fbb1 f8f9 	udiv	r8, r1, r9
 800037e:	0c20      	lsrs	r0, r4, #16
 8000380:	fa1f fe8c 	uxth.w	lr, ip
 8000384:	fb09 1118 	mls	r1, r9, r8, r1
 8000388:	ea40 4101 	orr.w	r1, r0, r1, lsl #16
 800038c:	fb08 f00e 	mul.w	r0, r8, lr
 8000390:	4288      	cmp	r0, r1
 8000392:	fa02 f206 	lsl.w	r2, r2, r6
 8000396:	d90b      	bls.n	80003b0 <__udivmoddi4+0x1b8>
 8000398:	eb1c 0101 	adds.w	r1, ip, r1
 800039c:	f108 3aff 	add.w	sl, r8, #4294967295
 80003a0:	f080 8088 	bcs.w	80004b4 <__udivmoddi4+0x2bc>
 80003a4:	4288      	cmp	r0, r1
 80003a6:	f240 8085 	bls.w	80004b4 <__udivmoddi4+0x2bc>
 80003aa:	f1a8 0802 	sub.w	r8, r8, #2
 80003ae:	4461      	add	r1, ip
 80003b0:	1a09      	subs	r1, r1, r0
 80003b2:	b2a4      	uxth	r4, r4
 80003b4:	fbb1 f0f9 	udiv	r0, r1, r9
 80003b8:	fb09 1110 	mls	r1, r9, r0, r1
 80003bc:	ea44 4101 	orr.w	r1, r4, r1, lsl #16
 80003c0:	fb00 fe0e 	mul.w	lr, r0, lr
 80003c4:	458e      	cmp	lr, r1
 80003c6:	d908      	bls.n	80003da <__udivmoddi4+0x1e2>
 80003c8:	eb1c 0101 	adds.w	r1, ip, r1
 80003cc:	f100 34ff 	add.w	r4, r0, #4294967295
 80003d0:	d26c      	bcs.n	80004ac <__udivmoddi4+0x2b4>
 80003d2:	458e      	cmp	lr, r1
 80003d4:	d96a      	bls.n	80004ac <__udivmoddi4+0x2b4>
 80003d6:	3802      	subs	r0, #2
 80003d8:	4461      	add	r1, ip
 80003da:	ea40 4008 	orr.w	r0, r0, r8, lsl #16
 80003de:	fba0 9402 	umull	r9, r4, r0, r2
 80003e2:	eba1 010e 	sub.w	r1, r1, lr
 80003e6:	42a1      	cmp	r1, r4
 80003e8:	46c8      	mov	r8, r9
 80003ea:	46a6      	mov	lr, r4
 80003ec:	d356      	bcc.n	800049c <__udivmoddi4+0x2a4>
 80003ee:	d053      	beq.n	8000498 <__udivmoddi4+0x2a0>
 80003f0:	b15d      	cbz	r5, 800040a <__udivmoddi4+0x212>
 80003f2:	ebb3 0208 	subs.w	r2, r3, r8
 80003f6:	eb61 010e 	sbc.w	r1, r1, lr
 80003fa:	fa01 f707 	lsl.w	r7, r1, r7
 80003fe:	fa22 f306 	lsr.w	r3, r2, r6
 8000402:	40f1      	lsrs	r1, r6
 8000404:	431f      	orrs	r7, r3
 8000406:	e9c5 7100 	strd	r7, r1, [r5]
 800040a:	2600      	movs	r6, #0
 800040c:	4631      	mov	r1, r6
 800040e:	e8bd 87f0 	ldmia.w	sp!, {r4, r5, r6, r7, r8, r9, sl, pc}
 8000412:	f1c2 0320 	rsb	r3, r2, #32
 8000416:	40d8      	lsrs	r0, r3
 8000418:	fa0c fc02 	lsl.w	ip, ip, r2
 800041c:	fa21 f303 	lsr.w	r3, r1, r3
 8000420:	4091      	lsls	r1, r2
 8000422:	4301      	orrs	r1, r0
 8000424:	ea4f 471c 	mov.w	r7, ip, lsr #16
 8000428:	fa1f fe8c 	uxth.w	lr, ip
 800042c:	fbb3 f0f7 	udiv	r0, r3, r7
 8000430:	fb07 3610 	mls	r6, r7, r0, r3
 8000434:	0c0b      	lsrs	r3, r1, #16
 8000436:	ea43 4306 	orr.w	r3, r3, r6, lsl #16
 800043a:	fb00 f60e 	mul.w	r6, r0, lr
 800043e:	429e      	cmp	r6, r3
 8000440:	fa04 f402 	lsl.w	r4, r4, r2
 8000444:	d908      	bls.n	8000458 <__udivmoddi4+0x260>
 8000446:	eb1c 0303 	adds.w	r3, ip, r3
 800044a:	f100 38ff 	add.w	r8, r0, #4294967295
 800044e:	d22f      	bcs.n	80004b0 <__udivmoddi4+0x2b8>
 8000450:	429e      	cmp	r6, r3
 8000452:	d92d      	bls.n	80004b0 <__udivmoddi4+0x2b8>
 8000454:	3802      	subs	r0, #2
 8000456:	4463      	add	r3, ip
 8000458:	1b9b      	subs	r3, r3, r6
 800045a:	b289      	uxth	r1, r1
 800045c:	fbb3 f6f7 	udiv	r6, r3, r7
 8000460:	fb07 3316 	mls	r3, r7, r6, r3
 8000464:	ea41 4103 	orr.w	r1, r1, r3, lsl #16
 8000468:	fb06 f30e 	mul.w	r3, r6, lr
 800046c:	428b      	cmp	r3, r1
 800046e:	d908      	bls.n	8000482 <__udivmoddi4+0x28a>
 8000470:	eb1c 0101 	adds.w	r1, ip, r1
 8000474:	f106 38ff 	add.w	r8, r6, #4294967295
 8000478:	d216      	bcs.n	80004a8 <__udivmoddi4+0x2b0>
 800047a:	428b      	cmp	r3, r1
 800047c:	d914      	bls.n	80004a8 <__udivmoddi4+0x2b0>
 800047e:	3e02      	subs	r6, #2
 8000480:	4461      	add	r1, ip
 8000482:	1ac9      	subs	r1, r1, r3
 8000484:	ea46 4600 	orr.w	r6, r6, r0, lsl #16
 8000488:	e738      	b.n	80002fc <__udivmoddi4+0x104>
 800048a:	462e      	mov	r6, r5
 800048c:	4628      	mov	r0, r5
 800048e:	e705      	b.n	800029c <__udivmoddi4+0xa4>
 8000490:	4606      	mov	r6, r0
 8000492:	e6e3      	b.n	800025c <__udivmoddi4+0x64>
 8000494:	4618      	mov	r0, r3
 8000496:	e6f8      	b.n	800028a <__udivmoddi4+0x92>
 8000498:	454b      	cmp	r3, r9
 800049a:	d2a9      	bcs.n	80003f0 <__udivmoddi4+0x1f8>
 800049c:	ebb9 0802 	subs.w	r8, r9, r2
 80004a0:	eb64 0e0c 	sbc.w	lr, r4, ip
 80004a4:	3801      	subs	r0, #1
 80004a6:	e7a3      	b.n	80003f0 <__udivmoddi4+0x1f8>
 80004a8:	4646      	mov	r6, r8
 80004aa:	e7ea      	b.n	8000482 <__udivmoddi4+0x28a>
 80004ac:	4620      	mov	r0, r4
 80004ae:	e794      	b.n	80003da <__udivmoddi4+0x1e2>
 80004b0:	4640      	mov	r0, r8
 80004b2:	e7d1      	b.n	8000458 <__udivmoddi4+0x260>
 80004b4:	46d0      	mov	r8, sl
 80004b6:	e77b      	b.n	80003b0 <__udivmoddi4+0x1b8>
 80004b8:	3b02      	subs	r3, #2
 80004ba:	4461      	add	r1, ip
 80004bc:	e732      	b.n	8000324 <__udivmoddi4+0x12c>
 80004be:	4630      	mov	r0, r6
 80004c0:	e709      	b.n	80002d6 <__udivmoddi4+0xde>
 80004c2:	4464      	add	r4, ip
 80004c4:	3802      	subs	r0, #2
 80004c6:	e742      	b.n	800034e <__udivmoddi4+0x156>

080004c8 <__aeabi_idiv0>:
 80004c8:	4770      	bx	lr
 80004ca:	bf00      	nop

080004cc <MX_GPIO_Init>:
        * Output
        * EVENT_OUT
        * EXTI
*/
void MX_GPIO_Init(void)
{
 80004cc:	b580      	push	{r7, lr}
 80004ce:	b088      	sub	sp, #32
 80004d0:	af00      	add	r7, sp, #0

  GPIO_InitTypeDef GPIO_InitStruct = {0};
 80004d2:	f107 030c 	add.w	r3, r7, #12
 80004d6:	2200      	movs	r2, #0
 80004d8:	601a      	str	r2, [r3, #0]
 80004da:	605a      	str	r2, [r3, #4]
 80004dc:	609a      	str	r2, [r3, #8]
 80004de:	60da      	str	r2, [r3, #12]
 80004e0:	611a      	str	r2, [r3, #16]

  /* GPIO Ports Clock Enable */
  __HAL_RCC_GPIOF_CLK_ENABLE();
 80004e2:	2300      	movs	r3, #0
 80004e4:	60bb      	str	r3, [r7, #8]
 80004e6:	4b23      	ldr	r3, [pc, #140]	; (8000574 <MX_GPIO_Init+0xa8>)
 80004e8:	6b1b      	ldr	r3, [r3, #48]	; 0x30
 80004ea:	4a22      	ldr	r2, [pc, #136]	; (8000574 <MX_GPIO_Init+0xa8>)
 80004ec:	f043 0320 	orr.w	r3, r3, #32
 80004f0:	6313      	str	r3, [r2, #48]	; 0x30
 80004f2:	4b20      	ldr	r3, [pc, #128]	; (8000574 <MX_GPIO_Init+0xa8>)
 80004f4:	6b1b      	ldr	r3, [r3, #48]	; 0x30
 80004f6:	f003 0320 	and.w	r3, r3, #32
 80004fa:	60bb      	str	r3, [r7, #8]
 80004fc:	68bb      	ldr	r3, [r7, #8]
  __HAL_RCC_GPIOH_CLK_ENABLE();
 80004fe:	2300      	movs	r3, #0
 8000500:	607b      	str	r3, [r7, #4]
 8000502:	4b1c      	ldr	r3, [pc, #112]	; (8000574 <MX_GPIO_Init+0xa8>)
 8000504:	6b1b      	ldr	r3, [r3, #48]	; 0x30
 8000506:	4a1b      	ldr	r2, [pc, #108]	; (8000574 <MX_GPIO_Init+0xa8>)
 8000508:	f043 0380 	orr.w	r3, r3, #128	; 0x80
 800050c:	6313      	str	r3, [r2, #48]	; 0x30
 800050e:	4b19      	ldr	r3, [pc, #100]	; (8000574 <MX_GPIO_Init+0xa8>)
 8000510:	6b1b      	ldr	r3, [r3, #48]	; 0x30
 8000512:	f003 0380 	and.w	r3, r3, #128	; 0x80
 8000516:	607b      	str	r3, [r7, #4]
 8000518:	687b      	ldr	r3, [r7, #4]
  __HAL_RCC_GPIOA_CLK_ENABLE();
 800051a:	2300      	movs	r3, #0
 800051c:	603b      	str	r3, [r7, #0]
 800051e:	4b15      	ldr	r3, [pc, #84]	; (8000574 <MX_GPIO_Init+0xa8>)
 8000520:	6b1b      	ldr	r3, [r3, #48]	; 0x30
 8000522:	4a14      	ldr	r2, [pc, #80]	; (8000574 <MX_GPIO_Init+0xa8>)
 8000524:	f043 0301 	orr.w	r3, r3, #1
 8000528:	6313      	str	r3, [r2, #48]	; 0x30
 800052a:	4b12      	ldr	r3, [pc, #72]	; (8000574 <MX_GPIO_Init+0xa8>)
 800052c:	6b1b      	ldr	r3, [r3, #48]	; 0x30
 800052e:	f003 0301 	and.w	r3, r3, #1
 8000532:	603b      	str	r3, [r7, #0]
 8000534:	683b      	ldr	r3, [r7, #0]

  /*Configure GPIO pin Output Level */
  HAL_GPIO_WritePin(LED1_GPIO_Port, LED1_Pin, GPIO_PIN_RESET);
 8000536:	2200      	movs	r2, #0
 8000538:	f44f 7100 	mov.w	r1, #512	; 0x200
 800053c:	480e      	ldr	r0, [pc, #56]	; (8000578 <MX_GPIO_Init+0xac>)
 800053e:	f000 fc19 	bl	8000d74 <HAL_GPIO_WritePin>

  /*Configure GPIO pin Output Level */
  HAL_GPIO_WritePin(LED2_GPIO_Port, LED2_Pin, GPIO_PIN_RESET);
 8000542:	2200      	movs	r2, #0
 8000544:	f44f 6180 	mov.w	r1, #1024	; 0x400
 8000548:	480b      	ldr	r0, [pc, #44]	; (8000578 <MX_GPIO_Init+0xac>)
 800054a:	f000 fc13 	bl	8000d74 <HAL_GPIO_WritePin>

  /*Configure GPIO pins : PFPin PFPin */
  GPIO_InitStruct.Pin = LED1_Pin|LED2_Pin;
 800054e:	f44f 63c0 	mov.w	r3, #1536	; 0x600
 8000552:	60fb      	str	r3, [r7, #12]
  GPIO_InitStruct.Mode = GPIO_MODE_OUTPUT_PP;
 8000554:	2301      	movs	r3, #1
 8000556:	613b      	str	r3, [r7, #16]
  GPIO_InitStruct.Pull = GPIO_NOPULL;
 8000558:	2300      	movs	r3, #0
 800055a:	617b      	str	r3, [r7, #20]
  GPIO_InitStruct.Speed = GPIO_SPEED_FREQ_LOW;
 800055c:	2300      	movs	r3, #0
 800055e:	61bb      	str	r3, [r7, #24]
  HAL_GPIO_Init(GPIOF, &GPIO_InitStruct);
 8000560:	f107 030c 	add.w	r3, r7, #12
 8000564:	4619      	mov	r1, r3
 8000566:	4804      	ldr	r0, [pc, #16]	; (8000578 <MX_GPIO_Init+0xac>)
 8000568:	f000 fa68 	bl	8000a3c <HAL_GPIO_Init>

}
 800056c:	bf00      	nop
 800056e:	3720      	adds	r7, #32
 8000570:	46bd      	mov	sp, r7
 8000572:	bd80      	pop	{r7, pc}
 8000574:	40023800 	.word	0x40023800
 8000578:	40021400 	.word	0x40021400

0800057c <main>:
/**
  * @brief  The application entry point.
  * @retval int
  */
int main(void)
{
 800057c:	b580      	push	{r7, lr}
 800057e:	af00      	add	r7, sp, #0
  /* USER CODE END 1 */

  /* MCU Configuration--------------------------------------------------------*/

  /* Reset of all peripherals, Initializes the Flash interface and the Systick. */
  HAL_Init();
 8000580:	f000 f904 	bl	800078c <HAL_Init>
  /* USER CODE BEGIN Init */

  /* USER CODE END Init */

  /* Configure the system clock */
  SystemClock_Config();
 8000584:	f000 f804 	bl	8000590 <SystemClock_Config>
  /* USER CODE BEGIN SysInit */

  /* USER CODE END SysInit */

  /* Initialize all configured peripherals */
  MX_GPIO_Init();
 8000588:	f7ff ffa0 	bl	80004cc <MX_GPIO_Init>

  /* USER CODE END 2 */

  /* Infinite loop */
  /* USER CODE BEGIN WHILE */
  while (1)
 800058c:	e7fe      	b.n	800058c <main+0x10>
	...

08000590 <SystemClock_Config>:
/**
  * @brief System Clock Configuration
  * @retval None
  */
void SystemClock_Config(void)
{
 8000590:	b580      	push	{r7, lr}
 8000592:	b094      	sub	sp, #80	; 0x50
 8000594:	af00      	add	r7, sp, #0
  RCC_OscInitTypeDef RCC_OscInitStruct = {0};
 8000596:	f107 0320 	add.w	r3, r7, #32
 800059a:	2230      	movs	r2, #48	; 0x30
 800059c:	2100      	movs	r1, #0
 800059e:	4618      	mov	r0, r3
 80005a0:	f001 f88a 	bl	80016b8 <memset>
  RCC_ClkInitTypeDef RCC_ClkInitStruct = {0};
 80005a4:	f107 030c 	add.w	r3, r7, #12
 80005a8:	2200      	movs	r2, #0
 80005aa:	601a      	str	r2, [r3, #0]
 80005ac:	605a      	str	r2, [r3, #4]
 80005ae:	609a      	str	r2, [r3, #8]
 80005b0:	60da      	str	r2, [r3, #12]
 80005b2:	611a      	str	r2, [r3, #16]

  /** Configure the main internal regulator output voltage
  */
  __HAL_RCC_PWR_CLK_ENABLE();
 80005b4:	2300      	movs	r3, #0
 80005b6:	60bb      	str	r3, [r7, #8]
 80005b8:	4b28      	ldr	r3, [pc, #160]	; (800065c <SystemClock_Config+0xcc>)
 80005ba:	6c1b      	ldr	r3, [r3, #64]	; 0x40
 80005bc:	4a27      	ldr	r2, [pc, #156]	; (800065c <SystemClock_Config+0xcc>)
 80005be:	f043 5380 	orr.w	r3, r3, #268435456	; 0x10000000
 80005c2:	6413      	str	r3, [r2, #64]	; 0x40
 80005c4:	4b25      	ldr	r3, [pc, #148]	; (800065c <SystemClock_Config+0xcc>)
 80005c6:	6c1b      	ldr	r3, [r3, #64]	; 0x40
 80005c8:	f003 5380 	and.w	r3, r3, #268435456	; 0x10000000
 80005cc:	60bb      	str	r3, [r7, #8]
 80005ce:	68bb      	ldr	r3, [r7, #8]
  __HAL_PWR_VOLTAGESCALING_CONFIG(PWR_REGULATOR_VOLTAGE_SCALE1);
 80005d0:	2300      	movs	r3, #0
 80005d2:	607b      	str	r3, [r7, #4]
 80005d4:	4b22      	ldr	r3, [pc, #136]	; (8000660 <SystemClock_Config+0xd0>)
 80005d6:	681b      	ldr	r3, [r3, #0]
 80005d8:	4a21      	ldr	r2, [pc, #132]	; (8000660 <SystemClock_Config+0xd0>)
 80005da:	f443 4380 	orr.w	r3, r3, #16384	; 0x4000
 80005de:	6013      	str	r3, [r2, #0]
 80005e0:	4b1f      	ldr	r3, [pc, #124]	; (8000660 <SystemClock_Config+0xd0>)
 80005e2:	681b      	ldr	r3, [r3, #0]
 80005e4:	f403 4380 	and.w	r3, r3, #16384	; 0x4000
 80005e8:	607b      	str	r3, [r7, #4]
 80005ea:	687b      	ldr	r3, [r7, #4]

  /** Initializes the RCC Oscillators according to the specified parameters
  * in the RCC_OscInitTypeDef structure.
  */
  RCC_OscInitStruct.OscillatorType = RCC_OSCILLATORTYPE_HSE;
 80005ec:	2301      	movs	r3, #1
 80005ee:	623b      	str	r3, [r7, #32]
  RCC_OscInitStruct.HSEState = RCC_HSE_ON;
 80005f0:	f44f 3380 	mov.w	r3, #65536	; 0x10000
 80005f4:	627b      	str	r3, [r7, #36]	; 0x24
  RCC_OscInitStruct.PLL.PLLState = RCC_PLL_ON;
 80005f6:	2302      	movs	r3, #2
 80005f8:	63bb      	str	r3, [r7, #56]	; 0x38
  RCC_OscInitStruct.PLL.PLLSource = RCC_PLLSOURCE_HSE;
 80005fa:	f44f 0380 	mov.w	r3, #4194304	; 0x400000
 80005fe:	63fb      	str	r3, [r7, #60]	; 0x3c
  RCC_OscInitStruct.PLL.PLLM = 4;
 8000600:	2304      	movs	r3, #4
 8000602:	643b      	str	r3, [r7, #64]	; 0x40
  RCC_OscInitStruct.PLL.PLLN = 168;
 8000604:	23a8      	movs	r3, #168	; 0xa8
 8000606:	647b      	str	r3, [r7, #68]	; 0x44
  RCC_OscInitStruct.PLL.PLLP = RCC_PLLP_DIV2;
 8000608:	2302      	movs	r3, #2
 800060a:	64bb      	str	r3, [r7, #72]	; 0x48
  RCC_OscInitStruct.PLL.PLLQ = 4;
 800060c:	2304      	movs	r3, #4
 800060e:	64fb      	str	r3, [r7, #76]	; 0x4c
  if (HAL_RCC_OscConfig(&RCC_OscInitStruct) != HAL_OK)
 8000610:	f107 0320 	add.w	r3, r7, #32
 8000614:	4618      	mov	r0, r3
 8000616:	f000 fbc7 	bl	8000da8 <HAL_RCC_OscConfig>
 800061a:	4603      	mov	r3, r0
 800061c:	2b00      	cmp	r3, #0
 800061e:	d001      	beq.n	8000624 <SystemClock_Config+0x94>
  {
    Error_Handler();
 8000620:	f000 f820 	bl	8000664 <Error_Handler>
  }

  /** Initializes the CPU, AHB and APB buses clocks
  */
  RCC_ClkInitStruct.ClockType = RCC_CLOCKTYPE_HCLK|RCC_CLOCKTYPE_SYSCLK
 8000624:	230f      	movs	r3, #15
 8000626:	60fb      	str	r3, [r7, #12]
                              |RCC_CLOCKTYPE_PCLK1|RCC_CLOCKTYPE_PCLK2;
  RCC_ClkInitStruct.SYSCLKSource = RCC_SYSCLKSOURCE_PLLCLK;
 8000628:	2302      	movs	r3, #2
 800062a:	613b      	str	r3, [r7, #16]
  RCC_ClkInitStruct.AHBCLKDivider = RCC_SYSCLK_DIV1;
 800062c:	2300      	movs	r3, #0
 800062e:	617b      	str	r3, [r7, #20]
  RCC_ClkInitStruct.APB1CLKDivider = RCC_HCLK_DIV4;
 8000630:	f44f 53a0 	mov.w	r3, #5120	; 0x1400
 8000634:	61bb      	str	r3, [r7, #24]
  RCC_ClkInitStruct.APB2CLKDivider = RCC_HCLK_DIV2;
 8000636:	f44f 5380 	mov.w	r3, #4096	; 0x1000
 800063a:	61fb      	str	r3, [r7, #28]

  if (HAL_RCC_ClockConfig(&RCC_ClkInitStruct, FLASH_LATENCY_5) != HAL_OK)
 800063c:	f107 030c 	add.w	r3, r7, #12
 8000640:	2105      	movs	r1, #5
 8000642:	4618      	mov	r0, r3
 8000644:	f000 fe28 	bl	8001298 <HAL_RCC_ClockConfig>
 8000648:	4603      	mov	r3, r0
 800064a:	2b00      	cmp	r3, #0
 800064c:	d001      	beq.n	8000652 <SystemClock_Config+0xc2>
  {
    Error_Handler();
 800064e:	f000 f809 	bl	8000664 <Error_Handler>
  }
}
 8000652:	bf00      	nop
 8000654:	3750      	adds	r7, #80	; 0x50
 8000656:	46bd      	mov	sp, r7
 8000658:	bd80      	pop	{r7, pc}
 800065a:	bf00      	nop
 800065c:	40023800 	.word	0x40023800
 8000660:	40007000 	.word	0x40007000

08000664 <Error_Handler>:
/**
  * @brief  This function is executed in case of error occurrence.
  * @retval None
  */
void Error_Handler(void)
{
 8000664:	b480      	push	{r7}
 8000666:	af00      	add	r7, sp, #0
  \details Disables IRQ interrupts by setting the I-bit in the CPSR.
           Can only be executed in Privileged modes.
 */
__STATIC_FORCEINLINE void __disable_irq(void)
{
  __ASM volatile ("cpsid i" : : : "memory");
 8000668:	b672      	cpsid	i
}
 800066a:	bf00      	nop
  /* USER CODE BEGIN Error_Handler_Debug */
  /* User can add his own implementation to report the HAL error return state */
  __disable_irq();
  while (1)
 800066c:	e7fe      	b.n	800066c <Error_Handler+0x8>
	...

08000670 <HAL_MspInit>:
/* USER CODE END 0 */
/**
  * Initializes the Global MSP.
  */
void HAL_MspInit(void)
{
 8000670:	b480      	push	{r7}
 8000672:	b083      	sub	sp, #12
 8000674:	af00      	add	r7, sp, #0
  /* USER CODE BEGIN MspInit 0 */

  /* USER CODE END MspInit 0 */

  __HAL_RCC_SYSCFG_CLK_ENABLE();
 8000676:	2300      	movs	r3, #0
 8000678:	607b      	str	r3, [r7, #4]
 800067a:	4b10      	ldr	r3, [pc, #64]	; (80006bc <HAL_MspInit+0x4c>)
 800067c:	6c5b      	ldr	r3, [r3, #68]	; 0x44
 800067e:	4a0f      	ldr	r2, [pc, #60]	; (80006bc <HAL_MspInit+0x4c>)
 8000680:	f443 4380 	orr.w	r3, r3, #16384	; 0x4000
 8000684:	6453      	str	r3, [r2, #68]	; 0x44
 8000686:	4b0d      	ldr	r3, [pc, #52]	; (80006bc <HAL_MspInit+0x4c>)
 8000688:	6c5b      	ldr	r3, [r3, #68]	; 0x44
 800068a:	f403 4380 	and.w	r3, r3, #16384	; 0x4000
 800068e:	607b      	str	r3, [r7, #4]
 8000690:	687b      	ldr	r3, [r7, #4]
  __HAL_RCC_PWR_CLK_ENABLE();
 8000692:	2300      	movs	r3, #0
 8000694:	603b      	str	r3, [r7, #0]
 8000696:	4b09      	ldr	r3, [pc, #36]	; (80006bc <HAL_MspInit+0x4c>)
 8000698:	6c1b      	ldr	r3, [r3, #64]	; 0x40
 800069a:	4a08      	ldr	r2, [pc, #32]	; (80006bc <HAL_MspInit+0x4c>)
 800069c:	f043 5380 	orr.w	r3, r3, #268435456	; 0x10000000
 80006a0:	6413      	str	r3, [r2, #64]	; 0x40
 80006a2:	4b06      	ldr	r3, [pc, #24]	; (80006bc <HAL_MspInit+0x4c>)
 80006a4:	6c1b      	ldr	r3, [r3, #64]	; 0x40
 80006a6:	f003 5380 	and.w	r3, r3, #268435456	; 0x10000000
 80006aa:	603b      	str	r3, [r7, #0]
 80006ac:	683b      	ldr	r3, [r7, #0]
  /* System interrupt init*/

  /* USER CODE BEGIN MspInit 1 */

  /* USER CODE END MspInit 1 */
}
 80006ae:	bf00      	nop
 80006b0:	370c      	adds	r7, #12
 80006b2:	46bd      	mov	sp, r7
 80006b4:	f85d 7b04 	ldr.w	r7, [sp], #4
 80006b8:	4770      	bx	lr
 80006ba:	bf00      	nop
 80006bc:	40023800 	.word	0x40023800

080006c0 <NMI_Handler>:
/******************************************************************************/
/**
  * @brief This function handles Non maskable interrupt.
  */
void NMI_Handler(void)
{
 80006c0:	b480      	push	{r7}
 80006c2:	af00      	add	r7, sp, #0
  /* USER CODE BEGIN NonMaskableInt_IRQn 0 */

  /* USER CODE END NonMaskableInt_IRQn 0 */
  /* USER CODE BEGIN NonMaskableInt_IRQn 1 */
  while (1)
 80006c4:	e7fe      	b.n	80006c4 <NMI_Handler+0x4>

080006c6 <HardFault_Handler>:

/**
  * @brief This function handles Hard fault interrupt.
  */
void HardFault_Handler(void)
{
 80006c6:	b480      	push	{r7}
 80006c8:	af00      	add	r7, sp, #0
  /* USER CODE BEGIN HardFault_IRQn 0 */

  /* USER CODE END HardFault_IRQn 0 */
  while (1)
 80006ca:	e7fe      	b.n	80006ca <HardFault_Handler+0x4>

080006cc <MemManage_Handler>:

/**
  * @brief This function handles Memory management fault.
  */
void MemManage_Handler(void)
{
 80006cc:	b480      	push	{r7}
 80006ce:	af00      	add	r7, sp, #0
  /* USER CODE BEGIN MemoryManagement_IRQn 0 */

  /* USER CODE END MemoryManagement_IRQn 0 */
  while (1)
 80006d0:	e7fe      	b.n	80006d0 <MemManage_Handler+0x4>

080006d2 <BusFault_Handler>:

/**
  * @brief This function handles Pre-fetch fault, memory access fault.
  */
void BusFault_Handler(void)
{
 80006d2:	b480      	push	{r7}
 80006d4:	af00      	add	r7, sp, #0
  /* USER CODE BEGIN BusFault_IRQn 0 */

  /* USER CODE END BusFault_IRQn 0 */
  while (1)
 80006d6:	e7fe      	b.n	80006d6 <BusFault_Handler+0x4>

080006d8 <UsageFault_Handler>:

/**
  * @brief This function handles Undefined instruction or illegal state.
  */
void UsageFault_Handler(void)
{
 80006d8:	b480      	push	{r7}
 80006da:	af00      	add	r7, sp, #0
  /* USER CODE BEGIN UsageFault_IRQn 0 */

  /* USER CODE END UsageFault_IRQn 0 */
  while (1)
 80006dc:	e7fe      	b.n	80006dc <UsageFault_Handler+0x4>

080006de <SVC_Handler>:

/**
  * @brief This function handles System service call via SWI instruction.
  */
void SVC_Handler(void)
{
 80006de:	b480      	push	{r7}
 80006e0:	af00      	add	r7, sp, #0

  /* USER CODE END SVCall_IRQn 0 */
  /* USER CODE BEGIN SVCall_IRQn 1 */

  /* USER CODE END SVCall_IRQn 1 */
}
 80006e2:	bf00      	nop
 80006e4:	46bd      	mov	sp, r7
 80006e6:	f85d 7b04 	ldr.w	r7, [sp], #4
 80006ea:	4770      	bx	lr

080006ec <DebugMon_Handler>:

/**
  * @brief This function handles Debug monitor.
  */
void DebugMon_Handler(void)
{
 80006ec:	b480      	push	{r7}
 80006ee:	af00      	add	r7, sp, #0

  /* USER CODE END DebugMonitor_IRQn 0 */
  /* USER CODE BEGIN DebugMonitor_IRQn 1 */

  /* USER CODE END DebugMonitor_IRQn 1 */
}
 80006f0:	bf00      	nop
 80006f2:	46bd      	mov	sp, r7
 80006f4:	f85d 7b04 	ldr.w	r7, [sp], #4
 80006f8:	4770      	bx	lr

080006fa <PendSV_Handler>:

/**
  * @brief This function handles Pendable request for system service.
  */
void PendSV_Handler(void)
{
 80006fa:	b480      	push	{r7}
 80006fc:	af00      	add	r7, sp, #0

  /* USER CODE END PendSV_IRQn 0 */
  /* USER CODE BEGIN PendSV_IRQn 1 */

  /* USER CODE END PendSV_IRQn 1 */
}
 80006fe:	bf00      	nop
 8000700:	46bd      	mov	sp, r7
 8000702:	f85d 7b04 	ldr.w	r7, [sp], #4
 8000706:	4770      	bx	lr

08000708 <SysTick_Handler>:

/**
  * @brief This function handles System tick timer.
  */
void SysTick_Handler(void)
{
 8000708:	b580      	push	{r7, lr}
 800070a:	af00      	add	r7, sp, #0
  /* USER CODE BEGIN SysTick_IRQn 0 */

  /* USER CODE END SysTick_IRQn 0 */
  HAL_IncTick();
 800070c:	f000 f890 	bl	8000830 <HAL_IncTick>
  /* USER CODE BEGIN SysTick_IRQn 1 */

  /* USER CODE END SysTick_IRQn 1 */
}
 8000710:	bf00      	nop
 8000712:	bd80      	pop	{r7, pc}

08000714 <SystemInit>:
  *         configuration.
  * @param  None
  * @retval None
  */
void SystemInit(void)
{
 8000714:	b480      	push	{r7}
 8000716:	af00      	add	r7, sp, #0
  /* FPU settings ------------------------------------------------------------*/
  #if (__FPU_PRESENT == 1) && (__FPU_USED == 1)
    SCB->CPACR |= ((3UL << 10*2)|(3UL << 11*2));  /* set CP10 and CP11 Full Access */
 8000718:	4b06      	ldr	r3, [pc, #24]	; (8000734 <SystemInit+0x20>)
 800071a:	f8d3 3088 	ldr.w	r3, [r3, #136]	; 0x88
 800071e:	4a05      	ldr	r2, [pc, #20]	; (8000734 <SystemInit+0x20>)
 8000720:	f443 0370 	orr.w	r3, r3, #15728640	; 0xf00000
 8000724:	f8c2 3088 	str.w	r3, [r2, #136]	; 0x88

  /* Configure the Vector Table location -------------------------------------*/
#if defined(USER_VECT_TAB_ADDRESS)
  SCB->VTOR = VECT_TAB_BASE_ADDRESS | VECT_TAB_OFFSET; /* Vector Table Relocation in Internal SRAM */
#endif /* USER_VECT_TAB_ADDRESS */
}
 8000728:	bf00      	nop
 800072a:	46bd      	mov	sp, r7
 800072c:	f85d 7b04 	ldr.w	r7, [sp], #4
 8000730:	4770      	bx	lr
 8000732:	bf00      	nop
 8000734:	e000ed00 	.word	0xe000ed00

08000738 <Reset_Handler>:

    .section  .text.Reset_Handler
  .weak  Reset_Handler
  .type  Reset_Handler, %function
Reset_Handler:  
  ldr   sp, =_estack     /* set stack pointer */
 8000738:	f8df d034 	ldr.w	sp, [pc, #52]	; 8000770 <LoopFillZerobss+0x12>

/* Copy the data segment initializers from flash to SRAM */  
  ldr r0, =_sdata
 800073c:	480d      	ldr	r0, [pc, #52]	; (8000774 <LoopFillZerobss+0x16>)
  ldr r1, =_edata
 800073e:	490e      	ldr	r1, [pc, #56]	; (8000778 <LoopFillZerobss+0x1a>)
  ldr r2, =_sidata
 8000740:	4a0e      	ldr	r2, [pc, #56]	; (800077c <LoopFillZerobss+0x1e>)
  movs r3, #0
 8000742:	2300      	movs	r3, #0
  b LoopCopyDataInit
 8000744:	e002      	b.n	800074c <LoopCopyDataInit>

08000746 <CopyDataInit>:

CopyDataInit:
  ldr r4, [r2, r3]
 8000746:	58d4      	ldr	r4, [r2, r3]
  str r4, [r0, r3]
 8000748:	50c4      	str	r4, [r0, r3]
  adds r3, r3, #4
 800074a:	3304      	adds	r3, #4

0800074c <LoopCopyDataInit>:

LoopCopyDataInit:
  adds r4, r0, r3
 800074c:	18c4      	adds	r4, r0, r3
  cmp r4, r1
 800074e:	428c      	cmp	r4, r1
  bcc CopyDataInit
 8000750:	d3f9      	bcc.n	8000746 <CopyDataInit>
  
/* Zero fill the bss segment. */
  ldr r2, =_sbss
 8000752:	4a0b      	ldr	r2, [pc, #44]	; (8000780 <LoopFillZerobss+0x22>)
  ldr r4, =_ebss
 8000754:	4c0b      	ldr	r4, [pc, #44]	; (8000784 <LoopFillZerobss+0x26>)
  movs r3, #0
 8000756:	2300      	movs	r3, #0
  b LoopFillZerobss
 8000758:	e001      	b.n	800075e <LoopFillZerobss>

0800075a <FillZerobss>:

FillZerobss:
  str  r3, [r2]
 800075a:	6013      	str	r3, [r2, #0]
  adds r2, r2, #4
 800075c:	3204      	adds	r2, #4

0800075e <LoopFillZerobss>:

LoopFillZerobss:
  cmp r2, r4
 800075e:	42a2      	cmp	r2, r4
  bcc FillZerobss
 8000760:	d3fb      	bcc.n	800075a <FillZerobss>

/* Call the clock system initialization function.*/
  bl  SystemInit   
 8000762:	f7ff ffd7 	bl	8000714 <SystemInit>
/* Call static constructors */
    bl __libc_init_array
 8000766:	f000 ff83 	bl	8001670 <__libc_init_array>
/* Call the application's entry point.*/
  bl  main
 800076a:	f7ff ff07 	bl	800057c <main>
  bx  lr    
 800076e:	4770      	bx	lr
  ldr   sp, =_estack     /* set stack pointer */
 8000770:	20020000 	.word	0x20020000
  ldr r0, =_sdata
 8000774:	20000000 	.word	0x20000000
  ldr r1, =_edata
 8000778:	2000000c 	.word	0x2000000c
  ldr r2, =_sidata
 800077c:	08001700 	.word	0x08001700
  ldr r2, =_sbss
 8000780:	2000000c 	.word	0x2000000c
  ldr r4, =_ebss
 8000784:	2000002c 	.word	0x2000002c

08000788 <ADC_IRQHandler>:
 * @retval None       
*/
    .section  .text.Default_Handler,"ax",%progbits
Default_Handler:
Infinite_Loop:
  b  Infinite_Loop
 8000788:	e7fe      	b.n	8000788 <ADC_IRQHandler>
	...

0800078c <HAL_Init>:
  *         need to ensure that the SysTick time base is always set to 1 millisecond
  *         to have correct HAL operation.
  * @retval HAL status
  */
HAL_StatusTypeDef HAL_Init(void)
{
 800078c:	b580      	push	{r7, lr}
 800078e:	af00      	add	r7, sp, #0
  /* Configure Flash prefetch, Instruction cache, Data cache */ 
#if (INSTRUCTION_CACHE_ENABLE != 0U)
  __HAL_FLASH_INSTRUCTION_CACHE_ENABLE();
 8000790:	4b0e      	ldr	r3, [pc, #56]	; (80007cc <HAL_Init+0x40>)
 8000792:	681b      	ldr	r3, [r3, #0]
 8000794:	4a0d      	ldr	r2, [pc, #52]	; (80007cc <HAL_Init+0x40>)
 8000796:	f443 7300 	orr.w	r3, r3, #512	; 0x200
 800079a:	6013      	str	r3, [r2, #0]
#endif /* INSTRUCTION_CACHE_ENABLE */

#if (DATA_CACHE_ENABLE != 0U)
  __HAL_FLASH_DATA_CACHE_ENABLE();
 800079c:	4b0b      	ldr	r3, [pc, #44]	; (80007cc <HAL_Init+0x40>)
 800079e:	681b      	ldr	r3, [r3, #0]
 80007a0:	4a0a      	ldr	r2, [pc, #40]	; (80007cc <HAL_Init+0x40>)
 80007a2:	f443 6380 	orr.w	r3, r3, #1024	; 0x400
 80007a6:	6013      	str	r3, [r2, #0]
#endif /* DATA_CACHE_ENABLE */

#if (PREFETCH_ENABLE != 0U)
  __HAL_FLASH_PREFETCH_BUFFER_ENABLE();
 80007a8:	4b08      	ldr	r3, [pc, #32]	; (80007cc <HAL_Init+0x40>)
 80007aa:	681b      	ldr	r3, [r3, #0]
 80007ac:	4a07      	ldr	r2, [pc, #28]	; (80007cc <HAL_Init+0x40>)
 80007ae:	f443 7380 	orr.w	r3, r3, #256	; 0x100
 80007b2:	6013      	str	r3, [r2, #0]
#endif /* PREFETCH_ENABLE */

  /* Set Interrupt Group Priority */
  HAL_NVIC_SetPriorityGrouping(NVIC_PRIORITYGROUP_4);
 80007b4:	2003      	movs	r0, #3
 80007b6:	f000 f90d 	bl	80009d4 <HAL_NVIC_SetPriorityGrouping>

  /* Use systick as time base source and configure 1ms tick (default clock after Reset is HSI) */
  HAL_InitTick(TICK_INT_PRIORITY);
 80007ba:	200f      	movs	r0, #15
 80007bc:	f000 f808 	bl	80007d0 <HAL_InitTick>

  /* Init the low level hardware */
  HAL_MspInit();
 80007c0:	f7ff ff56 	bl	8000670 <HAL_MspInit>

  /* Return function status */
  return HAL_OK;
 80007c4:	2300      	movs	r3, #0
}
 80007c6:	4618      	mov	r0, r3
 80007c8:	bd80      	pop	{r7, pc}
 80007ca:	bf00      	nop
 80007cc:	40023c00 	.word	0x40023c00

080007d0 <HAL_InitTick>:
  *       implementation  in user file.
  * @param TickPriority Tick interrupt priority.
  * @retval HAL status
  */
__weak HAL_StatusTypeDef HAL_InitTick(uint32_t TickPriority)
{
 80007d0:	b580      	push	{r7, lr}
 80007d2:	b082      	sub	sp, #8
 80007d4:	af00      	add	r7, sp, #0
 80007d6:	6078      	str	r0, [r7, #4]
  /* Configure the SysTick to have interrupt in 1ms time basis*/
  if (HAL_SYSTICK_Config(SystemCoreClock / (1000U / uwTickFreq)) > 0U)
 80007d8:	4b12      	ldr	r3, [pc, #72]	; (8000824 <HAL_InitTick+0x54>)
 80007da:	681a      	ldr	r2, [r3, #0]
 80007dc:	4b12      	ldr	r3, [pc, #72]	; (8000828 <HAL_InitTick+0x58>)
 80007de:	781b      	ldrb	r3, [r3, #0]
 80007e0:	4619      	mov	r1, r3
 80007e2:	f44f 737a 	mov.w	r3, #1000	; 0x3e8
 80007e6:	fbb3 f3f1 	udiv	r3, r3, r1
 80007ea:	fbb2 f3f3 	udiv	r3, r2, r3
 80007ee:	4618      	mov	r0, r3
 80007f0:	f000 f917 	bl	8000a22 <HAL_SYSTICK_Config>
 80007f4:	4603      	mov	r3, r0
 80007f6:	2b00      	cmp	r3, #0
 80007f8:	d001      	beq.n	80007fe <HAL_InitTick+0x2e>
  {
    return HAL_ERROR;
 80007fa:	2301      	movs	r3, #1
 80007fc:	e00e      	b.n	800081c <HAL_InitTick+0x4c>
  }

  /* Configure the SysTick IRQ priority */
  if (TickPriority < (1UL << __NVIC_PRIO_BITS))
 80007fe:	687b      	ldr	r3, [r7, #4]
 8000800:	2b0f      	cmp	r3, #15
 8000802:	d80a      	bhi.n	800081a <HAL_InitTick+0x4a>
  {
    HAL_NVIC_SetPriority(SysTick_IRQn, TickPriority, 0U);
 8000804:	2200      	movs	r2, #0
 8000806:	6879      	ldr	r1, [r7, #4]
 8000808:	f04f 30ff 	mov.w	r0, #4294967295
 800080c:	f000 f8ed 	bl	80009ea <HAL_NVIC_SetPriority>
    uwTickPrio = TickPriority;
 8000810:	4a06      	ldr	r2, [pc, #24]	; (800082c <HAL_InitTick+0x5c>)
 8000812:	687b      	ldr	r3, [r7, #4]
 8000814:	6013      	str	r3, [r2, #0]
  {
    return HAL_ERROR;
  }

  /* Return function status */
  return HAL_OK;
 8000816:	2300      	movs	r3, #0
 8000818:	e000      	b.n	800081c <HAL_InitTick+0x4c>
    return HAL_ERROR;
 800081a:	2301      	movs	r3, #1
}
 800081c:	4618      	mov	r0, r3
 800081e:	3708      	adds	r7, #8
 8000820:	46bd      	mov	sp, r7
 8000822:	bd80      	pop	{r7, pc}
 8000824:	20000000 	.word	0x20000000
 8000828:	20000008 	.word	0x20000008
 800082c:	20000004 	.word	0x20000004

08000830 <HAL_IncTick>:
 * @note This function is declared as __weak to be overwritten in case of other 
  *      implementations in user file.
  * @retval None
  */
__weak void HAL_IncTick(void)
{
 8000830:	b480      	push	{r7}
 8000832:	af00      	add	r7, sp, #0
  uwTick += uwTickFreq;
 8000834:	4b06      	ldr	r3, [pc, #24]	; (8000850 <HAL_IncTick+0x20>)
 8000836:	781b      	ldrb	r3, [r3, #0]
 8000838:	461a      	mov	r2, r3
 800083a:	4b06      	ldr	r3, [pc, #24]	; (8000854 <HAL_IncTick+0x24>)
 800083c:	681b      	ldr	r3, [r3, #0]
 800083e:	4413      	add	r3, r2
 8000840:	4a04      	ldr	r2, [pc, #16]	; (8000854 <HAL_IncTick+0x24>)
 8000842:	6013      	str	r3, [r2, #0]
}
 8000844:	bf00      	nop
 8000846:	46bd      	mov	sp, r7
 8000848:	f85d 7b04 	ldr.w	r7, [sp], #4
 800084c:	4770      	bx	lr
 800084e:	bf00      	nop
 8000850:	20000008 	.word	0x20000008
 8000854:	20000028 	.word	0x20000028

08000858 <HAL_GetTick>:
  * @note This function is declared as __weak to be overwritten in case of other 
  *       implementations in user file.
  * @retval tick value
  */
__weak uint32_t HAL_GetTick(void)
{
 8000858:	b480      	push	{r7}
 800085a:	af00      	add	r7, sp, #0
  return uwTick;
 800085c:	4b03      	ldr	r3, [pc, #12]	; (800086c <HAL_GetTick+0x14>)
 800085e:	681b      	ldr	r3, [r3, #0]
}
 8000860:	4618      	mov	r0, r3
 8000862:	46bd      	mov	sp, r7
 8000864:	f85d 7b04 	ldr.w	r7, [sp], #4
 8000868:	4770      	bx	lr
 800086a:	bf00      	nop
 800086c:	20000028 	.word	0x20000028

08000870 <__NVIC_SetPriorityGrouping>:
           In case of a conflict between priority grouping and available
           priority bits (__NVIC_PRIO_BITS), the smallest possible priority group is set.
  \param [in]      PriorityGroup  Priority grouping field.
 */
__STATIC_INLINE void __NVIC_SetPriorityGrouping(uint32_t PriorityGroup)
{
 8000870:	b480      	push	{r7}
 8000872:	b085      	sub	sp, #20
 8000874:	af00      	add	r7, sp, #0
 8000876:	6078      	str	r0, [r7, #4]
  uint32_t reg_value;
  uint32_t PriorityGroupTmp = (PriorityGroup & (uint32_t)0x07UL);             /* only values 0..7 are used          */
 8000878:	687b      	ldr	r3, [r7, #4]
 800087a:	f003 0307 	and.w	r3, r3, #7
 800087e:	60fb      	str	r3, [r7, #12]

  reg_value  =  SCB->AIRCR;                                                   /* read old register configuration    */
 8000880:	4b0c      	ldr	r3, [pc, #48]	; (80008b4 <__NVIC_SetPriorityGrouping+0x44>)
 8000882:	68db      	ldr	r3, [r3, #12]
 8000884:	60bb      	str	r3, [r7, #8]
  reg_value &= ~((uint32_t)(SCB_AIRCR_VECTKEY_Msk | SCB_AIRCR_PRIGROUP_Msk)); /* clear bits to change               */
 8000886:	68ba      	ldr	r2, [r7, #8]
 8000888:	f64f 03ff 	movw	r3, #63743	; 0xf8ff
 800088c:	4013      	ands	r3, r2
 800088e:	60bb      	str	r3, [r7, #8]
  reg_value  =  (reg_value                                   |
                ((uint32_t)0x5FAUL << SCB_AIRCR_VECTKEY_Pos) |
                (PriorityGroupTmp << SCB_AIRCR_PRIGROUP_Pos)  );              /* Insert write key and priority group */
 8000890:	68fb      	ldr	r3, [r7, #12]
 8000892:	021a      	lsls	r2, r3, #8
                ((uint32_t)0x5FAUL << SCB_AIRCR_VECTKEY_Pos) |
 8000894:	68bb      	ldr	r3, [r7, #8]
 8000896:	4313      	orrs	r3, r2
  reg_value  =  (reg_value                                   |
 8000898:	f043 63bf 	orr.w	r3, r3, #100139008	; 0x5f80000
 800089c:	f443 3300 	orr.w	r3, r3, #131072	; 0x20000
 80008a0:	60bb      	str	r3, [r7, #8]
  SCB->AIRCR =  reg_value;
 80008a2:	4a04      	ldr	r2, [pc, #16]	; (80008b4 <__NVIC_SetPriorityGrouping+0x44>)
 80008a4:	68bb      	ldr	r3, [r7, #8]
 80008a6:	60d3      	str	r3, [r2, #12]
}
 80008a8:	bf00      	nop
 80008aa:	3714      	adds	r7, #20
 80008ac:	46bd      	mov	sp, r7
 80008ae:	f85d 7b04 	ldr.w	r7, [sp], #4
 80008b2:	4770      	bx	lr
 80008b4:	e000ed00 	.word	0xe000ed00

080008b8 <__NVIC_GetPriorityGrouping>:
  \brief   Get Priority Grouping
  \details Reads the priority grouping field from the NVIC Interrupt Controller.
  \return                Priority grouping field (SCB->AIRCR [10:8] PRIGROUP field).
 */
__STATIC_INLINE uint32_t __NVIC_GetPriorityGrouping(void)
{
 80008b8:	b480      	push	{r7}
 80008ba:	af00      	add	r7, sp, #0
  return ((uint32_t)((SCB->AIRCR & SCB_AIRCR_PRIGROUP_Msk) >> SCB_AIRCR_PRIGROUP_Pos));
 80008bc:	4b04      	ldr	r3, [pc, #16]	; (80008d0 <__NVIC_GetPriorityGrouping+0x18>)
 80008be:	68db      	ldr	r3, [r3, #12]
 80008c0:	0a1b      	lsrs	r3, r3, #8
 80008c2:	f003 0307 	and.w	r3, r3, #7
}
 80008c6:	4618      	mov	r0, r3
 80008c8:	46bd      	mov	sp, r7
 80008ca:	f85d 7b04 	ldr.w	r7, [sp], #4
 80008ce:	4770      	bx	lr
 80008d0:	e000ed00 	.word	0xe000ed00

080008d4 <__NVIC_SetPriority>:
  \param [in]      IRQn  Interrupt number.
  \param [in]  priority  Priority to set.
  \note    The priority cannot be set for every processor exception.
 */
__STATIC_INLINE void __NVIC_SetPriority(IRQn_Type IRQn, uint32_t priority)
{
 80008d4:	b480      	push	{r7}
 80008d6:	b083      	sub	sp, #12
 80008d8:	af00      	add	r7, sp, #0
 80008da:	4603      	mov	r3, r0
 80008dc:	6039      	str	r1, [r7, #0]
 80008de:	71fb      	strb	r3, [r7, #7]
  if ((int32_t)(IRQn) >= 0)
 80008e0:	f997 3007 	ldrsb.w	r3, [r7, #7]
 80008e4:	2b00      	cmp	r3, #0
 80008e6:	db0a      	blt.n	80008fe <__NVIC_SetPriority+0x2a>
  {
    NVIC->IP[((uint32_t)IRQn)]               = (uint8_t)((priority << (8U - __NVIC_PRIO_BITS)) & (uint32_t)0xFFUL);
 80008e8:	683b      	ldr	r3, [r7, #0]
 80008ea:	b2da      	uxtb	r2, r3
 80008ec:	490c      	ldr	r1, [pc, #48]	; (8000920 <__NVIC_SetPriority+0x4c>)
 80008ee:	f997 3007 	ldrsb.w	r3, [r7, #7]
 80008f2:	0112      	lsls	r2, r2, #4
 80008f4:	b2d2      	uxtb	r2, r2
 80008f6:	440b      	add	r3, r1
 80008f8:	f883 2300 	strb.w	r2, [r3, #768]	; 0x300
  }
  else
  {
    SCB->SHP[(((uint32_t)IRQn) & 0xFUL)-4UL] = (uint8_t)((priority << (8U - __NVIC_PRIO_BITS)) & (uint32_t)0xFFUL);
  }
}
 80008fc:	e00a      	b.n	8000914 <__NVIC_SetPriority+0x40>
    SCB->SHP[(((uint32_t)IRQn) & 0xFUL)-4UL] = (uint8_t)((priority << (8U - __NVIC_PRIO_BITS)) & (uint32_t)0xFFUL);
 80008fe:	683b      	ldr	r3, [r7, #0]
 8000900:	b2da      	uxtb	r2, r3
 8000902:	4908      	ldr	r1, [pc, #32]	; (8000924 <__NVIC_SetPriority+0x50>)
 8000904:	79fb      	ldrb	r3, [r7, #7]
 8000906:	f003 030f 	and.w	r3, r3, #15
 800090a:	3b04      	subs	r3, #4
 800090c:	0112      	lsls	r2, r2, #4
 800090e:	b2d2      	uxtb	r2, r2
 8000910:	440b      	add	r3, r1
 8000912:	761a      	strb	r2, [r3, #24]
}
 8000914:	bf00      	nop
 8000916:	370c      	adds	r7, #12
 8000918:	46bd      	mov	sp, r7
 800091a:	f85d 7b04 	ldr.w	r7, [sp], #4
 800091e:	4770      	bx	lr
 8000920:	e000e100 	.word	0xe000e100
 8000924:	e000ed00 	.word	0xe000ed00

08000928 <NVIC_EncodePriority>:
  \param [in]   PreemptPriority  Preemptive priority value (starting from 0).
  \param [in]       SubPriority  Subpriority value (starting from 0).
  \return                        Encoded priority. Value can be used in the function \ref NVIC_SetPriority().
 */
__STATIC_INLINE uint32_t NVIC_EncodePriority (uint32_t PriorityGroup, uint32_t PreemptPriority, uint32_t SubPriority)
{
 8000928:	b480      	push	{r7}
 800092a:	b089      	sub	sp, #36	; 0x24
 800092c:	af00      	add	r7, sp, #0
 800092e:	60f8      	str	r0, [r7, #12]
 8000930:	60b9      	str	r1, [r7, #8]
 8000932:	607a      	str	r2, [r7, #4]
  uint32_t PriorityGroupTmp = (PriorityGroup & (uint32_t)0x07UL);   /* only values 0..7 are used          */
 8000934:	68fb      	ldr	r3, [r7, #12]
 8000936:	f003 0307 	and.w	r3, r3, #7
 800093a:	61fb      	str	r3, [r7, #28]
  uint32_t PreemptPriorityBits;
  uint32_t SubPriorityBits;

  PreemptPriorityBits = ((7UL - PriorityGroupTmp) > (uint32_t)(__NVIC_PRIO_BITS)) ? (uint32_t)(__NVIC_PRIO_BITS) : (uint32_t)(7UL - PriorityGroupTmp);
 800093c:	69fb      	ldr	r3, [r7, #28]
 800093e:	f1c3 0307 	rsb	r3, r3, #7
 8000942:	2b04      	cmp	r3, #4
 8000944:	bf28      	it	cs
 8000946:	2304      	movcs	r3, #4
 8000948:	61bb      	str	r3, [r7, #24]
  SubPriorityBits     = ((PriorityGroupTmp + (uint32_t)(__NVIC_PRIO_BITS)) < (uint32_t)7UL) ? (uint32_t)0UL : (uint32_t)((PriorityGroupTmp - 7UL) + (uint32_t)(__NVIC_PRIO_BITS));
 800094a:	69fb      	ldr	r3, [r7, #28]
 800094c:	3304      	adds	r3, #4
 800094e:	2b06      	cmp	r3, #6
 8000950:	d902      	bls.n	8000958 <NVIC_EncodePriority+0x30>
 8000952:	69fb      	ldr	r3, [r7, #28]
 8000954:	3b03      	subs	r3, #3
 8000956:	e000      	b.n	800095a <NVIC_EncodePriority+0x32>
 8000958:	2300      	movs	r3, #0
 800095a:	617b      	str	r3, [r7, #20]

  return (
           ((PreemptPriority & (uint32_t)((1UL << (PreemptPriorityBits)) - 1UL)) << SubPriorityBits) |
 800095c:	f04f 32ff 	mov.w	r2, #4294967295
 8000960:	69bb      	ldr	r3, [r7, #24]
 8000962:	fa02 f303 	lsl.w	r3, r2, r3
 8000966:	43da      	mvns	r2, r3
 8000968:	68bb      	ldr	r3, [r7, #8]
 800096a:	401a      	ands	r2, r3
 800096c:	697b      	ldr	r3, [r7, #20]
 800096e:	409a      	lsls	r2, r3
           ((SubPriority     & (uint32_t)((1UL << (SubPriorityBits    )) - 1UL)))
 8000970:	f04f 31ff 	mov.w	r1, #4294967295
 8000974:	697b      	ldr	r3, [r7, #20]
 8000976:	fa01 f303 	lsl.w	r3, r1, r3
 800097a:	43d9      	mvns	r1, r3
 800097c:	687b      	ldr	r3, [r7, #4]
 800097e:	400b      	ands	r3, r1
           ((PreemptPriority & (uint32_t)((1UL << (PreemptPriorityBits)) - 1UL)) << SubPriorityBits) |
 8000980:	4313      	orrs	r3, r2
         );
}
 8000982:	4618      	mov	r0, r3
 8000984:	3724      	adds	r7, #36	; 0x24
 8000986:	46bd      	mov	sp, r7
 8000988:	f85d 7b04 	ldr.w	r7, [sp], #4
 800098c:	4770      	bx	lr
	...

08000990 <SysTick_Config>:
  \note    When the variable <b>__Vendor_SysTickConfig</b> is set to 1, then the
           function <b>SysTick_Config</b> is not included. In this case, the file <b><i>device</i>.h</b>
           must contain a vendor-specific implementation of this function.
 */
__STATIC_INLINE uint32_t SysTick_Config(uint32_t ticks)
{
 8000990:	b580      	push	{r7, lr}
 8000992:	b082      	sub	sp, #8
 8000994:	af00      	add	r7, sp, #0
 8000996:	6078      	str	r0, [r7, #4]
  if ((ticks - 1UL) > SysTick_LOAD_RELOAD_Msk)
 8000998:	687b      	ldr	r3, [r7, #4]
 800099a:	3b01      	subs	r3, #1
 800099c:	f1b3 7f80 	cmp.w	r3, #16777216	; 0x1000000
 80009a0:	d301      	bcc.n	80009a6 <SysTick_Config+0x16>
  {
    return (1UL);                                                   /* Reload value impossible */
 80009a2:	2301      	movs	r3, #1
 80009a4:	e00f      	b.n	80009c6 <SysTick_Config+0x36>
  }

  SysTick->LOAD  = (uint32_t)(ticks - 1UL);                         /* set reload register */
 80009a6:	4a0a      	ldr	r2, [pc, #40]	; (80009d0 <SysTick_Config+0x40>)
 80009a8:	687b      	ldr	r3, [r7, #4]
 80009aa:	3b01      	subs	r3, #1
 80009ac:	6053      	str	r3, [r2, #4]
  NVIC_SetPriority (SysTick_IRQn, (1UL << __NVIC_PRIO_BITS) - 1UL); /* set Priority for Systick Interrupt */
 80009ae:	210f      	movs	r1, #15
 80009b0:	f04f 30ff 	mov.w	r0, #4294967295
 80009b4:	f7ff ff8e 	bl	80008d4 <__NVIC_SetPriority>
  SysTick->VAL   = 0UL;                                             /* Load the SysTick Counter Value */
 80009b8:	4b05      	ldr	r3, [pc, #20]	; (80009d0 <SysTick_Config+0x40>)
 80009ba:	2200      	movs	r2, #0
 80009bc:	609a      	str	r2, [r3, #8]
  SysTick->CTRL  = SysTick_CTRL_CLKSOURCE_Msk |
 80009be:	4b04      	ldr	r3, [pc, #16]	; (80009d0 <SysTick_Config+0x40>)
 80009c0:	2207      	movs	r2, #7
 80009c2:	601a      	str	r2, [r3, #0]
                   SysTick_CTRL_TICKINT_Msk   |
                   SysTick_CTRL_ENABLE_Msk;                         /* Enable SysTick IRQ and SysTick Timer */
  return (0UL);                                                     /* Function successful */
 80009c4:	2300      	movs	r3, #0
}
 80009c6:	4618      	mov	r0, r3
 80009c8:	3708      	adds	r7, #8
 80009ca:	46bd      	mov	sp, r7
 80009cc:	bd80      	pop	{r7, pc}
 80009ce:	bf00      	nop
 80009d0:	e000e010 	.word	0xe000e010

080009d4 <HAL_NVIC_SetPriorityGrouping>:
  * @note   When the NVIC_PriorityGroup_0 is selected, IRQ preemption is no more possible. 
  *         The pending IRQ priority will be managed only by the subpriority. 
  * @retval None
  */
void HAL_NVIC_SetPriorityGrouping(uint32_t PriorityGroup)
{
 80009d4:	b580      	push	{r7, lr}
 80009d6:	b082      	sub	sp, #8
 80009d8:	af00      	add	r7, sp, #0
 80009da:	6078      	str	r0, [r7, #4]
  /* Check the parameters */
  assert_param(IS_NVIC_PRIORITY_GROUP(PriorityGroup));
  
  /* Set the PRIGROUP[10:8] bits according to the PriorityGroup parameter value */
  NVIC_SetPriorityGrouping(PriorityGroup);
 80009dc:	6878      	ldr	r0, [r7, #4]
 80009de:	f7ff ff47 	bl	8000870 <__NVIC_SetPriorityGrouping>
}
 80009e2:	bf00      	nop
 80009e4:	3708      	adds	r7, #8
 80009e6:	46bd      	mov	sp, r7
 80009e8:	bd80      	pop	{r7, pc}

080009ea <HAL_NVIC_SetPriority>:
  *         This parameter can be a value between 0 and 15
  *         A lower priority value indicates a higher priority.          
  * @retval None
  */
void HAL_NVIC_SetPriority(IRQn_Type IRQn, uint32_t PreemptPriority, uint32_t SubPriority)
{ 
 80009ea:	b580      	push	{r7, lr}
 80009ec:	b086      	sub	sp, #24
 80009ee:	af00      	add	r7, sp, #0
 80009f0:	4603      	mov	r3, r0
 80009f2:	60b9      	str	r1, [r7, #8]
 80009f4:	607a      	str	r2, [r7, #4]
 80009f6:	73fb      	strb	r3, [r7, #15]
  uint32_t prioritygroup = 0x00U;
 80009f8:	2300      	movs	r3, #0
 80009fa:	617b      	str	r3, [r7, #20]
  
  /* Check the parameters */
  assert_param(IS_NVIC_SUB_PRIORITY(SubPriority));
  assert_param(IS_NVIC_PREEMPTION_PRIORITY(PreemptPriority));
  
  prioritygroup = NVIC_GetPriorityGrouping();
 80009fc:	f7ff ff5c 	bl	80008b8 <__NVIC_GetPriorityGrouping>
 8000a00:	6178      	str	r0, [r7, #20]
  
  NVIC_SetPriority(IRQn, NVIC_EncodePriority(prioritygroup, PreemptPriority, SubPriority));
 8000a02:	687a      	ldr	r2, [r7, #4]
 8000a04:	68b9      	ldr	r1, [r7, #8]
 8000a06:	6978      	ldr	r0, [r7, #20]
 8000a08:	f7ff ff8e 	bl	8000928 <NVIC_EncodePriority>
 8000a0c:	4602      	mov	r2, r0
 8000a0e:	f997 300f 	ldrsb.w	r3, [r7, #15]
 8000a12:	4611      	mov	r1, r2
 8000a14:	4618      	mov	r0, r3
 8000a16:	f7ff ff5d 	bl	80008d4 <__NVIC_SetPriority>
}
 8000a1a:	bf00      	nop
 8000a1c:	3718      	adds	r7, #24
 8000a1e:	46bd      	mov	sp, r7
 8000a20:	bd80      	pop	{r7, pc}

08000a22 <HAL_SYSTICK_Config>:
  * @param  TicksNumb Specifies the ticks Number of ticks between two interrupts.
  * @retval status:  - 0  Function succeeded.
  *                  - 1  Function failed.
  */
uint32_t HAL_SYSTICK_Config(uint32_t TicksNumb)
{
 8000a22:	b580      	push	{r7, lr}
 8000a24:	b082      	sub	sp, #8
 8000a26:	af00      	add	r7, sp, #0
 8000a28:	6078      	str	r0, [r7, #4]
   return SysTick_Config(TicksNumb);
 8000a2a:	6878      	ldr	r0, [r7, #4]
 8000a2c:	f7ff ffb0 	bl	8000990 <SysTick_Config>
 8000a30:	4603      	mov	r3, r0
}
 8000a32:	4618      	mov	r0, r3
 8000a34:	3708      	adds	r7, #8
 8000a36:	46bd      	mov	sp, r7
 8000a38:	bd80      	pop	{r7, pc}
	...

08000a3c <HAL_GPIO_Init>:
  * @param  GPIO_Init pointer to a GPIO_InitTypeDef structure that contains
  *         the configuration information for the specified GPIO peripheral.
  * @retval None
  */
void HAL_GPIO_Init(GPIO_TypeDef  *GPIOx, GPIO_InitTypeDef *GPIO_Init)
{
 8000a3c:	b480      	push	{r7}
 8000a3e:	b089      	sub	sp, #36	; 0x24
 8000a40:	af00      	add	r7, sp, #0
 8000a42:	6078      	str	r0, [r7, #4]
 8000a44:	6039      	str	r1, [r7, #0]
  uint32_t position;
  uint32_t ioposition = 0x00U;
 8000a46:	2300      	movs	r3, #0
 8000a48:	617b      	str	r3, [r7, #20]
  uint32_t iocurrent = 0x00U;
 8000a4a:	2300      	movs	r3, #0
 8000a4c:	613b      	str	r3, [r7, #16]
  uint32_t temp = 0x00U;
 8000a4e:	2300      	movs	r3, #0
 8000a50:	61bb      	str	r3, [r7, #24]
  assert_param(IS_GPIO_ALL_INSTANCE(GPIOx));
  assert_param(IS_GPIO_PIN(GPIO_Init->Pin));
  assert_param(IS_GPIO_MODE(GPIO_Init->Mode));

  /* Configure the port pins */
  for(position = 0U; position < GPIO_NUMBER; position++)
 8000a52:	2300      	movs	r3, #0
 8000a54:	61fb      	str	r3, [r7, #28]
 8000a56:	e16b      	b.n	8000d30 <HAL_GPIO_Init+0x2f4>
  {
    /* Get the IO position */
    ioposition = 0x01U << position;
 8000a58:	2201      	movs	r2, #1
 8000a5a:	69fb      	ldr	r3, [r7, #28]
 8000a5c:	fa02 f303 	lsl.w	r3, r2, r3
 8000a60:	617b      	str	r3, [r7, #20]
    /* Get the current IO position */
    iocurrent = (uint32_t)(GPIO_Init->Pin) & ioposition;
 8000a62:	683b      	ldr	r3, [r7, #0]
 8000a64:	681b      	ldr	r3, [r3, #0]
 8000a66:	697a      	ldr	r2, [r7, #20]
 8000a68:	4013      	ands	r3, r2
 8000a6a:	613b      	str	r3, [r7, #16]

    if(iocurrent == ioposition)
 8000a6c:	693a      	ldr	r2, [r7, #16]
 8000a6e:	697b      	ldr	r3, [r7, #20]
 8000a70:	429a      	cmp	r2, r3
 8000a72:	f040 815a 	bne.w	8000d2a <HAL_GPIO_Init+0x2ee>
    {
      /*--------------------- GPIO Mode Configuration ------------------------*/
      /* In case of Output or Alternate function mode selection */
      if(((GPIO_Init->Mode & GPIO_MODE) == MODE_OUTPUT) || \
 8000a76:	683b      	ldr	r3, [r7, #0]
 8000a78:	685b      	ldr	r3, [r3, #4]
 8000a7a:	f003 0303 	and.w	r3, r3, #3
 8000a7e:	2b01      	cmp	r3, #1
 8000a80:	d005      	beq.n	8000a8e <HAL_GPIO_Init+0x52>
          (GPIO_Init->Mode & GPIO_MODE) == MODE_AF)
 8000a82:	683b      	ldr	r3, [r7, #0]
 8000a84:	685b      	ldr	r3, [r3, #4]
 8000a86:	f003 0303 	and.w	r3, r3, #3
      if(((GPIO_Init->Mode & GPIO_MODE) == MODE_OUTPUT) || \
 8000a8a:	2b02      	cmp	r3, #2
 8000a8c:	d130      	bne.n	8000af0 <HAL_GPIO_Init+0xb4>
      {
        /* Check the Speed parameter */
        assert_param(IS_GPIO_SPEED(GPIO_Init->Speed));
        /* Configure the IO Speed */
        temp = GPIOx->OSPEEDR; 
 8000a8e:	687b      	ldr	r3, [r7, #4]
 8000a90:	689b      	ldr	r3, [r3, #8]
 8000a92:	61bb      	str	r3, [r7, #24]
        temp &= ~(GPIO_OSPEEDER_OSPEEDR0 << (position * 2U));
 8000a94:	69fb      	ldr	r3, [r7, #28]
 8000a96:	005b      	lsls	r3, r3, #1
 8000a98:	2203      	movs	r2, #3
 8000a9a:	fa02 f303 	lsl.w	r3, r2, r3
 8000a9e:	43db      	mvns	r3, r3
 8000aa0:	69ba      	ldr	r2, [r7, #24]
 8000aa2:	4013      	ands	r3, r2
 8000aa4:	61bb      	str	r3, [r7, #24]
        temp |= (GPIO_Init->Speed << (position * 2U));
 8000aa6:	683b      	ldr	r3, [r7, #0]
 8000aa8:	68da      	ldr	r2, [r3, #12]
 8000aaa:	69fb      	ldr	r3, [r7, #28]
 8000aac:	005b      	lsls	r3, r3, #1
 8000aae:	fa02 f303 	lsl.w	r3, r2, r3
 8000ab2:	69ba      	ldr	r2, [r7, #24]
 8000ab4:	4313      	orrs	r3, r2
 8000ab6:	61bb      	str	r3, [r7, #24]
        GPIOx->OSPEEDR = temp;
 8000ab8:	687b      	ldr	r3, [r7, #4]
 8000aba:	69ba      	ldr	r2, [r7, #24]
 8000abc:	609a      	str	r2, [r3, #8]

        /* Configure the IO Output Type */
        temp = GPIOx->OTYPER;
 8000abe:	687b      	ldr	r3, [r7, #4]
 8000ac0:	685b      	ldr	r3, [r3, #4]
 8000ac2:	61bb      	str	r3, [r7, #24]
        temp &= ~(GPIO_OTYPER_OT_0 << position) ;
 8000ac4:	2201      	movs	r2, #1
 8000ac6:	69fb      	ldr	r3, [r7, #28]
 8000ac8:	fa02 f303 	lsl.w	r3, r2, r3
 8000acc:	43db      	mvns	r3, r3
 8000ace:	69ba      	ldr	r2, [r7, #24]
 8000ad0:	4013      	ands	r3, r2
 8000ad2:	61bb      	str	r3, [r7, #24]
        temp |= (((GPIO_Init->Mode & OUTPUT_TYPE) >> OUTPUT_TYPE_Pos) << position);
 8000ad4:	683b      	ldr	r3, [r7, #0]
 8000ad6:	685b      	ldr	r3, [r3, #4]
 8000ad8:	091b      	lsrs	r3, r3, #4
 8000ada:	f003 0201 	and.w	r2, r3, #1
 8000ade:	69fb      	ldr	r3, [r7, #28]
 8000ae0:	fa02 f303 	lsl.w	r3, r2, r3
 8000ae4:	69ba      	ldr	r2, [r7, #24]
 8000ae6:	4313      	orrs	r3, r2
 8000ae8:	61bb      	str	r3, [r7, #24]
        GPIOx->OTYPER = temp;
 8000aea:	687b      	ldr	r3, [r7, #4]
 8000aec:	69ba      	ldr	r2, [r7, #24]
 8000aee:	605a      	str	r2, [r3, #4]
       }

      if((GPIO_Init->Mode & GPIO_MODE) != MODE_ANALOG)
 8000af0:	683b      	ldr	r3, [r7, #0]
 8000af2:	685b      	ldr	r3, [r3, #4]
 8000af4:	f003 0303 	and.w	r3, r3, #3
 8000af8:	2b03      	cmp	r3, #3
 8000afa:	d017      	beq.n	8000b2c <HAL_GPIO_Init+0xf0>
      {
        /* Check the parameters */
        assert_param(IS_GPIO_PULL(GPIO_Init->Pull));
        
        /* Activate the Pull-up or Pull down resistor for the current IO */
        temp = GPIOx->PUPDR;
 8000afc:	687b      	ldr	r3, [r7, #4]
 8000afe:	68db      	ldr	r3, [r3, #12]
 8000b00:	61bb      	str	r3, [r7, #24]
        temp &= ~(GPIO_PUPDR_PUPDR0 << (position * 2U));
 8000b02:	69fb      	ldr	r3, [r7, #28]
 8000b04:	005b      	lsls	r3, r3, #1
 8000b06:	2203      	movs	r2, #3
 8000b08:	fa02 f303 	lsl.w	r3, r2, r3
 8000b0c:	43db      	mvns	r3, r3
 8000b0e:	69ba      	ldr	r2, [r7, #24]
 8000b10:	4013      	ands	r3, r2
 8000b12:	61bb      	str	r3, [r7, #24]
        temp |= ((GPIO_Init->Pull) << (position * 2U));
 8000b14:	683b      	ldr	r3, [r7, #0]
 8000b16:	689a      	ldr	r2, [r3, #8]
 8000b18:	69fb      	ldr	r3, [r7, #28]
 8000b1a:	005b      	lsls	r3, r3, #1
 8000b1c:	fa02 f303 	lsl.w	r3, r2, r3
 8000b20:	69ba      	ldr	r2, [r7, #24]
 8000b22:	4313      	orrs	r3, r2
 8000b24:	61bb      	str	r3, [r7, #24]
        GPIOx->PUPDR = temp;
 8000b26:	687b      	ldr	r3, [r7, #4]
 8000b28:	69ba      	ldr	r2, [r7, #24]
 8000b2a:	60da      	str	r2, [r3, #12]
      }

      /* In case of Alternate function mode selection */
      if((GPIO_Init->Mode & GPIO_MODE) == MODE_AF)
 8000b2c:	683b      	ldr	r3, [r7, #0]
 8000b2e:	685b      	ldr	r3, [r3, #4]
 8000b30:	f003 0303 	and.w	r3, r3, #3
 8000b34:	2b02      	cmp	r3, #2
 8000b36:	d123      	bne.n	8000b80 <HAL_GPIO_Init+0x144>
      {
        /* Check the Alternate function parameter */
        assert_param(IS_GPIO_AF(GPIO_Init->Alternate));
        /* Configure Alternate function mapped with the current IO */
        temp = GPIOx->AFR[position >> 3U];
 8000b38:	69fb      	ldr	r3, [r7, #28]
 8000b3a:	08da      	lsrs	r2, r3, #3
 8000b3c:	687b      	ldr	r3, [r7, #4]
 8000b3e:	3208      	adds	r2, #8
 8000b40:	f853 3022 	ldr.w	r3, [r3, r2, lsl #2]
 8000b44:	61bb      	str	r3, [r7, #24]
        temp &= ~(0xFU << ((uint32_t)(position & 0x07U) * 4U)) ;
 8000b46:	69fb      	ldr	r3, [r7, #28]
 8000b48:	f003 0307 	and.w	r3, r3, #7
 8000b4c:	009b      	lsls	r3, r3, #2
 8000b4e:	220f      	movs	r2, #15
 8000b50:	fa02 f303 	lsl.w	r3, r2, r3
 8000b54:	43db      	mvns	r3, r3
 8000b56:	69ba      	ldr	r2, [r7, #24]
 8000b58:	4013      	ands	r3, r2
 8000b5a:	61bb      	str	r3, [r7, #24]
        temp |= ((uint32_t)(GPIO_Init->Alternate) << (((uint32_t)position & 0x07U) * 4U));
 8000b5c:	683b      	ldr	r3, [r7, #0]
 8000b5e:	691a      	ldr	r2, [r3, #16]
 8000b60:	69fb      	ldr	r3, [r7, #28]
 8000b62:	f003 0307 	and.w	r3, r3, #7
 8000b66:	009b      	lsls	r3, r3, #2
 8000b68:	fa02 f303 	lsl.w	r3, r2, r3
 8000b6c:	69ba      	ldr	r2, [r7, #24]
 8000b6e:	4313      	orrs	r3, r2
 8000b70:	61bb      	str	r3, [r7, #24]
        GPIOx->AFR[position >> 3U] = temp;
 8000b72:	69fb      	ldr	r3, [r7, #28]
 8000b74:	08da      	lsrs	r2, r3, #3
 8000b76:	687b      	ldr	r3, [r7, #4]
 8000b78:	3208      	adds	r2, #8
 8000b7a:	69b9      	ldr	r1, [r7, #24]
 8000b7c:	f843 1022 	str.w	r1, [r3, r2, lsl #2]
      }

      /* Configure IO Direction mode (Input, Output, Alternate or Analog) */
      temp = GPIOx->MODER;
 8000b80:	687b      	ldr	r3, [r7, #4]
 8000b82:	681b      	ldr	r3, [r3, #0]
 8000b84:	61bb      	str	r3, [r7, #24]
      temp &= ~(GPIO_MODER_MODER0 << (position * 2U));
 8000b86:	69fb      	ldr	r3, [r7, #28]
 8000b88:	005b      	lsls	r3, r3, #1
 8000b8a:	2203      	movs	r2, #3
 8000b8c:	fa02 f303 	lsl.w	r3, r2, r3
 8000b90:	43db      	mvns	r3, r3
 8000b92:	69ba      	ldr	r2, [r7, #24]
 8000b94:	4013      	ands	r3, r2
 8000b96:	61bb      	str	r3, [r7, #24]
      temp |= ((GPIO_Init->Mode & GPIO_MODE) << (position * 2U));
 8000b98:	683b      	ldr	r3, [r7, #0]
 8000b9a:	685b      	ldr	r3, [r3, #4]
 8000b9c:	f003 0203 	and.w	r2, r3, #3
 8000ba0:	69fb      	ldr	r3, [r7, #28]
 8000ba2:	005b      	lsls	r3, r3, #1
 8000ba4:	fa02 f303 	lsl.w	r3, r2, r3
 8000ba8:	69ba      	ldr	r2, [r7, #24]
 8000baa:	4313      	orrs	r3, r2
 8000bac:	61bb      	str	r3, [r7, #24]
      GPIOx->MODER = temp;
 8000bae:	687b      	ldr	r3, [r7, #4]
 8000bb0:	69ba      	ldr	r2, [r7, #24]
 8000bb2:	601a      	str	r2, [r3, #0]

      /*--------------------- EXTI Mode Configuration ------------------------*/
      /* Configure the External Interrupt or event for the current IO */
      if((GPIO_Init->Mode & EXTI_MODE) != 0x00U)
 8000bb4:	683b      	ldr	r3, [r7, #0]
 8000bb6:	685b      	ldr	r3, [r3, #4]
 8000bb8:	f403 3340 	and.w	r3, r3, #196608	; 0x30000
 8000bbc:	2b00      	cmp	r3, #0
 8000bbe:	f000 80b4 	beq.w	8000d2a <HAL_GPIO_Init+0x2ee>
      {
        /* Enable SYSCFG Clock */
        __HAL_RCC_SYSCFG_CLK_ENABLE();
 8000bc2:	2300      	movs	r3, #0
 8000bc4:	60fb      	str	r3, [r7, #12]
 8000bc6:	4b60      	ldr	r3, [pc, #384]	; (8000d48 <HAL_GPIO_Init+0x30c>)
 8000bc8:	6c5b      	ldr	r3, [r3, #68]	; 0x44
 8000bca:	4a5f      	ldr	r2, [pc, #380]	; (8000d48 <HAL_GPIO_Init+0x30c>)
 8000bcc:	f443 4380 	orr.w	r3, r3, #16384	; 0x4000
 8000bd0:	6453      	str	r3, [r2, #68]	; 0x44
 8000bd2:	4b5d      	ldr	r3, [pc, #372]	; (8000d48 <HAL_GPIO_Init+0x30c>)
 8000bd4:	6c5b      	ldr	r3, [r3, #68]	; 0x44
 8000bd6:	f403 4380 	and.w	r3, r3, #16384	; 0x4000
 8000bda:	60fb      	str	r3, [r7, #12]
 8000bdc:	68fb      	ldr	r3, [r7, #12]

        temp = SYSCFG->EXTICR[position >> 2U];
 8000bde:	4a5b      	ldr	r2, [pc, #364]	; (8000d4c <HAL_GPIO_Init+0x310>)
 8000be0:	69fb      	ldr	r3, [r7, #28]
 8000be2:	089b      	lsrs	r3, r3, #2
 8000be4:	3302      	adds	r3, #2
 8000be6:	f852 3023 	ldr.w	r3, [r2, r3, lsl #2]
 8000bea:	61bb      	str	r3, [r7, #24]
        temp &= ~(0x0FU << (4U * (position & 0x03U)));
 8000bec:	69fb      	ldr	r3, [r7, #28]
 8000bee:	f003 0303 	and.w	r3, r3, #3
 8000bf2:	009b      	lsls	r3, r3, #2
 8000bf4:	220f      	movs	r2, #15
 8000bf6:	fa02 f303 	lsl.w	r3, r2, r3
 8000bfa:	43db      	mvns	r3, r3
 8000bfc:	69ba      	ldr	r2, [r7, #24]
 8000bfe:	4013      	ands	r3, r2
 8000c00:	61bb      	str	r3, [r7, #24]
        temp |= ((uint32_t)(GPIO_GET_INDEX(GPIOx)) << (4U * (position & 0x03U)));
 8000c02:	687b      	ldr	r3, [r7, #4]
 8000c04:	4a52      	ldr	r2, [pc, #328]	; (8000d50 <HAL_GPIO_Init+0x314>)
 8000c06:	4293      	cmp	r3, r2
 8000c08:	d02b      	beq.n	8000c62 <HAL_GPIO_Init+0x226>
 8000c0a:	687b      	ldr	r3, [r7, #4]
 8000c0c:	4a51      	ldr	r2, [pc, #324]	; (8000d54 <HAL_GPIO_Init+0x318>)
 8000c0e:	4293      	cmp	r3, r2
 8000c10:	d025      	beq.n	8000c5e <HAL_GPIO_Init+0x222>
 8000c12:	687b      	ldr	r3, [r7, #4]
 8000c14:	4a50      	ldr	r2, [pc, #320]	; (8000d58 <HAL_GPIO_Init+0x31c>)
 8000c16:	4293      	cmp	r3, r2
 8000c18:	d01f      	beq.n	8000c5a <HAL_GPIO_Init+0x21e>
 8000c1a:	687b      	ldr	r3, [r7, #4]
 8000c1c:	4a4f      	ldr	r2, [pc, #316]	; (8000d5c <HAL_GPIO_Init+0x320>)
 8000c1e:	4293      	cmp	r3, r2
 8000c20:	d019      	beq.n	8000c56 <HAL_GPIO_Init+0x21a>
 8000c22:	687b      	ldr	r3, [r7, #4]
 8000c24:	4a4e      	ldr	r2, [pc, #312]	; (8000d60 <HAL_GPIO_Init+0x324>)
 8000c26:	4293      	cmp	r3, r2
 8000c28:	d013      	beq.n	8000c52 <HAL_GPIO_Init+0x216>
 8000c2a:	687b      	ldr	r3, [r7, #4]
 8000c2c:	4a4d      	ldr	r2, [pc, #308]	; (8000d64 <HAL_GPIO_Init+0x328>)
 8000c2e:	4293      	cmp	r3, r2
 8000c30:	d00d      	beq.n	8000c4e <HAL_GPIO_Init+0x212>
 8000c32:	687b      	ldr	r3, [r7, #4]
 8000c34:	4a4c      	ldr	r2, [pc, #304]	; (8000d68 <HAL_GPIO_Init+0x32c>)
 8000c36:	4293      	cmp	r3, r2
 8000c38:	d007      	beq.n	8000c4a <HAL_GPIO_Init+0x20e>
 8000c3a:	687b      	ldr	r3, [r7, #4]
 8000c3c:	4a4b      	ldr	r2, [pc, #300]	; (8000d6c <HAL_GPIO_Init+0x330>)
 8000c3e:	4293      	cmp	r3, r2
 8000c40:	d101      	bne.n	8000c46 <HAL_GPIO_Init+0x20a>
 8000c42:	2307      	movs	r3, #7
 8000c44:	e00e      	b.n	8000c64 <HAL_GPIO_Init+0x228>
 8000c46:	2308      	movs	r3, #8
 8000c48:	e00c      	b.n	8000c64 <HAL_GPIO_Init+0x228>
 8000c4a:	2306      	movs	r3, #6
 8000c4c:	e00a      	b.n	8000c64 <HAL_GPIO_Init+0x228>
 8000c4e:	2305      	movs	r3, #5
 8000c50:	e008      	b.n	8000c64 <HAL_GPIO_Init+0x228>
 8000c52:	2304      	movs	r3, #4
 8000c54:	e006      	b.n	8000c64 <HAL_GPIO_Init+0x228>
 8000c56:	2303      	movs	r3, #3
 8000c58:	e004      	b.n	8000c64 <HAL_GPIO_Init+0x228>
 8000c5a:	2302      	movs	r3, #2
 8000c5c:	e002      	b.n	8000c64 <HAL_GPIO_Init+0x228>
 8000c5e:	2301      	movs	r3, #1
 8000c60:	e000      	b.n	8000c64 <HAL_GPIO_Init+0x228>
 8000c62:	2300      	movs	r3, #0
 8000c64:	69fa      	ldr	r2, [r7, #28]
 8000c66:	f002 0203 	and.w	r2, r2, #3
 8000c6a:	0092      	lsls	r2, r2, #2
 8000c6c:	4093      	lsls	r3, r2
 8000c6e:	69ba      	ldr	r2, [r7, #24]
 8000c70:	4313      	orrs	r3, r2
 8000c72:	61bb      	str	r3, [r7, #24]
        SYSCFG->EXTICR[position >> 2U] = temp;
 8000c74:	4935      	ldr	r1, [pc, #212]	; (8000d4c <HAL_GPIO_Init+0x310>)
 8000c76:	69fb      	ldr	r3, [r7, #28]
 8000c78:	089b      	lsrs	r3, r3, #2
 8000c7a:	3302      	adds	r3, #2
 8000c7c:	69ba      	ldr	r2, [r7, #24]
 8000c7e:	f841 2023 	str.w	r2, [r1, r3, lsl #2]

        /* Clear Rising Falling edge configuration */
        temp = EXTI->RTSR;
 8000c82:	4b3b      	ldr	r3, [pc, #236]	; (8000d70 <HAL_GPIO_Init+0x334>)
 8000c84:	689b      	ldr	r3, [r3, #8]
 8000c86:	61bb      	str	r3, [r7, #24]
        temp &= ~((uint32_t)iocurrent);
 8000c88:	693b      	ldr	r3, [r7, #16]
 8000c8a:	43db      	mvns	r3, r3
 8000c8c:	69ba      	ldr	r2, [r7, #24]
 8000c8e:	4013      	ands	r3, r2
 8000c90:	61bb      	str	r3, [r7, #24]
        if((GPIO_Init->Mode & TRIGGER_RISING) != 0x00U)
 8000c92:	683b      	ldr	r3, [r7, #0]
 8000c94:	685b      	ldr	r3, [r3, #4]
 8000c96:	f403 1380 	and.w	r3, r3, #1048576	; 0x100000
 8000c9a:	2b00      	cmp	r3, #0
 8000c9c:	d003      	beq.n	8000ca6 <HAL_GPIO_Init+0x26a>
        {
          temp |= iocurrent;
 8000c9e:	69ba      	ldr	r2, [r7, #24]
 8000ca0:	693b      	ldr	r3, [r7, #16]
 8000ca2:	4313      	orrs	r3, r2
 8000ca4:	61bb      	str	r3, [r7, #24]
        }
        EXTI->RTSR = temp;
 8000ca6:	4a32      	ldr	r2, [pc, #200]	; (8000d70 <HAL_GPIO_Init+0x334>)
 8000ca8:	69bb      	ldr	r3, [r7, #24]
 8000caa:	6093      	str	r3, [r2, #8]

        temp = EXTI->FTSR;
 8000cac:	4b30      	ldr	r3, [pc, #192]	; (8000d70 <HAL_GPIO_Init+0x334>)
 8000cae:	68db      	ldr	r3, [r3, #12]
 8000cb0:	61bb      	str	r3, [r7, #24]
        temp &= ~((uint32_t)iocurrent);
 8000cb2:	693b      	ldr	r3, [r7, #16]
 8000cb4:	43db      	mvns	r3, r3
 8000cb6:	69ba      	ldr	r2, [r7, #24]
 8000cb8:	4013      	ands	r3, r2
 8000cba:	61bb      	str	r3, [r7, #24]
        if((GPIO_Init->Mode & TRIGGER_FALLING) != 0x00U)
 8000cbc:	683b      	ldr	r3, [r7, #0]
 8000cbe:	685b      	ldr	r3, [r3, #4]
 8000cc0:	f403 1300 	and.w	r3, r3, #2097152	; 0x200000
 8000cc4:	2b00      	cmp	r3, #0
 8000cc6:	d003      	beq.n	8000cd0 <HAL_GPIO_Init+0x294>
        {
          temp |= iocurrent;
 8000cc8:	69ba      	ldr	r2, [r7, #24]
 8000cca:	693b      	ldr	r3, [r7, #16]
 8000ccc:	4313      	orrs	r3, r2
 8000cce:	61bb      	str	r3, [r7, #24]
        }
        EXTI->FTSR = temp;
 8000cd0:	4a27      	ldr	r2, [pc, #156]	; (8000d70 <HAL_GPIO_Init+0x334>)
 8000cd2:	69bb      	ldr	r3, [r7, #24]
 8000cd4:	60d3      	str	r3, [r2, #12]

        temp = EXTI->EMR;
 8000cd6:	4b26      	ldr	r3, [pc, #152]	; (8000d70 <HAL_GPIO_Init+0x334>)
 8000cd8:	685b      	ldr	r3, [r3, #4]
 8000cda:	61bb      	str	r3, [r7, #24]
        temp &= ~((uint32_t)iocurrent);
 8000cdc:	693b      	ldr	r3, [r7, #16]
 8000cde:	43db      	mvns	r3, r3
 8000ce0:	69ba      	ldr	r2, [r7, #24]
 8000ce2:	4013      	ands	r3, r2
 8000ce4:	61bb      	str	r3, [r7, #24]
        if((GPIO_Init->Mode & EXTI_EVT) != 0x00U)
 8000ce6:	683b      	ldr	r3, [r7, #0]
 8000ce8:	685b      	ldr	r3, [r3, #4]
 8000cea:	f403 3300 	and.w	r3, r3, #131072	; 0x20000
 8000cee:	2b00      	cmp	r3, #0
 8000cf0:	d003      	beq.n	8000cfa <HAL_GPIO_Init+0x2be>
        {
          temp |= iocurrent;
 8000cf2:	69ba      	ldr	r2, [r7, #24]
 8000cf4:	693b      	ldr	r3, [r7, #16]
 8000cf6:	4313      	orrs	r3, r2
 8000cf8:	61bb      	str	r3, [r7, #24]
        }
        EXTI->EMR = temp;
 8000cfa:	4a1d      	ldr	r2, [pc, #116]	; (8000d70 <HAL_GPIO_Init+0x334>)
 8000cfc:	69bb      	ldr	r3, [r7, #24]
 8000cfe:	6053      	str	r3, [r2, #4]

        /* Clear EXTI line configuration */
        temp = EXTI->IMR;
 8000d00:	4b1b      	ldr	r3, [pc, #108]	; (8000d70 <HAL_GPIO_Init+0x334>)
 8000d02:	681b      	ldr	r3, [r3, #0]
 8000d04:	61bb      	str	r3, [r7, #24]
        temp &= ~((uint32_t)iocurrent);
 8000d06:	693b      	ldr	r3, [r7, #16]
 8000d08:	43db      	mvns	r3, r3
 8000d0a:	69ba      	ldr	r2, [r7, #24]
 8000d0c:	4013      	ands	r3, r2
 8000d0e:	61bb      	str	r3, [r7, #24]
        if((GPIO_Init->Mode & EXTI_IT) != 0x00U)
 8000d10:	683b      	ldr	r3, [r7, #0]
 8000d12:	685b      	ldr	r3, [r3, #4]
 8000d14:	f403 3380 	and.w	r3, r3, #65536	; 0x10000
 8000d18:	2b00      	cmp	r3, #0
 8000d1a:	d003      	beq.n	8000d24 <HAL_GPIO_Init+0x2e8>
        {
          temp |= iocurrent;
 8000d1c:	69ba      	ldr	r2, [r7, #24]
 8000d1e:	693b      	ldr	r3, [r7, #16]
 8000d20:	4313      	orrs	r3, r2
 8000d22:	61bb      	str	r3, [r7, #24]
        }
        EXTI->IMR = temp;
 8000d24:	4a12      	ldr	r2, [pc, #72]	; (8000d70 <HAL_GPIO_Init+0x334>)
 8000d26:	69bb      	ldr	r3, [r7, #24]
 8000d28:	6013      	str	r3, [r2, #0]
  for(position = 0U; position < GPIO_NUMBER; position++)
 8000d2a:	69fb      	ldr	r3, [r7, #28]
 8000d2c:	3301      	adds	r3, #1
 8000d2e:	61fb      	str	r3, [r7, #28]
 8000d30:	69fb      	ldr	r3, [r7, #28]
 8000d32:	2b0f      	cmp	r3, #15
 8000d34:	f67f ae90 	bls.w	8000a58 <HAL_GPIO_Init+0x1c>
      }
    }
  }
}
 8000d38:	bf00      	nop
 8000d3a:	bf00      	nop
 8000d3c:	3724      	adds	r7, #36	; 0x24
 8000d3e:	46bd      	mov	sp, r7
 8000d40:	f85d 7b04 	ldr.w	r7, [sp], #4
 8000d44:	4770      	bx	lr
 8000d46:	bf00      	nop
 8000d48:	40023800 	.word	0x40023800
 8000d4c:	40013800 	.word	0x40013800
 8000d50:	40020000 	.word	0x40020000
 8000d54:	40020400 	.word	0x40020400
 8000d58:	40020800 	.word	0x40020800
 8000d5c:	40020c00 	.word	0x40020c00
 8000d60:	40021000 	.word	0x40021000
 8000d64:	40021400 	.word	0x40021400
 8000d68:	40021800 	.word	0x40021800
 8000d6c:	40021c00 	.word	0x40021c00
 8000d70:	40013c00 	.word	0x40013c00

08000d74 <HAL_GPIO_WritePin>:
  *            @arg GPIO_PIN_RESET: to clear the port pin
  *            @arg GPIO_PIN_SET: to set the port pin
  * @retval None
  */
void HAL_GPIO_WritePin(GPIO_TypeDef* GPIOx, uint16_t GPIO_Pin, GPIO_PinState PinState)
{
 8000d74:	b480      	push	{r7}
 8000d76:	b083      	sub	sp, #12
 8000d78:	af00      	add	r7, sp, #0
 8000d7a:	6078      	str	r0, [r7, #4]
 8000d7c:	460b      	mov	r3, r1
 8000d7e:	807b      	strh	r3, [r7, #2]
 8000d80:	4613      	mov	r3, r2
 8000d82:	707b      	strb	r3, [r7, #1]
  /* Check the parameters */
  assert_param(IS_GPIO_PIN(GPIO_Pin));
  assert_param(IS_GPIO_PIN_ACTION(PinState));

  if(PinState != GPIO_PIN_RESET)
 8000d84:	787b      	ldrb	r3, [r7, #1]
 8000d86:	2b00      	cmp	r3, #0
 8000d88:	d003      	beq.n	8000d92 <HAL_GPIO_WritePin+0x1e>
  {
    GPIOx->BSRR = GPIO_Pin;
 8000d8a:	887a      	ldrh	r2, [r7, #2]
 8000d8c:	687b      	ldr	r3, [r7, #4]
 8000d8e:	619a      	str	r2, [r3, #24]
  }
  else
  {
    GPIOx->BSRR = (uint32_t)GPIO_Pin << 16U;
  }
}
 8000d90:	e003      	b.n	8000d9a <HAL_GPIO_WritePin+0x26>
    GPIOx->BSRR = (uint32_t)GPIO_Pin << 16U;
 8000d92:	887b      	ldrh	r3, [r7, #2]
 8000d94:	041a      	lsls	r2, r3, #16
 8000d96:	687b      	ldr	r3, [r7, #4]
 8000d98:	619a      	str	r2, [r3, #24]
}
 8000d9a:	bf00      	nop
 8000d9c:	370c      	adds	r7, #12
 8000d9e:	46bd      	mov	sp, r7
 8000da0:	f85d 7b04 	ldr.w	r7, [sp], #4
 8000da4:	4770      	bx	lr
	...

08000da8 <HAL_RCC_OscConfig>:
  *         supported by this API. User should request a transition to HSE Off
  *         first and then HSE On or HSE Bypass.
  * @retval HAL status
  */
__weak HAL_StatusTypeDef HAL_RCC_OscConfig(RCC_OscInitTypeDef  *RCC_OscInitStruct)
{
 8000da8:	b580      	push	{r7, lr}
 8000daa:	b086      	sub	sp, #24
 8000dac:	af00      	add	r7, sp, #0
 8000dae:	6078      	str	r0, [r7, #4]
  uint32_t tickstart, pll_config;

  /* Check Null pointer */
  if(RCC_OscInitStruct == NULL)
 8000db0:	687b      	ldr	r3, [r7, #4]
 8000db2:	2b00      	cmp	r3, #0
 8000db4:	d101      	bne.n	8000dba <HAL_RCC_OscConfig+0x12>
  {
    return HAL_ERROR;
 8000db6:	2301      	movs	r3, #1
 8000db8:	e267      	b.n	800128a <HAL_RCC_OscConfig+0x4e2>
  }

  /* Check the parameters */
  assert_param(IS_RCC_OSCILLATORTYPE(RCC_OscInitStruct->OscillatorType));
  /*------------------------------- HSE Configuration ------------------------*/
  if(((RCC_OscInitStruct->OscillatorType) & RCC_OSCILLATORTYPE_HSE) == RCC_OSCILLATORTYPE_HSE)
 8000dba:	687b      	ldr	r3, [r7, #4]
 8000dbc:	681b      	ldr	r3, [r3, #0]
 8000dbe:	f003 0301 	and.w	r3, r3, #1
 8000dc2:	2b00      	cmp	r3, #0
 8000dc4:	d075      	beq.n	8000eb2 <HAL_RCC_OscConfig+0x10a>
  {
    /* Check the parameters */
    assert_param(IS_RCC_HSE(RCC_OscInitStruct->HSEState));
    /* When the HSE is used as system clock or clock source for PLL in these cases HSE will not disabled */
    if((__HAL_RCC_GET_SYSCLK_SOURCE() == RCC_CFGR_SWS_HSE) ||\
 8000dc6:	4b88      	ldr	r3, [pc, #544]	; (8000fe8 <HAL_RCC_OscConfig+0x240>)
 8000dc8:	689b      	ldr	r3, [r3, #8]
 8000dca:	f003 030c 	and.w	r3, r3, #12
 8000dce:	2b04      	cmp	r3, #4
 8000dd0:	d00c      	beq.n	8000dec <HAL_RCC_OscConfig+0x44>
      ((__HAL_RCC_GET_SYSCLK_SOURCE() == RCC_CFGR_SWS_PLL) && ((RCC->PLLCFGR & RCC_PLLCFGR_PLLSRC) == RCC_PLLCFGR_PLLSRC_HSE)))
 8000dd2:	4b85      	ldr	r3, [pc, #532]	; (8000fe8 <HAL_RCC_OscConfig+0x240>)
 8000dd4:	689b      	ldr	r3, [r3, #8]
 8000dd6:	f003 030c 	and.w	r3, r3, #12
    if((__HAL_RCC_GET_SYSCLK_SOURCE() == RCC_CFGR_SWS_HSE) ||\
 8000dda:	2b08      	cmp	r3, #8
 8000ddc:	d112      	bne.n	8000e04 <HAL_RCC_OscConfig+0x5c>
      ((__HAL_RCC_GET_SYSCLK_SOURCE() == RCC_CFGR_SWS_PLL) && ((RCC->PLLCFGR & RCC_PLLCFGR_PLLSRC) == RCC_PLLCFGR_PLLSRC_HSE)))
 8000dde:	4b82      	ldr	r3, [pc, #520]	; (8000fe8 <HAL_RCC_OscConfig+0x240>)
 8000de0:	685b      	ldr	r3, [r3, #4]
 8000de2:	f403 0380 	and.w	r3, r3, #4194304	; 0x400000
 8000de6:	f5b3 0f80 	cmp.w	r3, #4194304	; 0x400000
 8000dea:	d10b      	bne.n	8000e04 <HAL_RCC_OscConfig+0x5c>
    {
      if((__HAL_RCC_GET_FLAG(RCC_FLAG_HSERDY) != RESET) && (RCC_OscInitStruct->HSEState == RCC_HSE_OFF))
 8000dec:	4b7e      	ldr	r3, [pc, #504]	; (8000fe8 <HAL_RCC_OscConfig+0x240>)
 8000dee:	681b      	ldr	r3, [r3, #0]
 8000df0:	f403 3300 	and.w	r3, r3, #131072	; 0x20000
 8000df4:	2b00      	cmp	r3, #0
 8000df6:	d05b      	beq.n	8000eb0 <HAL_RCC_OscConfig+0x108>
 8000df8:	687b      	ldr	r3, [r7, #4]
 8000dfa:	685b      	ldr	r3, [r3, #4]
 8000dfc:	2b00      	cmp	r3, #0
 8000dfe:	d157      	bne.n	8000eb0 <HAL_RCC_OscConfig+0x108>
      {
        return HAL_ERROR;
 8000e00:	2301      	movs	r3, #1
 8000e02:	e242      	b.n	800128a <HAL_RCC_OscConfig+0x4e2>
      }
    }
    else
    {
      /* Set the new HSE configuration ---------------------------------------*/
      __HAL_RCC_HSE_CONFIG(RCC_OscInitStruct->HSEState);
 8000e04:	687b      	ldr	r3, [r7, #4]
 8000e06:	685b      	ldr	r3, [r3, #4]
 8000e08:	f5b3 3f80 	cmp.w	r3, #65536	; 0x10000
 8000e0c:	d106      	bne.n	8000e1c <HAL_RCC_OscConfig+0x74>
 8000e0e:	4b76      	ldr	r3, [pc, #472]	; (8000fe8 <HAL_RCC_OscConfig+0x240>)
 8000e10:	681b      	ldr	r3, [r3, #0]
 8000e12:	4a75      	ldr	r2, [pc, #468]	; (8000fe8 <HAL_RCC_OscConfig+0x240>)
 8000e14:	f443 3380 	orr.w	r3, r3, #65536	; 0x10000
 8000e18:	6013      	str	r3, [r2, #0]
 8000e1a:	e01d      	b.n	8000e58 <HAL_RCC_OscConfig+0xb0>
 8000e1c:	687b      	ldr	r3, [r7, #4]
 8000e1e:	685b      	ldr	r3, [r3, #4]
 8000e20:	f5b3 2fa0 	cmp.w	r3, #327680	; 0x50000
 8000e24:	d10c      	bne.n	8000e40 <HAL_RCC_OscConfig+0x98>
 8000e26:	4b70      	ldr	r3, [pc, #448]	; (8000fe8 <HAL_RCC_OscConfig+0x240>)
 8000e28:	681b      	ldr	r3, [r3, #0]
 8000e2a:	4a6f      	ldr	r2, [pc, #444]	; (8000fe8 <HAL_RCC_OscConfig+0x240>)
 8000e2c:	f443 2380 	orr.w	r3, r3, #262144	; 0x40000
 8000e30:	6013      	str	r3, [r2, #0]
 8000e32:	4b6d      	ldr	r3, [pc, #436]	; (8000fe8 <HAL_RCC_OscConfig+0x240>)
 8000e34:	681b      	ldr	r3, [r3, #0]
 8000e36:	4a6c      	ldr	r2, [pc, #432]	; (8000fe8 <HAL_RCC_OscConfig+0x240>)
 8000e38:	f443 3380 	orr.w	r3, r3, #65536	; 0x10000
 8000e3c:	6013      	str	r3, [r2, #0]
 8000e3e:	e00b      	b.n	8000e58 <HAL_RCC_OscConfig+0xb0>
 8000e40:	4b69      	ldr	r3, [pc, #420]	; (8000fe8 <HAL_RCC_OscConfig+0x240>)
 8000e42:	681b      	ldr	r3, [r3, #0]
 8000e44:	4a68      	ldr	r2, [pc, #416]	; (8000fe8 <HAL_RCC_OscConfig+0x240>)
 8000e46:	f423 3380 	bic.w	r3, r3, #65536	; 0x10000
 8000e4a:	6013      	str	r3, [r2, #0]
 8000e4c:	4b66      	ldr	r3, [pc, #408]	; (8000fe8 <HAL_RCC_OscConfig+0x240>)
 8000e4e:	681b      	ldr	r3, [r3, #0]
 8000e50:	4a65      	ldr	r2, [pc, #404]	; (8000fe8 <HAL_RCC_OscConfig+0x240>)
 8000e52:	f423 2380 	bic.w	r3, r3, #262144	; 0x40000
 8000e56:	6013      	str	r3, [r2, #0]

      /* Check the HSE State */
      if((RCC_OscInitStruct->HSEState) != RCC_HSE_OFF)
 8000e58:	687b      	ldr	r3, [r7, #4]
 8000e5a:	685b      	ldr	r3, [r3, #4]
 8000e5c:	2b00      	cmp	r3, #0
 8000e5e:	d013      	beq.n	8000e88 <HAL_RCC_OscConfig+0xe0>
      {
        /* Get Start Tick */
        tickstart = HAL_GetTick();
 8000e60:	f7ff fcfa 	bl	8000858 <HAL_GetTick>
 8000e64:	6138      	str	r0, [r7, #16]

        /* Wait till HSE is ready */
        while(__HAL_RCC_GET_FLAG(RCC_FLAG_HSERDY) == RESET)
 8000e66:	e008      	b.n	8000e7a <HAL_RCC_OscConfig+0xd2>
        {
          if((HAL_GetTick() - tickstart ) > HSE_TIMEOUT_VALUE)
 8000e68:	f7ff fcf6 	bl	8000858 <HAL_GetTick>
 8000e6c:	4602      	mov	r2, r0
 8000e6e:	693b      	ldr	r3, [r7, #16]
 8000e70:	1ad3      	subs	r3, r2, r3
 8000e72:	2b64      	cmp	r3, #100	; 0x64
 8000e74:	d901      	bls.n	8000e7a <HAL_RCC_OscConfig+0xd2>
          {
            return HAL_TIMEOUT;
 8000e76:	2303      	movs	r3, #3
 8000e78:	e207      	b.n	800128a <HAL_RCC_OscConfig+0x4e2>
        while(__HAL_RCC_GET_FLAG(RCC_FLAG_HSERDY) == RESET)
 8000e7a:	4b5b      	ldr	r3, [pc, #364]	; (8000fe8 <HAL_RCC_OscConfig+0x240>)
 8000e7c:	681b      	ldr	r3, [r3, #0]
 8000e7e:	f403 3300 	and.w	r3, r3, #131072	; 0x20000
 8000e82:	2b00      	cmp	r3, #0
 8000e84:	d0f0      	beq.n	8000e68 <HAL_RCC_OscConfig+0xc0>
 8000e86:	e014      	b.n	8000eb2 <HAL_RCC_OscConfig+0x10a>
        }
      }
      else
      {
        /* Get Start Tick */
        tickstart = HAL_GetTick();
 8000e88:	f7ff fce6 	bl	8000858 <HAL_GetTick>
 8000e8c:	6138      	str	r0, [r7, #16]

        /* Wait till HSE is bypassed or disabled */
        while(__HAL_RCC_GET_FLAG(RCC_FLAG_HSERDY) != RESET)
 8000e8e:	e008      	b.n	8000ea2 <HAL_RCC_OscConfig+0xfa>
        {
          if((HAL_GetTick() - tickstart ) > HSE_TIMEOUT_VALUE)
 8000e90:	f7ff fce2 	bl	8000858 <HAL_GetTick>
 8000e94:	4602      	mov	r2, r0
 8000e96:	693b      	ldr	r3, [r7, #16]
 8000e98:	1ad3      	subs	r3, r2, r3
 8000e9a:	2b64      	cmp	r3, #100	; 0x64
 8000e9c:	d901      	bls.n	8000ea2 <HAL_RCC_OscConfig+0xfa>
          {
            return HAL_TIMEOUT;
 8000e9e:	2303      	movs	r3, #3
 8000ea0:	e1f3      	b.n	800128a <HAL_RCC_OscConfig+0x4e2>
        while(__HAL_RCC_GET_FLAG(RCC_FLAG_HSERDY) != RESET)
 8000ea2:	4b51      	ldr	r3, [pc, #324]	; (8000fe8 <HAL_RCC_OscConfig+0x240>)
 8000ea4:	681b      	ldr	r3, [r3, #0]
 8000ea6:	f403 3300 	and.w	r3, r3, #131072	; 0x20000
 8000eaa:	2b00      	cmp	r3, #0
 8000eac:	d1f0      	bne.n	8000e90 <HAL_RCC_OscConfig+0xe8>
 8000eae:	e000      	b.n	8000eb2 <HAL_RCC_OscConfig+0x10a>
      if((__HAL_RCC_GET_FLAG(RCC_FLAG_HSERDY) != RESET) && (RCC_OscInitStruct->HSEState == RCC_HSE_OFF))
 8000eb0:	bf00      	nop
        }
      }
    }
  }
  /*----------------------------- HSI Configuration --------------------------*/
  if(((RCC_OscInitStruct->OscillatorType) & RCC_OSCILLATORTYPE_HSI) == RCC_OSCILLATORTYPE_HSI)
 8000eb2:	687b      	ldr	r3, [r7, #4]
 8000eb4:	681b      	ldr	r3, [r3, #0]
 8000eb6:	f003 0302 	and.w	r3, r3, #2
 8000eba:	2b00      	cmp	r3, #0
 8000ebc:	d063      	beq.n	8000f86 <HAL_RCC_OscConfig+0x1de>
    /* Check the parameters */
    assert_param(IS_RCC_HSI(RCC_OscInitStruct->HSIState));
    assert_param(IS_RCC_CALIBRATION_VALUE(RCC_OscInitStruct->HSICalibrationValue));

    /* Check if HSI is used as system clock or as PLL source when PLL is selected as system clock */
    if((__HAL_RCC_GET_SYSCLK_SOURCE() == RCC_CFGR_SWS_HSI) ||\
 8000ebe:	4b4a      	ldr	r3, [pc, #296]	; (8000fe8 <HAL_RCC_OscConfig+0x240>)
 8000ec0:	689b      	ldr	r3, [r3, #8]
 8000ec2:	f003 030c 	and.w	r3, r3, #12
 8000ec6:	2b00      	cmp	r3, #0
 8000ec8:	d00b      	beq.n	8000ee2 <HAL_RCC_OscConfig+0x13a>
      ((__HAL_RCC_GET_SYSCLK_SOURCE() == RCC_CFGR_SWS_PLL) && ((RCC->PLLCFGR & RCC_PLLCFGR_PLLSRC) == RCC_PLLCFGR_PLLSRC_HSI)))
 8000eca:	4b47      	ldr	r3, [pc, #284]	; (8000fe8 <HAL_RCC_OscConfig+0x240>)
 8000ecc:	689b      	ldr	r3, [r3, #8]
 8000ece:	f003 030c 	and.w	r3, r3, #12
    if((__HAL_RCC_GET_SYSCLK_SOURCE() == RCC_CFGR_SWS_HSI) ||\
 8000ed2:	2b08      	cmp	r3, #8
 8000ed4:	d11c      	bne.n	8000f10 <HAL_RCC_OscConfig+0x168>
      ((__HAL_RCC_GET_SYSCLK_SOURCE() == RCC_CFGR_SWS_PLL) && ((RCC->PLLCFGR & RCC_PLLCFGR_PLLSRC) == RCC_PLLCFGR_PLLSRC_HSI)))
 8000ed6:	4b44      	ldr	r3, [pc, #272]	; (8000fe8 <HAL_RCC_OscConfig+0x240>)
 8000ed8:	685b      	ldr	r3, [r3, #4]
 8000eda:	f403 0380 	and.w	r3, r3, #4194304	; 0x400000
 8000ede:	2b00      	cmp	r3, #0
 8000ee0:	d116      	bne.n	8000f10 <HAL_RCC_OscConfig+0x168>
    {
      /* When HSI is used as system clock it will not disabled */
      if((__HAL_RCC_GET_FLAG(RCC_FLAG_HSIRDY) != RESET) && (RCC_OscInitStruct->HSIState != RCC_HSI_ON))
 8000ee2:	4b41      	ldr	r3, [pc, #260]	; (8000fe8 <HAL_RCC_OscConfig+0x240>)
 8000ee4:	681b      	ldr	r3, [r3, #0]
 8000ee6:	f003 0302 	and.w	r3, r3, #2
 8000eea:	2b00      	cmp	r3, #0
 8000eec:	d005      	beq.n	8000efa <HAL_RCC_OscConfig+0x152>
 8000eee:	687b      	ldr	r3, [r7, #4]
 8000ef0:	68db      	ldr	r3, [r3, #12]
 8000ef2:	2b01      	cmp	r3, #1
 8000ef4:	d001      	beq.n	8000efa <HAL_RCC_OscConfig+0x152>
      {
        return HAL_ERROR;
 8000ef6:	2301      	movs	r3, #1
 8000ef8:	e1c7      	b.n	800128a <HAL_RCC_OscConfig+0x4e2>
      }
      /* Otherwise, just the calibration is allowed */
      else
      {
        /* Adjusts the Internal High Speed oscillator (HSI) calibration value.*/
        __HAL_RCC_HSI_CALIBRATIONVALUE_ADJUST(RCC_OscInitStruct->HSICalibrationValue);
 8000efa:	4b3b      	ldr	r3, [pc, #236]	; (8000fe8 <HAL_RCC_OscConfig+0x240>)
 8000efc:	681b      	ldr	r3, [r3, #0]
 8000efe:	f023 02f8 	bic.w	r2, r3, #248	; 0xf8
 8000f02:	687b      	ldr	r3, [r7, #4]
 8000f04:	691b      	ldr	r3, [r3, #16]
 8000f06:	00db      	lsls	r3, r3, #3
 8000f08:	4937      	ldr	r1, [pc, #220]	; (8000fe8 <HAL_RCC_OscConfig+0x240>)
 8000f0a:	4313      	orrs	r3, r2
 8000f0c:	600b      	str	r3, [r1, #0]
      if((__HAL_RCC_GET_FLAG(RCC_FLAG_HSIRDY) != RESET) && (RCC_OscInitStruct->HSIState != RCC_HSI_ON))
 8000f0e:	e03a      	b.n	8000f86 <HAL_RCC_OscConfig+0x1de>
      }
    }
    else
    {
      /* Check the HSI State */
      if((RCC_OscInitStruct->HSIState)!= RCC_HSI_OFF)
 8000f10:	687b      	ldr	r3, [r7, #4]
 8000f12:	68db      	ldr	r3, [r3, #12]
 8000f14:	2b00      	cmp	r3, #0
 8000f16:	d020      	beq.n	8000f5a <HAL_RCC_OscConfig+0x1b2>
      {
        /* Enable the Internal High Speed oscillator (HSI). */
        __HAL_RCC_HSI_ENABLE();
 8000f18:	4b34      	ldr	r3, [pc, #208]	; (8000fec <HAL_RCC_OscConfig+0x244>)
 8000f1a:	2201      	movs	r2, #1
 8000f1c:	601a      	str	r2, [r3, #0]

        /* Get Start Tick*/
        tickstart = HAL_GetTick();
 8000f1e:	f7ff fc9b 	bl	8000858 <HAL_GetTick>
 8000f22:	6138      	str	r0, [r7, #16]

        /* Wait till HSI is ready */
        while(__HAL_RCC_GET_FLAG(RCC_FLAG_HSIRDY) == RESET)
 8000f24:	e008      	b.n	8000f38 <HAL_RCC_OscConfig+0x190>
        {
          if((HAL_GetTick() - tickstart ) > HSI_TIMEOUT_VALUE)
 8000f26:	f7ff fc97 	bl	8000858 <HAL_GetTick>
 8000f2a:	4602      	mov	r2, r0
 8000f2c:	693b      	ldr	r3, [r7, #16]
 8000f2e:	1ad3      	subs	r3, r2, r3
 8000f30:	2b02      	cmp	r3, #2
 8000f32:	d901      	bls.n	8000f38 <HAL_RCC_OscConfig+0x190>
          {
            return HAL_TIMEOUT;
 8000f34:	2303      	movs	r3, #3
 8000f36:	e1a8      	b.n	800128a <HAL_RCC_OscConfig+0x4e2>
        while(__HAL_RCC_GET_FLAG(RCC_FLAG_HSIRDY) == RESET)
 8000f38:	4b2b      	ldr	r3, [pc, #172]	; (8000fe8 <HAL_RCC_OscConfig+0x240>)
 8000f3a:	681b      	ldr	r3, [r3, #0]
 8000f3c:	f003 0302 	and.w	r3, r3, #2
 8000f40:	2b00      	cmp	r3, #0
 8000f42:	d0f0      	beq.n	8000f26 <HAL_RCC_OscConfig+0x17e>
          }
        }

        /* Adjusts the Internal High Speed oscillator (HSI) calibration value. */
        __HAL_RCC_HSI_CALIBRATIONVALUE_ADJUST(RCC_OscInitStruct->HSICalibrationValue);
 8000f44:	4b28      	ldr	r3, [pc, #160]	; (8000fe8 <HAL_RCC_OscConfig+0x240>)
 8000f46:	681b      	ldr	r3, [r3, #0]
 8000f48:	f023 02f8 	bic.w	r2, r3, #248	; 0xf8
 8000f4c:	687b      	ldr	r3, [r7, #4]
 8000f4e:	691b      	ldr	r3, [r3, #16]
 8000f50:	00db      	lsls	r3, r3, #3
 8000f52:	4925      	ldr	r1, [pc, #148]	; (8000fe8 <HAL_RCC_OscConfig+0x240>)
 8000f54:	4313      	orrs	r3, r2
 8000f56:	600b      	str	r3, [r1, #0]
 8000f58:	e015      	b.n	8000f86 <HAL_RCC_OscConfig+0x1de>
      }
      else
      {
        /* Disable the Internal High Speed oscillator (HSI). */
        __HAL_RCC_HSI_DISABLE();
 8000f5a:	4b24      	ldr	r3, [pc, #144]	; (8000fec <HAL_RCC_OscConfig+0x244>)
 8000f5c:	2200      	movs	r2, #0
 8000f5e:	601a      	str	r2, [r3, #0]

        /* Get Start Tick*/
        tickstart = HAL_GetTick();
 8000f60:	f7ff fc7a 	bl	8000858 <HAL_GetTick>
 8000f64:	6138      	str	r0, [r7, #16]

        /* Wait till HSI is ready */
        while(__HAL_RCC_GET_FLAG(RCC_FLAG_HSIRDY) != RESET)
 8000f66:	e008      	b.n	8000f7a <HAL_RCC_OscConfig+0x1d2>
        {
          if((HAL_GetTick() - tickstart ) > HSI_TIMEOUT_VALUE)
 8000f68:	f7ff fc76 	bl	8000858 <HAL_GetTick>
 8000f6c:	4602      	mov	r2, r0
 8000f6e:	693b      	ldr	r3, [r7, #16]
 8000f70:	1ad3      	subs	r3, r2, r3
 8000f72:	2b02      	cmp	r3, #2
 8000f74:	d901      	bls.n	8000f7a <HAL_RCC_OscConfig+0x1d2>
          {
            return HAL_TIMEOUT;
 8000f76:	2303      	movs	r3, #3
 8000f78:	e187      	b.n	800128a <HAL_RCC_OscConfig+0x4e2>
        while(__HAL_RCC_GET_FLAG(RCC_FLAG_HSIRDY) != RESET)
 8000f7a:	4b1b      	ldr	r3, [pc, #108]	; (8000fe8 <HAL_RCC_OscConfig+0x240>)
 8000f7c:	681b      	ldr	r3, [r3, #0]
 8000f7e:	f003 0302 	and.w	r3, r3, #2
 8000f82:	2b00      	cmp	r3, #0
 8000f84:	d1f0      	bne.n	8000f68 <HAL_RCC_OscConfig+0x1c0>
        }
      }
    }
  }
  /*------------------------------ LSI Configuration -------------------------*/
  if(((RCC_OscInitStruct->OscillatorType) & RCC_OSCILLATORTYPE_LSI) == RCC_OSCILLATORTYPE_LSI)
 8000f86:	687b      	ldr	r3, [r7, #4]
 8000f88:	681b      	ldr	r3, [r3, #0]
 8000f8a:	f003 0308 	and.w	r3, r3, #8
 8000f8e:	2b00      	cmp	r3, #0
 8000f90:	d036      	beq.n	8001000 <HAL_RCC_OscConfig+0x258>
  {
    /* Check the parameters */
    assert_param(IS_RCC_LSI(RCC_OscInitStruct->LSIState));

    /* Check the LSI State */
    if((RCC_OscInitStruct->LSIState)!= RCC_LSI_OFF)
 8000f92:	687b      	ldr	r3, [r7, #4]
 8000f94:	695b      	ldr	r3, [r3, #20]
 8000f96:	2b00      	cmp	r3, #0
 8000f98:	d016      	beq.n	8000fc8 <HAL_RCC_OscConfig+0x220>
    {
      /* Enable the Internal Low Speed oscillator (LSI). */
      __HAL_RCC_LSI_ENABLE();
 8000f9a:	4b15      	ldr	r3, [pc, #84]	; (8000ff0 <HAL_RCC_OscConfig+0x248>)
 8000f9c:	2201      	movs	r2, #1
 8000f9e:	601a      	str	r2, [r3, #0]

      /* Get Start Tick*/
      tickstart = HAL_GetTick();
 8000fa0:	f7ff fc5a 	bl	8000858 <HAL_GetTick>
 8000fa4:	6138      	str	r0, [r7, #16]

      /* Wait till LSI is ready */
      while(__HAL_RCC_GET_FLAG(RCC_FLAG_LSIRDY) == RESET)
 8000fa6:	e008      	b.n	8000fba <HAL_RCC_OscConfig+0x212>
      {
        if((HAL_GetTick() - tickstart ) > LSI_TIMEOUT_VALUE)
 8000fa8:	f7ff fc56 	bl	8000858 <HAL_GetTick>
 8000fac:	4602      	mov	r2, r0
 8000fae:	693b      	ldr	r3, [r7, #16]
 8000fb0:	1ad3      	subs	r3, r2, r3
 8000fb2:	2b02      	cmp	r3, #2
 8000fb4:	d901      	bls.n	8000fba <HAL_RCC_OscConfig+0x212>
        {
          return HAL_TIMEOUT;
 8000fb6:	2303      	movs	r3, #3
 8000fb8:	e167      	b.n	800128a <HAL_RCC_OscConfig+0x4e2>
      while(__HAL_RCC_GET_FLAG(RCC_FLAG_LSIRDY) == RESET)
 8000fba:	4b0b      	ldr	r3, [pc, #44]	; (8000fe8 <HAL_RCC_OscConfig+0x240>)
 8000fbc:	6f5b      	ldr	r3, [r3, #116]	; 0x74
 8000fbe:	f003 0302 	and.w	r3, r3, #2
 8000fc2:	2b00      	cmp	r3, #0
 8000fc4:	d0f0      	beq.n	8000fa8 <HAL_RCC_OscConfig+0x200>
 8000fc6:	e01b      	b.n	8001000 <HAL_RCC_OscConfig+0x258>
      }
    }
    else
    {
      /* Disable the Internal Low Speed oscillator (LSI). */
      __HAL_RCC_LSI_DISABLE();
 8000fc8:	4b09      	ldr	r3, [pc, #36]	; (8000ff0 <HAL_RCC_OscConfig+0x248>)
 8000fca:	2200      	movs	r2, #0
 8000fcc:	601a      	str	r2, [r3, #0]

      /* Get Start Tick */
      tickstart = HAL_GetTick();
 8000fce:	f7ff fc43 	bl	8000858 <HAL_GetTick>
 8000fd2:	6138      	str	r0, [r7, #16]

      /* Wait till LSI is ready */
      while(__HAL_RCC_GET_FLAG(RCC_FLAG_LSIRDY) != RESET)
 8000fd4:	e00e      	b.n	8000ff4 <HAL_RCC_OscConfig+0x24c>
      {
        if((HAL_GetTick() - tickstart ) > LSI_TIMEOUT_VALUE)
 8000fd6:	f7ff fc3f 	bl	8000858 <HAL_GetTick>
 8000fda:	4602      	mov	r2, r0
 8000fdc:	693b      	ldr	r3, [r7, #16]
 8000fde:	1ad3      	subs	r3, r2, r3
 8000fe0:	2b02      	cmp	r3, #2
 8000fe2:	d907      	bls.n	8000ff4 <HAL_RCC_OscConfig+0x24c>
        {
          return HAL_TIMEOUT;
 8000fe4:	2303      	movs	r3, #3
 8000fe6:	e150      	b.n	800128a <HAL_RCC_OscConfig+0x4e2>
 8000fe8:	40023800 	.word	0x40023800
 8000fec:	42470000 	.word	0x42470000
 8000ff0:	42470e80 	.word	0x42470e80
      while(__HAL_RCC_GET_FLAG(RCC_FLAG_LSIRDY) != RESET)
 8000ff4:	4b88      	ldr	r3, [pc, #544]	; (8001218 <HAL_RCC_OscConfig+0x470>)
 8000ff6:	6f5b      	ldr	r3, [r3, #116]	; 0x74
 8000ff8:	f003 0302 	and.w	r3, r3, #2
 8000ffc:	2b00      	cmp	r3, #0
 8000ffe:	d1ea      	bne.n	8000fd6 <HAL_RCC_OscConfig+0x22e>
        }
      }
    }
  }
  /*------------------------------ LSE Configuration -------------------------*/
  if(((RCC_OscInitStruct->OscillatorType) & RCC_OSCILLATORTYPE_LSE) == RCC_OSCILLATORTYPE_LSE)
 8001000:	687b      	ldr	r3, [r7, #4]
 8001002:	681b      	ldr	r3, [r3, #0]
 8001004:	f003 0304 	and.w	r3, r3, #4
 8001008:	2b00      	cmp	r3, #0
 800100a:	f000 8097 	beq.w	800113c <HAL_RCC_OscConfig+0x394>
  {
    FlagStatus       pwrclkchanged = RESET;
 800100e:	2300      	movs	r3, #0
 8001010:	75fb      	strb	r3, [r7, #23]
    /* Check the parameters */
    assert_param(IS_RCC_LSE(RCC_OscInitStruct->LSEState));

    /* Update LSE configuration in Backup Domain control register    */
    /* Requires to enable write access to Backup Domain of necessary */
    if(__HAL_RCC_PWR_IS_CLK_DISABLED())
 8001012:	4b81      	ldr	r3, [pc, #516]	; (8001218 <HAL_RCC_OscConfig+0x470>)
 8001014:	6c1b      	ldr	r3, [r3, #64]	; 0x40
 8001016:	f003 5380 	and.w	r3, r3, #268435456	; 0x10000000
 800101a:	2b00      	cmp	r3, #0
 800101c:	d10f      	bne.n	800103e <HAL_RCC_OscConfig+0x296>
    {
      __HAL_RCC_PWR_CLK_ENABLE();
 800101e:	2300      	movs	r3, #0
 8001020:	60bb      	str	r3, [r7, #8]
 8001022:	4b7d      	ldr	r3, [pc, #500]	; (8001218 <HAL_RCC_OscConfig+0x470>)
 8001024:	6c1b      	ldr	r3, [r3, #64]	; 0x40
 8001026:	4a7c      	ldr	r2, [pc, #496]	; (8001218 <HAL_RCC_OscConfig+0x470>)
 8001028:	f043 5380 	orr.w	r3, r3, #268435456	; 0x10000000
 800102c:	6413      	str	r3, [r2, #64]	; 0x40
 800102e:	4b7a      	ldr	r3, [pc, #488]	; (8001218 <HAL_RCC_OscConfig+0x470>)
 8001030:	6c1b      	ldr	r3, [r3, #64]	; 0x40
 8001032:	f003 5380 	and.w	r3, r3, #268435456	; 0x10000000
 8001036:	60bb      	str	r3, [r7, #8]
 8001038:	68bb      	ldr	r3, [r7, #8]
      pwrclkchanged = SET;
 800103a:	2301      	movs	r3, #1
 800103c:	75fb      	strb	r3, [r7, #23]
    }

    if(HAL_IS_BIT_CLR(PWR->CR, PWR_CR_DBP))
 800103e:	4b77      	ldr	r3, [pc, #476]	; (800121c <HAL_RCC_OscConfig+0x474>)
 8001040:	681b      	ldr	r3, [r3, #0]
 8001042:	f403 7380 	and.w	r3, r3, #256	; 0x100
 8001046:	2b00      	cmp	r3, #0
 8001048:	d118      	bne.n	800107c <HAL_RCC_OscConfig+0x2d4>
    {
      /* Enable write access to Backup domain */
      SET_BIT(PWR->CR, PWR_CR_DBP);
 800104a:	4b74      	ldr	r3, [pc, #464]	; (800121c <HAL_RCC_OscConfig+0x474>)
 800104c:	681b      	ldr	r3, [r3, #0]
 800104e:	4a73      	ldr	r2, [pc, #460]	; (800121c <HAL_RCC_OscConfig+0x474>)
 8001050:	f443 7380 	orr.w	r3, r3, #256	; 0x100
 8001054:	6013      	str	r3, [r2, #0]

      /* Wait for Backup domain Write protection disable */
      tickstart = HAL_GetTick();
 8001056:	f7ff fbff 	bl	8000858 <HAL_GetTick>
 800105a:	6138      	str	r0, [r7, #16]

      while(HAL_IS_BIT_CLR(PWR->CR, PWR_CR_DBP))
 800105c:	e008      	b.n	8001070 <HAL_RCC_OscConfig+0x2c8>
      {
        if((HAL_GetTick() - tickstart) > RCC_DBP_TIMEOUT_VALUE)
 800105e:	f7ff fbfb 	bl	8000858 <HAL_GetTick>
 8001062:	4602      	mov	r2, r0
 8001064:	693b      	ldr	r3, [r7, #16]
 8001066:	1ad3      	subs	r3, r2, r3
 8001068:	2b02      	cmp	r3, #2
 800106a:	d901      	bls.n	8001070 <HAL_RCC_OscConfig+0x2c8>
        {
          return HAL_TIMEOUT;
 800106c:	2303      	movs	r3, #3
 800106e:	e10c      	b.n	800128a <HAL_RCC_OscConfig+0x4e2>
      while(HAL_IS_BIT_CLR(PWR->CR, PWR_CR_DBP))
 8001070:	4b6a      	ldr	r3, [pc, #424]	; (800121c <HAL_RCC_OscConfig+0x474>)
 8001072:	681b      	ldr	r3, [r3, #0]
 8001074:	f403 7380 	and.w	r3, r3, #256	; 0x100
 8001078:	2b00      	cmp	r3, #0
 800107a:	d0f0      	beq.n	800105e <HAL_RCC_OscConfig+0x2b6>
        }
      }
    }

    /* Set the new LSE configuration -----------------------------------------*/
    __HAL_RCC_LSE_CONFIG(RCC_OscInitStruct->LSEState);
 800107c:	687b      	ldr	r3, [r7, #4]
 800107e:	689b      	ldr	r3, [r3, #8]
 8001080:	2b01      	cmp	r3, #1
 8001082:	d106      	bne.n	8001092 <HAL_RCC_OscConfig+0x2ea>
 8001084:	4b64      	ldr	r3, [pc, #400]	; (8001218 <HAL_RCC_OscConfig+0x470>)
 8001086:	6f1b      	ldr	r3, [r3, #112]	; 0x70
 8001088:	4a63      	ldr	r2, [pc, #396]	; (8001218 <HAL_RCC_OscConfig+0x470>)
 800108a:	f043 0301 	orr.w	r3, r3, #1
 800108e:	6713      	str	r3, [r2, #112]	; 0x70
 8001090:	e01c      	b.n	80010cc <HAL_RCC_OscConfig+0x324>
 8001092:	687b      	ldr	r3, [r7, #4]
 8001094:	689b      	ldr	r3, [r3, #8]
 8001096:	2b05      	cmp	r3, #5
 8001098:	d10c      	bne.n	80010b4 <HAL_RCC_OscConfig+0x30c>
 800109a:	4b5f      	ldr	r3, [pc, #380]	; (8001218 <HAL_RCC_OscConfig+0x470>)
 800109c:	6f1b      	ldr	r3, [r3, #112]	; 0x70
 800109e:	4a5e      	ldr	r2, [pc, #376]	; (8001218 <HAL_RCC_OscConfig+0x470>)
 80010a0:	f043 0304 	orr.w	r3, r3, #4
 80010a4:	6713      	str	r3, [r2, #112]	; 0x70
 80010a6:	4b5c      	ldr	r3, [pc, #368]	; (8001218 <HAL_RCC_OscConfig+0x470>)
 80010a8:	6f1b      	ldr	r3, [r3, #112]	; 0x70
 80010aa:	4a5b      	ldr	r2, [pc, #364]	; (8001218 <HAL_RCC_OscConfig+0x470>)
 80010ac:	f043 0301 	orr.w	r3, r3, #1
 80010b0:	6713      	str	r3, [r2, #112]	; 0x70
 80010b2:	e00b      	b.n	80010cc <HAL_RCC_OscConfig+0x324>
 80010b4:	4b58      	ldr	r3, [pc, #352]	; (8001218 <HAL_RCC_OscConfig+0x470>)
 80010b6:	6f1b      	ldr	r3, [r3, #112]	; 0x70
 80010b8:	4a57      	ldr	r2, [pc, #348]	; (8001218 <HAL_RCC_OscConfig+0x470>)
 80010ba:	f023 0301 	bic.w	r3, r3, #1
 80010be:	6713      	str	r3, [r2, #112]	; 0x70
 80010c0:	4b55      	ldr	r3, [pc, #340]	; (8001218 <HAL_RCC_OscConfig+0x470>)
 80010c2:	6f1b      	ldr	r3, [r3, #112]	; 0x70
 80010c4:	4a54      	ldr	r2, [pc, #336]	; (8001218 <HAL_RCC_OscConfig+0x470>)
 80010c6:	f023 0304 	bic.w	r3, r3, #4
 80010ca:	6713      	str	r3, [r2, #112]	; 0x70
    /* Check the LSE State */
    if((RCC_OscInitStruct->LSEState) != RCC_LSE_OFF)
 80010cc:	687b      	ldr	r3, [r7, #4]
 80010ce:	689b      	ldr	r3, [r3, #8]
 80010d0:	2b00      	cmp	r3, #0
 80010d2:	d015      	beq.n	8001100 <HAL_RCC_OscConfig+0x358>
    {
      /* Get Start Tick*/
      tickstart = HAL_GetTick();
 80010d4:	f7ff fbc0 	bl	8000858 <HAL_GetTick>
 80010d8:	6138      	str	r0, [r7, #16]

      /* Wait till LSE is ready */
      while(__HAL_RCC_GET_FLAG(RCC_FLAG_LSERDY) == RESET)
 80010da:	e00a      	b.n	80010f2 <HAL_RCC_OscConfig+0x34a>
      {
        if((HAL_GetTick() - tickstart ) > RCC_LSE_TIMEOUT_VALUE)
 80010dc:	f7ff fbbc 	bl	8000858 <HAL_GetTick>
 80010e0:	4602      	mov	r2, r0
 80010e2:	693b      	ldr	r3, [r7, #16]
 80010e4:	1ad3      	subs	r3, r2, r3
 80010e6:	f241 3288 	movw	r2, #5000	; 0x1388
 80010ea:	4293      	cmp	r3, r2
 80010ec:	d901      	bls.n	80010f2 <HAL_RCC_OscConfig+0x34a>
        {
          return HAL_TIMEOUT;
 80010ee:	2303      	movs	r3, #3
 80010f0:	e0cb      	b.n	800128a <HAL_RCC_OscConfig+0x4e2>
      while(__HAL_RCC_GET_FLAG(RCC_FLAG_LSERDY) == RESET)
 80010f2:	4b49      	ldr	r3, [pc, #292]	; (8001218 <HAL_RCC_OscConfig+0x470>)
 80010f4:	6f1b      	ldr	r3, [r3, #112]	; 0x70
 80010f6:	f003 0302 	and.w	r3, r3, #2
 80010fa:	2b00      	cmp	r3, #0
 80010fc:	d0ee      	beq.n	80010dc <HAL_RCC_OscConfig+0x334>
 80010fe:	e014      	b.n	800112a <HAL_RCC_OscConfig+0x382>
      }
    }
    else
    {
      /* Get Start Tick */
      tickstart = HAL_GetTick();
 8001100:	f7ff fbaa 	bl	8000858 <HAL_GetTick>
 8001104:	6138      	str	r0, [r7, #16]

      /* Wait till LSE is ready */
      while(__HAL_RCC_GET_FLAG(RCC_FLAG_LSERDY) != RESET)
 8001106:	e00a      	b.n	800111e <HAL_RCC_OscConfig+0x376>
      {
        if((HAL_GetTick() - tickstart ) > RCC_LSE_TIMEOUT_VALUE)
 8001108:	f7ff fba6 	bl	8000858 <HAL_GetTick>
 800110c:	4602      	mov	r2, r0
 800110e:	693b      	ldr	r3, [r7, #16]
 8001110:	1ad3      	subs	r3, r2, r3
 8001112:	f241 3288 	movw	r2, #5000	; 0x1388
 8001116:	4293      	cmp	r3, r2
 8001118:	d901      	bls.n	800111e <HAL_RCC_OscConfig+0x376>
        {
          return HAL_TIMEOUT;
 800111a:	2303      	movs	r3, #3
 800111c:	e0b5      	b.n	800128a <HAL_RCC_OscConfig+0x4e2>
      while(__HAL_RCC_GET_FLAG(RCC_FLAG_LSERDY) != RESET)
 800111e:	4b3e      	ldr	r3, [pc, #248]	; (8001218 <HAL_RCC_OscConfig+0x470>)
 8001120:	6f1b      	ldr	r3, [r3, #112]	; 0x70
 8001122:	f003 0302 	and.w	r3, r3, #2
 8001126:	2b00      	cmp	r3, #0
 8001128:	d1ee      	bne.n	8001108 <HAL_RCC_OscConfig+0x360>
        }
      }
    }

    /* Restore clock configuration if changed */
    if(pwrclkchanged == SET)
 800112a:	7dfb      	ldrb	r3, [r7, #23]
 800112c:	2b01      	cmp	r3, #1
 800112e:	d105      	bne.n	800113c <HAL_RCC_OscConfig+0x394>
    {
      __HAL_RCC_PWR_CLK_DISABLE();
 8001130:	4b39      	ldr	r3, [pc, #228]	; (8001218 <HAL_RCC_OscConfig+0x470>)
 8001132:	6c1b      	ldr	r3, [r3, #64]	; 0x40
 8001134:	4a38      	ldr	r2, [pc, #224]	; (8001218 <HAL_RCC_OscConfig+0x470>)
 8001136:	f023 5380 	bic.w	r3, r3, #268435456	; 0x10000000
 800113a:	6413      	str	r3, [r2, #64]	; 0x40
    }
  }
  /*-------------------------------- PLL Configuration -----------------------*/
  /* Check the parameters */
  assert_param(IS_RCC_PLL(RCC_OscInitStruct->PLL.PLLState));
  if ((RCC_OscInitStruct->PLL.PLLState) != RCC_PLL_NONE)
 800113c:	687b      	ldr	r3, [r7, #4]
 800113e:	699b      	ldr	r3, [r3, #24]
 8001140:	2b00      	cmp	r3, #0
 8001142:	f000 80a1 	beq.w	8001288 <HAL_RCC_OscConfig+0x4e0>
  {
    /* Check if the PLL is used as system clock or not */
    if(__HAL_RCC_GET_SYSCLK_SOURCE() != RCC_CFGR_SWS_PLL)
 8001146:	4b34      	ldr	r3, [pc, #208]	; (8001218 <HAL_RCC_OscConfig+0x470>)
 8001148:	689b      	ldr	r3, [r3, #8]
 800114a:	f003 030c 	and.w	r3, r3, #12
 800114e:	2b08      	cmp	r3, #8
 8001150:	d05c      	beq.n	800120c <HAL_RCC_OscConfig+0x464>
    {
      if((RCC_OscInitStruct->PLL.PLLState) == RCC_PLL_ON)
 8001152:	687b      	ldr	r3, [r7, #4]
 8001154:	699b      	ldr	r3, [r3, #24]
 8001156:	2b02      	cmp	r3, #2
 8001158:	d141      	bne.n	80011de <HAL_RCC_OscConfig+0x436>
        assert_param(IS_RCC_PLLN_VALUE(RCC_OscInitStruct->PLL.PLLN));
        assert_param(IS_RCC_PLLP_VALUE(RCC_OscInitStruct->PLL.PLLP));
        assert_param(IS_RCC_PLLQ_VALUE(RCC_OscInitStruct->PLL.PLLQ));

        /* Disable the main PLL. */
        __HAL_RCC_PLL_DISABLE();
 800115a:	4b31      	ldr	r3, [pc, #196]	; (8001220 <HAL_RCC_OscConfig+0x478>)
 800115c:	2200      	movs	r2, #0
 800115e:	601a      	str	r2, [r3, #0]

        /* Get Start Tick */
        tickstart = HAL_GetTick();
 8001160:	f7ff fb7a 	bl	8000858 <HAL_GetTick>
 8001164:	6138      	str	r0, [r7, #16]

        /* Wait till PLL is ready */
        while(__HAL_RCC_GET_FLAG(RCC_FLAG_PLLRDY) != RESET)
 8001166:	e008      	b.n	800117a <HAL_RCC_OscConfig+0x3d2>
        {
          if((HAL_GetTick() - tickstart ) > PLL_TIMEOUT_VALUE)
 8001168:	f7ff fb76 	bl	8000858 <HAL_GetTick>
 800116c:	4602      	mov	r2, r0
 800116e:	693b      	ldr	r3, [r7, #16]
 8001170:	1ad3      	subs	r3, r2, r3
 8001172:	2b02      	cmp	r3, #2
 8001174:	d901      	bls.n	800117a <HAL_RCC_OscConfig+0x3d2>
          {
            return HAL_TIMEOUT;
 8001176:	2303      	movs	r3, #3
 8001178:	e087      	b.n	800128a <HAL_RCC_OscConfig+0x4e2>
        while(__HAL_RCC_GET_FLAG(RCC_FLAG_PLLRDY) != RESET)
 800117a:	4b27      	ldr	r3, [pc, #156]	; (8001218 <HAL_RCC_OscConfig+0x470>)
 800117c:	681b      	ldr	r3, [r3, #0]
 800117e:	f003 7300 	and.w	r3, r3, #33554432	; 0x2000000
 8001182:	2b00      	cmp	r3, #0
 8001184:	d1f0      	bne.n	8001168 <HAL_RCC_OscConfig+0x3c0>
          }
        }

        /* Configure the main PLL clock source, multiplication and division factors. */
        WRITE_REG(RCC->PLLCFGR, (RCC_OscInitStruct->PLL.PLLSource                                            | \
 8001186:	687b      	ldr	r3, [r7, #4]
 8001188:	69da      	ldr	r2, [r3, #28]
 800118a:	687b      	ldr	r3, [r7, #4]
 800118c:	6a1b      	ldr	r3, [r3, #32]
 800118e:	431a      	orrs	r2, r3
 8001190:	687b      	ldr	r3, [r7, #4]
 8001192:	6a5b      	ldr	r3, [r3, #36]	; 0x24
 8001194:	019b      	lsls	r3, r3, #6
 8001196:	431a      	orrs	r2, r3
 8001198:	687b      	ldr	r3, [r7, #4]
 800119a:	6a9b      	ldr	r3, [r3, #40]	; 0x28
 800119c:	085b      	lsrs	r3, r3, #1
 800119e:	3b01      	subs	r3, #1
 80011a0:	041b      	lsls	r3, r3, #16
 80011a2:	431a      	orrs	r2, r3
 80011a4:	687b      	ldr	r3, [r7, #4]
 80011a6:	6adb      	ldr	r3, [r3, #44]	; 0x2c
 80011a8:	061b      	lsls	r3, r3, #24
 80011aa:	491b      	ldr	r1, [pc, #108]	; (8001218 <HAL_RCC_OscConfig+0x470>)
 80011ac:	4313      	orrs	r3, r2
 80011ae:	604b      	str	r3, [r1, #4]
                                 RCC_OscInitStruct->PLL.PLLM                                                 | \
                                 (RCC_OscInitStruct->PLL.PLLN << RCC_PLLCFGR_PLLN_Pos)             | \
                                 (((RCC_OscInitStruct->PLL.PLLP >> 1U) - 1U) << RCC_PLLCFGR_PLLP_Pos) | \
                                 (RCC_OscInitStruct->PLL.PLLQ << RCC_PLLCFGR_PLLQ_Pos)));
        /* Enable the main PLL. */
        __HAL_RCC_PLL_ENABLE();
 80011b0:	4b1b      	ldr	r3, [pc, #108]	; (8001220 <HAL_RCC_OscConfig+0x478>)
 80011b2:	2201      	movs	r2, #1
 80011b4:	601a      	str	r2, [r3, #0]

        /* Get Start Tick */
        tickstart = HAL_GetTick();
 80011b6:	f7ff fb4f 	bl	8000858 <HAL_GetTick>
 80011ba:	6138      	str	r0, [r7, #16]

        /* Wait till PLL is ready */
        while(__HAL_RCC_GET_FLAG(RCC_FLAG_PLLRDY) == RESET)
 80011bc:	e008      	b.n	80011d0 <HAL_RCC_OscConfig+0x428>
        {
          if((HAL_GetTick() - tickstart ) > PLL_TIMEOUT_VALUE)
 80011be:	f7ff fb4b 	bl	8000858 <HAL_GetTick>
 80011c2:	4602      	mov	r2, r0
 80011c4:	693b      	ldr	r3, [r7, #16]
 80011c6:	1ad3      	subs	r3, r2, r3
 80011c8:	2b02      	cmp	r3, #2
 80011ca:	d901      	bls.n	80011d0 <HAL_RCC_OscConfig+0x428>
          {
            return HAL_TIMEOUT;
 80011cc:	2303      	movs	r3, #3
 80011ce:	e05c      	b.n	800128a <HAL_RCC_OscConfig+0x4e2>
        while(__HAL_RCC_GET_FLAG(RCC_FLAG_PLLRDY) == RESET)
 80011d0:	4b11      	ldr	r3, [pc, #68]	; (8001218 <HAL_RCC_OscConfig+0x470>)
 80011d2:	681b      	ldr	r3, [r3, #0]
 80011d4:	f003 7300 	and.w	r3, r3, #33554432	; 0x2000000
 80011d8:	2b00      	cmp	r3, #0
 80011da:	d0f0      	beq.n	80011be <HAL_RCC_OscConfig+0x416>
 80011dc:	e054      	b.n	8001288 <HAL_RCC_OscConfig+0x4e0>
        }
      }
      else
      {
        /* Disable the main PLL. */
        __HAL_RCC_PLL_DISABLE();
 80011de:	4b10      	ldr	r3, [pc, #64]	; (8001220 <HAL_RCC_OscConfig+0x478>)
 80011e0:	2200      	movs	r2, #0
 80011e2:	601a      	str	r2, [r3, #0]

        /* Get Start Tick */
        tickstart = HAL_GetTick();
 80011e4:	f7ff fb38 	bl	8000858 <HAL_GetTick>
 80011e8:	6138      	str	r0, [r7, #16]

        /* Wait till PLL is ready */
        while(__HAL_RCC_GET_FLAG(RCC_FLAG_PLLRDY) != RESET)
 80011ea:	e008      	b.n	80011fe <HAL_RCC_OscConfig+0x456>
        {
          if((HAL_GetTick() - tickstart ) > PLL_TIMEOUT_VALUE)
 80011ec:	f7ff fb34 	bl	8000858 <HAL_GetTick>
 80011f0:	4602      	mov	r2, r0
 80011f2:	693b      	ldr	r3, [r7, #16]
 80011f4:	1ad3      	subs	r3, r2, r3
 80011f6:	2b02      	cmp	r3, #2
 80011f8:	d901      	bls.n	80011fe <HAL_RCC_OscConfig+0x456>
          {
            return HAL_TIMEOUT;
 80011fa:	2303      	movs	r3, #3
 80011fc:	e045      	b.n	800128a <HAL_RCC_OscConfig+0x4e2>
        while(__HAL_RCC_GET_FLAG(RCC_FLAG_PLLRDY) != RESET)
 80011fe:	4b06      	ldr	r3, [pc, #24]	; (8001218 <HAL_RCC_OscConfig+0x470>)
 8001200:	681b      	ldr	r3, [r3, #0]
 8001202:	f003 7300 	and.w	r3, r3, #33554432	; 0x2000000
 8001206:	2b00      	cmp	r3, #0
 8001208:	d1f0      	bne.n	80011ec <HAL_RCC_OscConfig+0x444>
 800120a:	e03d      	b.n	8001288 <HAL_RCC_OscConfig+0x4e0>
      }
    }
    else
    {
      /* Check if there is a request to disable the PLL used as System clock source */
      if((RCC_OscInitStruct->PLL.PLLState) == RCC_PLL_OFF)
 800120c:	687b      	ldr	r3, [r7, #4]
 800120e:	699b      	ldr	r3, [r3, #24]
 8001210:	2b01      	cmp	r3, #1
 8001212:	d107      	bne.n	8001224 <HAL_RCC_OscConfig+0x47c>
      {
        return HAL_ERROR;
 8001214:	2301      	movs	r3, #1
 8001216:	e038      	b.n	800128a <HAL_RCC_OscConfig+0x4e2>
 8001218:	40023800 	.word	0x40023800
 800121c:	40007000 	.word	0x40007000
 8001220:	42470060 	.word	0x42470060
      }
      else
      {
        /* Do not return HAL_ERROR if request repeats the current configuration */
        pll_config = RCC->PLLCFGR;
 8001224:	4b1b      	ldr	r3, [pc, #108]	; (8001294 <HAL_RCC_OscConfig+0x4ec>)
 8001226:	685b      	ldr	r3, [r3, #4]
 8001228:	60fb      	str	r3, [r7, #12]
            (READ_BIT(pll_config, RCC_PLLCFGR_PLLN) != (RCC_OscInitStruct->PLL.PLLN) << RCC_PLLCFGR_PLLN_Pos) ||
            (READ_BIT(pll_config, RCC_PLLCFGR_PLLP) != (((RCC_OscInitStruct->PLL.PLLP >> 1U) - 1U)) << RCC_PLLCFGR_PLLP_Pos) ||
            (READ_BIT(pll_config, RCC_PLLCFGR_PLLQ) != (RCC_OscInitStruct->PLL.PLLQ << RCC_PLLCFGR_PLLQ_Pos)) ||
            (READ_BIT(pll_config, RCC_PLLCFGR_PLLR) != (RCC_OscInitStruct->PLL.PLLR << RCC_PLLCFGR_PLLR_Pos)))
#else
        if (((RCC_OscInitStruct->PLL.PLLState) == RCC_PLL_OFF) ||
 800122a:	687b      	ldr	r3, [r7, #4]
 800122c:	699b      	ldr	r3, [r3, #24]
 800122e:	2b01      	cmp	r3, #1
 8001230:	d028      	beq.n	8001284 <HAL_RCC_OscConfig+0x4dc>
            (READ_BIT(pll_config, RCC_PLLCFGR_PLLSRC) != RCC_OscInitStruct->PLL.PLLSource) ||
 8001232:	68fb      	ldr	r3, [r7, #12]
 8001234:	f403 0280 	and.w	r2, r3, #4194304	; 0x400000
 8001238:	687b      	ldr	r3, [r7, #4]
 800123a:	69db      	ldr	r3, [r3, #28]
        if (((RCC_OscInitStruct->PLL.PLLState) == RCC_PLL_OFF) ||
 800123c:	429a      	cmp	r2, r3
 800123e:	d121      	bne.n	8001284 <HAL_RCC_OscConfig+0x4dc>
            (READ_BIT(pll_config, RCC_PLLCFGR_PLLM) != (RCC_OscInitStruct->PLL.PLLM) << RCC_PLLCFGR_PLLM_Pos) ||
 8001240:	68fb      	ldr	r3, [r7, #12]
 8001242:	f003 023f 	and.w	r2, r3, #63	; 0x3f
 8001246:	687b      	ldr	r3, [r7, #4]
 8001248:	6a1b      	ldr	r3, [r3, #32]
            (READ_BIT(pll_config, RCC_PLLCFGR_PLLSRC) != RCC_OscInitStruct->PLL.PLLSource) ||
 800124a:	429a      	cmp	r2, r3
 800124c:	d11a      	bne.n	8001284 <HAL_RCC_OscConfig+0x4dc>
            (READ_BIT(pll_config, RCC_PLLCFGR_PLLN) != (RCC_OscInitStruct->PLL.PLLN) << RCC_PLLCFGR_PLLN_Pos) ||
 800124e:	68fa      	ldr	r2, [r7, #12]
 8001250:	f647 73c0 	movw	r3, #32704	; 0x7fc0
 8001254:	4013      	ands	r3, r2
 8001256:	687a      	ldr	r2, [r7, #4]
 8001258:	6a52      	ldr	r2, [r2, #36]	; 0x24
 800125a:	0192      	lsls	r2, r2, #6
            (READ_BIT(pll_config, RCC_PLLCFGR_PLLM) != (RCC_OscInitStruct->PLL.PLLM) << RCC_PLLCFGR_PLLM_Pos) ||
 800125c:	4293      	cmp	r3, r2
 800125e:	d111      	bne.n	8001284 <HAL_RCC_OscConfig+0x4dc>
            (READ_BIT(pll_config, RCC_PLLCFGR_PLLP) != (((RCC_OscInitStruct->PLL.PLLP >> 1U) - 1U)) << RCC_PLLCFGR_PLLP_Pos) ||
 8001260:	68fb      	ldr	r3, [r7, #12]
 8001262:	f403 3240 	and.w	r2, r3, #196608	; 0x30000
 8001266:	687b      	ldr	r3, [r7, #4]
 8001268:	6a9b      	ldr	r3, [r3, #40]	; 0x28
 800126a:	085b      	lsrs	r3, r3, #1
 800126c:	3b01      	subs	r3, #1
 800126e:	041b      	lsls	r3, r3, #16
            (READ_BIT(pll_config, RCC_PLLCFGR_PLLN) != (RCC_OscInitStruct->PLL.PLLN) << RCC_PLLCFGR_PLLN_Pos) ||
 8001270:	429a      	cmp	r2, r3
 8001272:	d107      	bne.n	8001284 <HAL_RCC_OscConfig+0x4dc>
            (READ_BIT(pll_config, RCC_PLLCFGR_PLLQ) != (RCC_OscInitStruct->PLL.PLLQ << RCC_PLLCFGR_PLLQ_Pos)))
 8001274:	68fb      	ldr	r3, [r7, #12]
 8001276:	f003 6270 	and.w	r2, r3, #251658240	; 0xf000000
 800127a:	687b      	ldr	r3, [r7, #4]
 800127c:	6adb      	ldr	r3, [r3, #44]	; 0x2c
 800127e:	061b      	lsls	r3, r3, #24
            (READ_BIT(pll_config, RCC_PLLCFGR_PLLP) != (((RCC_OscInitStruct->PLL.PLLP >> 1U) - 1U)) << RCC_PLLCFGR_PLLP_Pos) ||
 8001280:	429a      	cmp	r2, r3
 8001282:	d001      	beq.n	8001288 <HAL_RCC_OscConfig+0x4e0>
#endif
        {
          return HAL_ERROR;
 8001284:	2301      	movs	r3, #1
 8001286:	e000      	b.n	800128a <HAL_RCC_OscConfig+0x4e2>
        }
      }
    }
  }
  return HAL_OK;
 8001288:	2300      	movs	r3, #0
}
 800128a:	4618      	mov	r0, r3
 800128c:	3718      	adds	r7, #24
 800128e:	46bd      	mov	sp, r7
 8001290:	bd80      	pop	{r7, pc}
 8001292:	bf00      	nop
 8001294:	40023800 	.word	0x40023800

08001298 <HAL_RCC_ClockConfig>:
  *         HPRE[3:0] bits to ensure that HCLK not exceed the maximum allowed frequency
  *         (for more details refer to section above "Initialization/de-initialization functions")
  * @retval None
  */
HAL_StatusTypeDef HAL_RCC_ClockConfig(RCC_ClkInitTypeDef  *RCC_ClkInitStruct, uint32_t FLatency)
{
 8001298:	b580      	push	{r7, lr}
 800129a:	b084      	sub	sp, #16
 800129c:	af00      	add	r7, sp, #0
 800129e:	6078      	str	r0, [r7, #4]
 80012a0:	6039      	str	r1, [r7, #0]
  uint32_t tickstart;

  /* Check Null pointer */
  if(RCC_ClkInitStruct == NULL)
 80012a2:	687b      	ldr	r3, [r7, #4]
 80012a4:	2b00      	cmp	r3, #0
 80012a6:	d101      	bne.n	80012ac <HAL_RCC_ClockConfig+0x14>
  {
    return HAL_ERROR;
 80012a8:	2301      	movs	r3, #1
 80012aa:	e0cc      	b.n	8001446 <HAL_RCC_ClockConfig+0x1ae>
  /* To correctly read data from FLASH memory, the number of wait states (LATENCY)
    must be correctly programmed according to the frequency of the CPU clock
    (HCLK) and the supply voltage of the device. */

  /* Increasing the number of wait states because of higher CPU frequency */
  if(FLatency > __HAL_FLASH_GET_LATENCY())
 80012ac:	4b68      	ldr	r3, [pc, #416]	; (8001450 <HAL_RCC_ClockConfig+0x1b8>)
 80012ae:	681b      	ldr	r3, [r3, #0]
 80012b0:	f003 0307 	and.w	r3, r3, #7
 80012b4:	683a      	ldr	r2, [r7, #0]
 80012b6:	429a      	cmp	r2, r3
 80012b8:	d90c      	bls.n	80012d4 <HAL_RCC_ClockConfig+0x3c>
  {
    /* Program the new number of wait states to the LATENCY bits in the FLASH_ACR register */
    __HAL_FLASH_SET_LATENCY(FLatency);
 80012ba:	4b65      	ldr	r3, [pc, #404]	; (8001450 <HAL_RCC_ClockConfig+0x1b8>)
 80012bc:	683a      	ldr	r2, [r7, #0]
 80012be:	b2d2      	uxtb	r2, r2
 80012c0:	701a      	strb	r2, [r3, #0]

    /* Check that the new number of wait states is taken into account to access the Flash
    memory by reading the FLASH_ACR register */
    if(__HAL_FLASH_GET_LATENCY() != FLatency)
 80012c2:	4b63      	ldr	r3, [pc, #396]	; (8001450 <HAL_RCC_ClockConfig+0x1b8>)
 80012c4:	681b      	ldr	r3, [r3, #0]
 80012c6:	f003 0307 	and.w	r3, r3, #7
 80012ca:	683a      	ldr	r2, [r7, #0]
 80012cc:	429a      	cmp	r2, r3
 80012ce:	d001      	beq.n	80012d4 <HAL_RCC_ClockConfig+0x3c>
    {
      return HAL_ERROR;
 80012d0:	2301      	movs	r3, #1
 80012d2:	e0b8      	b.n	8001446 <HAL_RCC_ClockConfig+0x1ae>
    }
  }

  /*-------------------------- HCLK Configuration --------------------------*/
  if(((RCC_ClkInitStruct->ClockType) & RCC_CLOCKTYPE_HCLK) == RCC_CLOCKTYPE_HCLK)
 80012d4:	687b      	ldr	r3, [r7, #4]
 80012d6:	681b      	ldr	r3, [r3, #0]
 80012d8:	f003 0302 	and.w	r3, r3, #2
 80012dc:	2b00      	cmp	r3, #0
 80012de:	d020      	beq.n	8001322 <HAL_RCC_ClockConfig+0x8a>
  {
    /* Set the highest APBx dividers in order to ensure that we do not go through
       a non-spec phase whatever we decrease or increase HCLK. */
    if(((RCC_ClkInitStruct->ClockType) & RCC_CLOCKTYPE_PCLK1) == RCC_CLOCKTYPE_PCLK1)
 80012e0:	687b      	ldr	r3, [r7, #4]
 80012e2:	681b      	ldr	r3, [r3, #0]
 80012e4:	f003 0304 	and.w	r3, r3, #4
 80012e8:	2b00      	cmp	r3, #0
 80012ea:	d005      	beq.n	80012f8 <HAL_RCC_ClockConfig+0x60>
    {
      MODIFY_REG(RCC->CFGR, RCC_CFGR_PPRE1, RCC_HCLK_DIV16);
 80012ec:	4b59      	ldr	r3, [pc, #356]	; (8001454 <HAL_RCC_ClockConfig+0x1bc>)
 80012ee:	689b      	ldr	r3, [r3, #8]
 80012f0:	4a58      	ldr	r2, [pc, #352]	; (8001454 <HAL_RCC_ClockConfig+0x1bc>)
 80012f2:	f443 53e0 	orr.w	r3, r3, #7168	; 0x1c00
 80012f6:	6093      	str	r3, [r2, #8]
    }

    if(((RCC_ClkInitStruct->ClockType) & RCC_CLOCKTYPE_PCLK2) == RCC_CLOCKTYPE_PCLK2)
 80012f8:	687b      	ldr	r3, [r7, #4]
 80012fa:	681b      	ldr	r3, [r3, #0]
 80012fc:	f003 0308 	and.w	r3, r3, #8
 8001300:	2b00      	cmp	r3, #0
 8001302:	d005      	beq.n	8001310 <HAL_RCC_ClockConfig+0x78>
    {
      MODIFY_REG(RCC->CFGR, RCC_CFGR_PPRE2, (RCC_HCLK_DIV16 << 3));
 8001304:	4b53      	ldr	r3, [pc, #332]	; (8001454 <HAL_RCC_ClockConfig+0x1bc>)
 8001306:	689b      	ldr	r3, [r3, #8]
 8001308:	4a52      	ldr	r2, [pc, #328]	; (8001454 <HAL_RCC_ClockConfig+0x1bc>)
 800130a:	f443 4360 	orr.w	r3, r3, #57344	; 0xe000
 800130e:	6093      	str	r3, [r2, #8]
    }

    assert_param(IS_RCC_HCLK(RCC_ClkInitStruct->AHBCLKDivider));
    MODIFY_REG(RCC->CFGR, RCC_CFGR_HPRE, RCC_ClkInitStruct->AHBCLKDivider);
 8001310:	4b50      	ldr	r3, [pc, #320]	; (8001454 <HAL_RCC_ClockConfig+0x1bc>)
 8001312:	689b      	ldr	r3, [r3, #8]
 8001314:	f023 02f0 	bic.w	r2, r3, #240	; 0xf0
 8001318:	687b      	ldr	r3, [r7, #4]
 800131a:	689b      	ldr	r3, [r3, #8]
 800131c:	494d      	ldr	r1, [pc, #308]	; (8001454 <HAL_RCC_ClockConfig+0x1bc>)
 800131e:	4313      	orrs	r3, r2
 8001320:	608b      	str	r3, [r1, #8]
  }

  /*------------------------- SYSCLK Configuration ---------------------------*/
  if(((RCC_ClkInitStruct->ClockType) & RCC_CLOCKTYPE_SYSCLK) == RCC_CLOCKTYPE_SYSCLK)
 8001322:	687b      	ldr	r3, [r7, #4]
 8001324:	681b      	ldr	r3, [r3, #0]
 8001326:	f003 0301 	and.w	r3, r3, #1
 800132a:	2b00      	cmp	r3, #0
 800132c:	d044      	beq.n	80013b8 <HAL_RCC_ClockConfig+0x120>
  {
    assert_param(IS_RCC_SYSCLKSOURCE(RCC_ClkInitStruct->SYSCLKSource));

    /* HSE is selected as System Clock Source */
    if(RCC_ClkInitStruct->SYSCLKSource == RCC_SYSCLKSOURCE_HSE)
 800132e:	687b      	ldr	r3, [r7, #4]
 8001330:	685b      	ldr	r3, [r3, #4]
 8001332:	2b01      	cmp	r3, #1
 8001334:	d107      	bne.n	8001346 <HAL_RCC_ClockConfig+0xae>
    {
      /* Check the HSE ready flag */
      if(__HAL_RCC_GET_FLAG(RCC_FLAG_HSERDY) == RESET)
 8001336:	4b47      	ldr	r3, [pc, #284]	; (8001454 <HAL_RCC_ClockConfig+0x1bc>)
 8001338:	681b      	ldr	r3, [r3, #0]
 800133a:	f403 3300 	and.w	r3, r3, #131072	; 0x20000
 800133e:	2b00      	cmp	r3, #0
 8001340:	d119      	bne.n	8001376 <HAL_RCC_ClockConfig+0xde>
      {
        return HAL_ERROR;
 8001342:	2301      	movs	r3, #1
 8001344:	e07f      	b.n	8001446 <HAL_RCC_ClockConfig+0x1ae>
      }
    }
    /* PLL is selected as System Clock Source */
    else if((RCC_ClkInitStruct->SYSCLKSource == RCC_SYSCLKSOURCE_PLLCLK)   ||
 8001346:	687b      	ldr	r3, [r7, #4]
 8001348:	685b      	ldr	r3, [r3, #4]
 800134a:	2b02      	cmp	r3, #2
 800134c:	d003      	beq.n	8001356 <HAL_RCC_ClockConfig+0xbe>
            (RCC_ClkInitStruct->SYSCLKSource == RCC_SYSCLKSOURCE_PLLRCLK))
 800134e:	687b      	ldr	r3, [r7, #4]
 8001350:	685b      	ldr	r3, [r3, #4]
    else if((RCC_ClkInitStruct->SYSCLKSource == RCC_SYSCLKSOURCE_PLLCLK)   ||
 8001352:	2b03      	cmp	r3, #3
 8001354:	d107      	bne.n	8001366 <HAL_RCC_ClockConfig+0xce>
    {
      /* Check the PLL ready flag */
      if(__HAL_RCC_GET_FLAG(RCC_FLAG_PLLRDY) == RESET)
 8001356:	4b3f      	ldr	r3, [pc, #252]	; (8001454 <HAL_RCC_ClockConfig+0x1bc>)
 8001358:	681b      	ldr	r3, [r3, #0]
 800135a:	f003 7300 	and.w	r3, r3, #33554432	; 0x2000000
 800135e:	2b00      	cmp	r3, #0
 8001360:	d109      	bne.n	8001376 <HAL_RCC_ClockConfig+0xde>
      {
        return HAL_ERROR;
 8001362:	2301      	movs	r3, #1
 8001364:	e06f      	b.n	8001446 <HAL_RCC_ClockConfig+0x1ae>
    }
    /* HSI is selected as System Clock Source */
    else
    {
      /* Check the HSI ready flag */
      if(__HAL_RCC_GET_FLAG(RCC_FLAG_HSIRDY) == RESET)
 8001366:	4b3b      	ldr	r3, [pc, #236]	; (8001454 <HAL_RCC_ClockConfig+0x1bc>)
 8001368:	681b      	ldr	r3, [r3, #0]
 800136a:	f003 0302 	and.w	r3, r3, #2
 800136e:	2b00      	cmp	r3, #0
 8001370:	d101      	bne.n	8001376 <HAL_RCC_ClockConfig+0xde>
      {
        return HAL_ERROR;
 8001372:	2301      	movs	r3, #1
 8001374:	e067      	b.n	8001446 <HAL_RCC_ClockConfig+0x1ae>
      }
    }

    __HAL_RCC_SYSCLK_CONFIG(RCC_ClkInitStruct->SYSCLKSource);
 8001376:	4b37      	ldr	r3, [pc, #220]	; (8001454 <HAL_RCC_ClockConfig+0x1bc>)
 8001378:	689b      	ldr	r3, [r3, #8]
 800137a:	f023 0203 	bic.w	r2, r3, #3
 800137e:	687b      	ldr	r3, [r7, #4]
 8001380:	685b      	ldr	r3, [r3, #4]
 8001382:	4934      	ldr	r1, [pc, #208]	; (8001454 <HAL_RCC_ClockConfig+0x1bc>)
 8001384:	4313      	orrs	r3, r2
 8001386:	608b      	str	r3, [r1, #8]

    /* Get Start Tick */
    tickstart = HAL_GetTick();
 8001388:	f7ff fa66 	bl	8000858 <HAL_GetTick>
 800138c:	60f8      	str	r0, [r7, #12]

    while (__HAL_RCC_GET_SYSCLK_SOURCE() != (RCC_ClkInitStruct->SYSCLKSource << RCC_CFGR_SWS_Pos))
 800138e:	e00a      	b.n	80013a6 <HAL_RCC_ClockConfig+0x10e>
    {
      if ((HAL_GetTick() - tickstart) > CLOCKSWITCH_TIMEOUT_VALUE)
 8001390:	f7ff fa62 	bl	8000858 <HAL_GetTick>
 8001394:	4602      	mov	r2, r0
 8001396:	68fb      	ldr	r3, [r7, #12]
 8001398:	1ad3      	subs	r3, r2, r3
 800139a:	f241 3288 	movw	r2, #5000	; 0x1388
 800139e:	4293      	cmp	r3, r2
 80013a0:	d901      	bls.n	80013a6 <HAL_RCC_ClockConfig+0x10e>
      {
        return HAL_TIMEOUT;
 80013a2:	2303      	movs	r3, #3
 80013a4:	e04f      	b.n	8001446 <HAL_RCC_ClockConfig+0x1ae>
    while (__HAL_RCC_GET_SYSCLK_SOURCE() != (RCC_ClkInitStruct->SYSCLKSource << RCC_CFGR_SWS_Pos))
 80013a6:	4b2b      	ldr	r3, [pc, #172]	; (8001454 <HAL_RCC_ClockConfig+0x1bc>)
 80013a8:	689b      	ldr	r3, [r3, #8]
 80013aa:	f003 020c 	and.w	r2, r3, #12
 80013ae:	687b      	ldr	r3, [r7, #4]
 80013b0:	685b      	ldr	r3, [r3, #4]
 80013b2:	009b      	lsls	r3, r3, #2
 80013b4:	429a      	cmp	r2, r3
 80013b6:	d1eb      	bne.n	8001390 <HAL_RCC_ClockConfig+0xf8>
      }
    }
  }

  /* Decreasing the number of wait states because of lower CPU frequency */
  if(FLatency < __HAL_FLASH_GET_LATENCY())
 80013b8:	4b25      	ldr	r3, [pc, #148]	; (8001450 <HAL_RCC_ClockConfig+0x1b8>)
 80013ba:	681b      	ldr	r3, [r3, #0]
 80013bc:	f003 0307 	and.w	r3, r3, #7
 80013c0:	683a      	ldr	r2, [r7, #0]
 80013c2:	429a      	cmp	r2, r3
 80013c4:	d20c      	bcs.n	80013e0 <HAL_RCC_ClockConfig+0x148>
  {
     /* Program the new number of wait states to the LATENCY bits in the FLASH_ACR register */
    __HAL_FLASH_SET_LATENCY(FLatency);
 80013c6:	4b22      	ldr	r3, [pc, #136]	; (8001450 <HAL_RCC_ClockConfig+0x1b8>)
 80013c8:	683a      	ldr	r2, [r7, #0]
 80013ca:	b2d2      	uxtb	r2, r2
 80013cc:	701a      	strb	r2, [r3, #0]

    /* Check that the new number of wait states is taken into account to access the Flash
    memory by reading the FLASH_ACR register */
    if(__HAL_FLASH_GET_LATENCY() != FLatency)
 80013ce:	4b20      	ldr	r3, [pc, #128]	; (8001450 <HAL_RCC_ClockConfig+0x1b8>)
 80013d0:	681b      	ldr	r3, [r3, #0]
 80013d2:	f003 0307 	and.w	r3, r3, #7
 80013d6:	683a      	ldr	r2, [r7, #0]
 80013d8:	429a      	cmp	r2, r3
 80013da:	d001      	beq.n	80013e0 <HAL_RCC_ClockConfig+0x148>
    {
      return HAL_ERROR;
 80013dc:	2301      	movs	r3, #1
 80013de:	e032      	b.n	8001446 <HAL_RCC_ClockConfig+0x1ae>
    }
  }

  /*-------------------------- PCLK1 Configuration ---------------------------*/
  if(((RCC_ClkInitStruct->ClockType) & RCC_CLOCKTYPE_PCLK1) == RCC_CLOCKTYPE_PCLK1)
 80013e0:	687b      	ldr	r3, [r7, #4]
 80013e2:	681b      	ldr	r3, [r3, #0]
 80013e4:	f003 0304 	and.w	r3, r3, #4
 80013e8:	2b00      	cmp	r3, #0
 80013ea:	d008      	beq.n	80013fe <HAL_RCC_ClockConfig+0x166>
  {
    assert_param(IS_RCC_PCLK(RCC_ClkInitStruct->APB1CLKDivider));
    MODIFY_REG(RCC->CFGR, RCC_CFGR_PPRE1, RCC_ClkInitStruct->APB1CLKDivider);
 80013ec:	4b19      	ldr	r3, [pc, #100]	; (8001454 <HAL_RCC_ClockConfig+0x1bc>)
 80013ee:	689b      	ldr	r3, [r3, #8]
 80013f0:	f423 52e0 	bic.w	r2, r3, #7168	; 0x1c00
 80013f4:	687b      	ldr	r3, [r7, #4]
 80013f6:	68db      	ldr	r3, [r3, #12]
 80013f8:	4916      	ldr	r1, [pc, #88]	; (8001454 <HAL_RCC_ClockConfig+0x1bc>)
 80013fa:	4313      	orrs	r3, r2
 80013fc:	608b      	str	r3, [r1, #8]
  }

  /*-------------------------- PCLK2 Configuration ---------------------------*/
  if(((RCC_ClkInitStruct->ClockType) & RCC_CLOCKTYPE_PCLK2) == RCC_CLOCKTYPE_PCLK2)
 80013fe:	687b      	ldr	r3, [r7, #4]
 8001400:	681b      	ldr	r3, [r3, #0]
 8001402:	f003 0308 	and.w	r3, r3, #8
 8001406:	2b00      	cmp	r3, #0
 8001408:	d009      	beq.n	800141e <HAL_RCC_ClockConfig+0x186>
  {
    assert_param(IS_RCC_PCLK(RCC_ClkInitStruct->APB2CLKDivider));
    MODIFY_REG(RCC->CFGR, RCC_CFGR_PPRE2, ((RCC_ClkInitStruct->APB2CLKDivider) << 3U));
 800140a:	4b12      	ldr	r3, [pc, #72]	; (8001454 <HAL_RCC_ClockConfig+0x1bc>)
 800140c:	689b      	ldr	r3, [r3, #8]
 800140e:	f423 4260 	bic.w	r2, r3, #57344	; 0xe000
 8001412:	687b      	ldr	r3, [r7, #4]
 8001414:	691b      	ldr	r3, [r3, #16]
 8001416:	00db      	lsls	r3, r3, #3
 8001418:	490e      	ldr	r1, [pc, #56]	; (8001454 <HAL_RCC_ClockConfig+0x1bc>)
 800141a:	4313      	orrs	r3, r2
 800141c:	608b      	str	r3, [r1, #8]
  }

  /* Update the SystemCoreClock global variable */
  SystemCoreClock = HAL_RCC_GetSysClockFreq() >> AHBPrescTable[(RCC->CFGR & RCC_CFGR_HPRE)>> RCC_CFGR_HPRE_Pos];
 800141e:	f000 f821 	bl	8001464 <HAL_RCC_GetSysClockFreq>
 8001422:	4602      	mov	r2, r0
 8001424:	4b0b      	ldr	r3, [pc, #44]	; (8001454 <HAL_RCC_ClockConfig+0x1bc>)
 8001426:	689b      	ldr	r3, [r3, #8]
 8001428:	091b      	lsrs	r3, r3, #4
 800142a:	f003 030f 	and.w	r3, r3, #15
 800142e:	490a      	ldr	r1, [pc, #40]	; (8001458 <HAL_RCC_ClockConfig+0x1c0>)
 8001430:	5ccb      	ldrb	r3, [r1, r3]
 8001432:	fa22 f303 	lsr.w	r3, r2, r3
 8001436:	4a09      	ldr	r2, [pc, #36]	; (800145c <HAL_RCC_ClockConfig+0x1c4>)
 8001438:	6013      	str	r3, [r2, #0]

  /* Configure the source of time base considering new system clocks settings */
  HAL_InitTick (uwTickPrio);
 800143a:	4b09      	ldr	r3, [pc, #36]	; (8001460 <HAL_RCC_ClockConfig+0x1c8>)
 800143c:	681b      	ldr	r3, [r3, #0]
 800143e:	4618      	mov	r0, r3
 8001440:	f7ff f9c6 	bl	80007d0 <HAL_InitTick>

  return HAL_OK;
 8001444:	2300      	movs	r3, #0
}
 8001446:	4618      	mov	r0, r3
 8001448:	3710      	adds	r7, #16
 800144a:	46bd      	mov	sp, r7
 800144c:	bd80      	pop	{r7, pc}
 800144e:	bf00      	nop
 8001450:	40023c00 	.word	0x40023c00
 8001454:	40023800 	.word	0x40023800
 8001458:	080016e0 	.word	0x080016e0
 800145c:	20000000 	.word	0x20000000
 8001460:	20000004 	.word	0x20000004

08001464 <HAL_RCC_GetSysClockFreq>:
  *
  *
  * @retval SYSCLK frequency
  */
__weak uint32_t HAL_RCC_GetSysClockFreq(void)
{
 8001464:	e92d 4fb0 	stmdb	sp!, {r4, r5, r7, r8, r9, sl, fp, lr}
 8001468:	b094      	sub	sp, #80	; 0x50
 800146a:	af00      	add	r7, sp, #0
  uint32_t pllm = 0U, pllvco = 0U, pllp = 0U;
 800146c:	2300      	movs	r3, #0
 800146e:	647b      	str	r3, [r7, #68]	; 0x44
 8001470:	2300      	movs	r3, #0
 8001472:	64fb      	str	r3, [r7, #76]	; 0x4c
 8001474:	2300      	movs	r3, #0
 8001476:	643b      	str	r3, [r7, #64]	; 0x40
  uint32_t sysclockfreq = 0U;
 8001478:	2300      	movs	r3, #0
 800147a:	64bb      	str	r3, [r7, #72]	; 0x48

  /* Get SYSCLK source -------------------------------------------------------*/
  switch (RCC->CFGR & RCC_CFGR_SWS)
 800147c:	4b79      	ldr	r3, [pc, #484]	; (8001664 <HAL_RCC_GetSysClockFreq+0x200>)
 800147e:	689b      	ldr	r3, [r3, #8]
 8001480:	f003 030c 	and.w	r3, r3, #12
 8001484:	2b08      	cmp	r3, #8
 8001486:	d00d      	beq.n	80014a4 <HAL_RCC_GetSysClockFreq+0x40>
 8001488:	2b08      	cmp	r3, #8
 800148a:	f200 80e1 	bhi.w	8001650 <HAL_RCC_GetSysClockFreq+0x1ec>
 800148e:	2b00      	cmp	r3, #0
 8001490:	d002      	beq.n	8001498 <HAL_RCC_GetSysClockFreq+0x34>
 8001492:	2b04      	cmp	r3, #4
 8001494:	d003      	beq.n	800149e <HAL_RCC_GetSysClockFreq+0x3a>
 8001496:	e0db      	b.n	8001650 <HAL_RCC_GetSysClockFreq+0x1ec>
  {
    case RCC_CFGR_SWS_HSI:  /* HSI used as system clock source */
    {
      sysclockfreq = HSI_VALUE;
 8001498:	4b73      	ldr	r3, [pc, #460]	; (8001668 <HAL_RCC_GetSysClockFreq+0x204>)
 800149a:	64bb      	str	r3, [r7, #72]	; 0x48
       break;
 800149c:	e0db      	b.n	8001656 <HAL_RCC_GetSysClockFreq+0x1f2>
    }
    case RCC_CFGR_SWS_HSE:  /* HSE used as system clock  source */
    {
      sysclockfreq = HSE_VALUE;
 800149e:	4b73      	ldr	r3, [pc, #460]	; (800166c <HAL_RCC_GetSysClockFreq+0x208>)
 80014a0:	64bb      	str	r3, [r7, #72]	; 0x48
      break;
 80014a2:	e0d8      	b.n	8001656 <HAL_RCC_GetSysClockFreq+0x1f2>
    }
    case RCC_CFGR_SWS_PLL:  /* PLL used as system clock  source */
    {
      /* PLL_VCO = (HSE_VALUE or HSI_VALUE / PLLM) * PLLN
      SYSCLK = PLL_VCO / PLLP */
      pllm = RCC->PLLCFGR & RCC_PLLCFGR_PLLM;
 80014a4:	4b6f      	ldr	r3, [pc, #444]	; (8001664 <HAL_RCC_GetSysClockFreq+0x200>)
 80014a6:	685b      	ldr	r3, [r3, #4]
 80014a8:	f003 033f 	and.w	r3, r3, #63	; 0x3f
 80014ac:	647b      	str	r3, [r7, #68]	; 0x44
      if(__HAL_RCC_GET_PLL_OSCSOURCE() != RCC_PLLSOURCE_HSI)
 80014ae:	4b6d      	ldr	r3, [pc, #436]	; (8001664 <HAL_RCC_GetSysClockFreq+0x200>)
 80014b0:	685b      	ldr	r3, [r3, #4]
 80014b2:	f403 0380 	and.w	r3, r3, #4194304	; 0x400000
 80014b6:	2b00      	cmp	r3, #0
 80014b8:	d063      	beq.n	8001582 <HAL_RCC_GetSysClockFreq+0x11e>
      {
        /* HSE used as PLL clock source */
        pllvco = (uint32_t) ((((uint64_t) HSE_VALUE * ((uint64_t) ((RCC->PLLCFGR & RCC_PLLCFGR_PLLN) >> RCC_PLLCFGR_PLLN_Pos)))) / (uint64_t)pllm);
 80014ba:	4b6a      	ldr	r3, [pc, #424]	; (8001664 <HAL_RCC_GetSysClockFreq+0x200>)
 80014bc:	685b      	ldr	r3, [r3, #4]
 80014be:	099b      	lsrs	r3, r3, #6
 80014c0:	2200      	movs	r2, #0
 80014c2:	63bb      	str	r3, [r7, #56]	; 0x38
 80014c4:	63fa      	str	r2, [r7, #60]	; 0x3c
 80014c6:	6bbb      	ldr	r3, [r7, #56]	; 0x38
 80014c8:	f3c3 0308 	ubfx	r3, r3, #0, #9
 80014cc:	633b      	str	r3, [r7, #48]	; 0x30
 80014ce:	2300      	movs	r3, #0
 80014d0:	637b      	str	r3, [r7, #52]	; 0x34
 80014d2:	e9d7 450c 	ldrd	r4, r5, [r7, #48]	; 0x30
 80014d6:	4622      	mov	r2, r4
 80014d8:	462b      	mov	r3, r5
 80014da:	f04f 0000 	mov.w	r0, #0
 80014de:	f04f 0100 	mov.w	r1, #0
 80014e2:	0159      	lsls	r1, r3, #5
 80014e4:	ea41 61d2 	orr.w	r1, r1, r2, lsr #27
 80014e8:	0150      	lsls	r0, r2, #5
 80014ea:	4602      	mov	r2, r0
 80014ec:	460b      	mov	r3, r1
 80014ee:	4621      	mov	r1, r4
 80014f0:	1a51      	subs	r1, r2, r1
 80014f2:	6139      	str	r1, [r7, #16]
 80014f4:	4629      	mov	r1, r5
 80014f6:	eb63 0301 	sbc.w	r3, r3, r1
 80014fa:	617b      	str	r3, [r7, #20]
 80014fc:	f04f 0200 	mov.w	r2, #0
 8001500:	f04f 0300 	mov.w	r3, #0
 8001504:	e9d7 ab04 	ldrd	sl, fp, [r7, #16]
 8001508:	4659      	mov	r1, fp
 800150a:	018b      	lsls	r3, r1, #6
 800150c:	4651      	mov	r1, sl
 800150e:	ea43 6391 	orr.w	r3, r3, r1, lsr #26
 8001512:	4651      	mov	r1, sl
 8001514:	018a      	lsls	r2, r1, #6
 8001516:	4651      	mov	r1, sl
 8001518:	ebb2 0801 	subs.w	r8, r2, r1
 800151c:	4659      	mov	r1, fp
 800151e:	eb63 0901 	sbc.w	r9, r3, r1
 8001522:	f04f 0200 	mov.w	r2, #0
 8001526:	f04f 0300 	mov.w	r3, #0
 800152a:	ea4f 03c9 	mov.w	r3, r9, lsl #3
 800152e:	ea43 7358 	orr.w	r3, r3, r8, lsr #29
 8001532:	ea4f 02c8 	mov.w	r2, r8, lsl #3
 8001536:	4690      	mov	r8, r2
 8001538:	4699      	mov	r9, r3
 800153a:	4623      	mov	r3, r4
 800153c:	eb18 0303 	adds.w	r3, r8, r3
 8001540:	60bb      	str	r3, [r7, #8]
 8001542:	462b      	mov	r3, r5
 8001544:	eb49 0303 	adc.w	r3, r9, r3
 8001548:	60fb      	str	r3, [r7, #12]
 800154a:	f04f 0200 	mov.w	r2, #0
 800154e:	f04f 0300 	mov.w	r3, #0
 8001552:	e9d7 4502 	ldrd	r4, r5, [r7, #8]
 8001556:	4629      	mov	r1, r5
 8001558:	024b      	lsls	r3, r1, #9
 800155a:	4621      	mov	r1, r4
 800155c:	ea43 53d1 	orr.w	r3, r3, r1, lsr #23
 8001560:	4621      	mov	r1, r4
 8001562:	024a      	lsls	r2, r1, #9
 8001564:	4610      	mov	r0, r2
 8001566:	4619      	mov	r1, r3
 8001568:	6c7b      	ldr	r3, [r7, #68]	; 0x44
 800156a:	2200      	movs	r2, #0
 800156c:	62bb      	str	r3, [r7, #40]	; 0x28
 800156e:	62fa      	str	r2, [r7, #44]	; 0x2c
 8001570:	e9d7 230a 	ldrd	r2, r3, [r7, #40]	; 0x28
 8001574:	f7fe fe28 	bl	80001c8 <__aeabi_uldivmod>
 8001578:	4602      	mov	r2, r0
 800157a:	460b      	mov	r3, r1
 800157c:	4613      	mov	r3, r2
 800157e:	64fb      	str	r3, [r7, #76]	; 0x4c
 8001580:	e058      	b.n	8001634 <HAL_RCC_GetSysClockFreq+0x1d0>
      }
      else
      {
        /* HSI used as PLL clock source */
        pllvco = (uint32_t) ((((uint64_t) HSI_VALUE * ((uint64_t) ((RCC->PLLCFGR & RCC_PLLCFGR_PLLN) >> RCC_PLLCFGR_PLLN_Pos)))) / (uint64_t)pllm);
 8001582:	4b38      	ldr	r3, [pc, #224]	; (8001664 <HAL_RCC_GetSysClockFreq+0x200>)
 8001584:	685b      	ldr	r3, [r3, #4]
 8001586:	099b      	lsrs	r3, r3, #6
 8001588:	2200      	movs	r2, #0
 800158a:	4618      	mov	r0, r3
 800158c:	4611      	mov	r1, r2
 800158e:	f3c0 0308 	ubfx	r3, r0, #0, #9
 8001592:	623b      	str	r3, [r7, #32]
 8001594:	2300      	movs	r3, #0
 8001596:	627b      	str	r3, [r7, #36]	; 0x24
 8001598:	e9d7 8908 	ldrd	r8, r9, [r7, #32]
 800159c:	4642      	mov	r2, r8
 800159e:	464b      	mov	r3, r9
 80015a0:	f04f 0000 	mov.w	r0, #0
 80015a4:	f04f 0100 	mov.w	r1, #0
 80015a8:	0159      	lsls	r1, r3, #5
 80015aa:	ea41 61d2 	orr.w	r1, r1, r2, lsr #27
 80015ae:	0150      	lsls	r0, r2, #5
 80015b0:	4602      	mov	r2, r0
 80015b2:	460b      	mov	r3, r1
 80015b4:	4641      	mov	r1, r8
 80015b6:	ebb2 0a01 	subs.w	sl, r2, r1
 80015ba:	4649      	mov	r1, r9
 80015bc:	eb63 0b01 	sbc.w	fp, r3, r1
 80015c0:	f04f 0200 	mov.w	r2, #0
 80015c4:	f04f 0300 	mov.w	r3, #0
 80015c8:	ea4f 138b 	mov.w	r3, fp, lsl #6
 80015cc:	ea43 639a 	orr.w	r3, r3, sl, lsr #26
 80015d0:	ea4f 128a 	mov.w	r2, sl, lsl #6
 80015d4:	ebb2 040a 	subs.w	r4, r2, sl
 80015d8:	eb63 050b 	sbc.w	r5, r3, fp
 80015dc:	f04f 0200 	mov.w	r2, #0
 80015e0:	f04f 0300 	mov.w	r3, #0
 80015e4:	00eb      	lsls	r3, r5, #3
 80015e6:	ea43 7354 	orr.w	r3, r3, r4, lsr #29
 80015ea:	00e2      	lsls	r2, r4, #3
 80015ec:	4614      	mov	r4, r2
 80015ee:	461d      	mov	r5, r3
 80015f0:	4643      	mov	r3, r8
 80015f2:	18e3      	adds	r3, r4, r3
 80015f4:	603b      	str	r3, [r7, #0]
 80015f6:	464b      	mov	r3, r9
 80015f8:	eb45 0303 	adc.w	r3, r5, r3
 80015fc:	607b      	str	r3, [r7, #4]
 80015fe:	f04f 0200 	mov.w	r2, #0
 8001602:	f04f 0300 	mov.w	r3, #0
 8001606:	e9d7 4500 	ldrd	r4, r5, [r7]
 800160a:	4629      	mov	r1, r5
 800160c:	028b      	lsls	r3, r1, #10
 800160e:	4621      	mov	r1, r4
 8001610:	ea43 5391 	orr.w	r3, r3, r1, lsr #22
 8001614:	4621      	mov	r1, r4
 8001616:	028a      	lsls	r2, r1, #10
 8001618:	4610      	mov	r0, r2
 800161a:	4619      	mov	r1, r3
 800161c:	6c7b      	ldr	r3, [r7, #68]	; 0x44
 800161e:	2200      	movs	r2, #0
 8001620:	61bb      	str	r3, [r7, #24]
 8001622:	61fa      	str	r2, [r7, #28]
 8001624:	e9d7 2306 	ldrd	r2, r3, [r7, #24]
 8001628:	f7fe fdce 	bl	80001c8 <__aeabi_uldivmod>
 800162c:	4602      	mov	r2, r0
 800162e:	460b      	mov	r3, r1
 8001630:	4613      	mov	r3, r2
 8001632:	64fb      	str	r3, [r7, #76]	; 0x4c
      }
      pllp = ((((RCC->PLLCFGR & RCC_PLLCFGR_PLLP) >> RCC_PLLCFGR_PLLP_Pos) + 1U) *2U);
 8001634:	4b0b      	ldr	r3, [pc, #44]	; (8001664 <HAL_RCC_GetSysClockFreq+0x200>)
 8001636:	685b      	ldr	r3, [r3, #4]
 8001638:	0c1b      	lsrs	r3, r3, #16
 800163a:	f003 0303 	and.w	r3, r3, #3
 800163e:	3301      	adds	r3, #1
 8001640:	005b      	lsls	r3, r3, #1
 8001642:	643b      	str	r3, [r7, #64]	; 0x40

      sysclockfreq = pllvco/pllp;
 8001644:	6cfa      	ldr	r2, [r7, #76]	; 0x4c
 8001646:	6c3b      	ldr	r3, [r7, #64]	; 0x40
 8001648:	fbb2 f3f3 	udiv	r3, r2, r3
 800164c:	64bb      	str	r3, [r7, #72]	; 0x48
      break;
 800164e:	e002      	b.n	8001656 <HAL_RCC_GetSysClockFreq+0x1f2>
    }
    default:
    {
      sysclockfreq = HSI_VALUE;
 8001650:	4b05      	ldr	r3, [pc, #20]	; (8001668 <HAL_RCC_GetSysClockFreq+0x204>)
 8001652:	64bb      	str	r3, [r7, #72]	; 0x48
      break;
 8001654:	bf00      	nop
    }
  }
  return sysclockfreq;
 8001656:	6cbb      	ldr	r3, [r7, #72]	; 0x48
}
 8001658:	4618      	mov	r0, r3
 800165a:	3750      	adds	r7, #80	; 0x50
 800165c:	46bd      	mov	sp, r7
 800165e:	e8bd 8fb0 	ldmia.w	sp!, {r4, r5, r7, r8, r9, sl, fp, pc}
 8001662:	bf00      	nop
 8001664:	40023800 	.word	0x40023800
 8001668:	00f42400 	.word	0x00f42400
 800166c:	007a1200 	.word	0x007a1200

08001670 <__libc_init_array>:
 8001670:	b570      	push	{r4, r5, r6, lr}
 8001672:	4d0d      	ldr	r5, [pc, #52]	; (80016a8 <__libc_init_array+0x38>)
 8001674:	4c0d      	ldr	r4, [pc, #52]	; (80016ac <__libc_init_array+0x3c>)
 8001676:	1b64      	subs	r4, r4, r5
 8001678:	10a4      	asrs	r4, r4, #2
 800167a:	2600      	movs	r6, #0
 800167c:	42a6      	cmp	r6, r4
 800167e:	d109      	bne.n	8001694 <__libc_init_array+0x24>
 8001680:	4d0b      	ldr	r5, [pc, #44]	; (80016b0 <__libc_init_array+0x40>)
 8001682:	4c0c      	ldr	r4, [pc, #48]	; (80016b4 <__libc_init_array+0x44>)
 8001684:	f000 f820 	bl	80016c8 <_init>
 8001688:	1b64      	subs	r4, r4, r5
 800168a:	10a4      	asrs	r4, r4, #2
 800168c:	2600      	movs	r6, #0
 800168e:	42a6      	cmp	r6, r4
 8001690:	d105      	bne.n	800169e <__libc_init_array+0x2e>
 8001692:	bd70      	pop	{r4, r5, r6, pc}
 8001694:	f855 3b04 	ldr.w	r3, [r5], #4
 8001698:	4798      	blx	r3
 800169a:	3601      	adds	r6, #1
 800169c:	e7ee      	b.n	800167c <__libc_init_array+0xc>
 800169e:	f855 3b04 	ldr.w	r3, [r5], #4
 80016a2:	4798      	blx	r3
 80016a4:	3601      	adds	r6, #1
 80016a6:	e7f2      	b.n	800168e <__libc_init_array+0x1e>
 80016a8:	080016f8 	.word	0x080016f8
 80016ac:	080016f8 	.word	0x080016f8
 80016b0:	080016f8 	.word	0x080016f8
 80016b4:	080016fc 	.word	0x080016fc

080016b8 <memset>:
 80016b8:	4402      	add	r2, r0
 80016ba:	4603      	mov	r3, r0
 80016bc:	4293      	cmp	r3, r2
 80016be:	d100      	bne.n	80016c2 <memset+0xa>
 80016c0:	4770      	bx	lr
 80016c2:	f803 1b01 	strb.w	r1, [r3], #1
 80016c6:	e7f9      	b.n	80016bc <memset+0x4>

080016c8 <_init>:
 80016c8:	b5f8      	push	{r3, r4, r5, r6, r7, lr}
 80016ca:	bf00      	nop
 80016cc:	bcf8      	pop	{r3, r4, r5, r6, r7}
 80016ce:	bc08      	pop	{r3}
 80016d0:	469e      	mov	lr, r3
 80016d2:	4770      	bx	lr

080016d4 <_fini>:
 80016d4:	b5f8      	push	{r3, r4, r5, r6, r7, lr}
 80016d6:	bf00      	nop
 80016d8:	bcf8      	pop	{r3, r4, r5, r6, r7}
 80016da:	bc08      	pop	{r3}
 80016dc:	469e      	mov	lr, r3
 80016de:	4770      	bx	lr
